{
  "_format": "hh-sol-artifact-1",
  "contractName": "Fungi",
  "sourceName": "contracts/token/Fungi.sol",
  "abi": [
    {
      "inputs": [],
      "stateMutability": "nonpayable",
      "type": "constructor"
    },
    {
      "inputs": [],
      "name": "ReentrancyGuardReentrantCall",
      "type": "error"
    },
    {
      "anonymous": false,
      "inputs": [
        {
          "indexed": true,
          "internalType": "address",
          "name": "owner",
          "type": "address"
        },
        {
          "indexed": true,
          "internalType": "address",
          "name": "spender",
          "type": "address"
        },
        {
          "indexed": false,
          "internalType": "uint256",
          "name": "value",
          "type": "uint256"
        }
      ],
      "name": "Approval",
      "type": "event"
    },
    {
      "anonymous": false,
      "inputs": [
        {
          "indexed": true,
          "internalType": "address",
          "name": "holder",
          "type": "address"
        },
        {
          "components": [
            {
              "internalType": "uint256",
              "name": "seed",
              "type": "uint256"
            },
            {
              "internalType": "uint256",
              "name": "extra",
              "type": "uint256"
            }
          ],
          "indexed": false,
          "internalType": "struct SeedData",
          "name": "seed_data",
          "type": "tuple"
        }
      ],
      "name": "OnDynamicInscriptionAdd",
      "type": "event"
    },
    {
      "anonymous": false,
      "inputs": [
        {
          "indexed": true,
          "internalType": "address",
          "name": "holder",
          "type": "address"
        },
        {
          "components": [
            {
              "internalType": "uint256",
              "name": "seed",
              "type": "uint256"
            },
            {
              "internalType": "uint256",
              "name": "extra",
              "type": "uint256"
            }
          ],
          "indexed": false,
          "internalType": "struct SeedData",
          "name": "seed_data",
          "type": "tuple"
        }
      ],
      "name": "OnDynamicInscriptionRemove",
      "type": "event"
    },
    {
      "anonymous": false,
      "inputs": [
        {
          "indexed": true,
          "internalType": "address",
          "name": "from",
          "type": "address"
        },
        {
          "indexed": true,
          "internalType": "address",
          "name": "to",
          "type": "address"
        },
        {
          "components": [
            {
              "internalType": "uint256",
              "name": "seed",
              "type": "uint256"
            },
            {
              "internalType": "uint256",
              "name": "extra",
              "type": "uint256"
            }
          ],
          "indexed": false,
          "internalType": "struct SeedData",
          "name": "seed_data",
          "type": "tuple"
        }
      ],
      "name": "OnInscriptionTransfer",
      "type": "event"
    },
    {
      "anonymous": false,
      "inputs": [],
      "name": "RenounceOwnership",
      "type": "event"
    },
    {
      "anonymous": false,
      "inputs": [
        {
          "indexed": true,
          "internalType": "address",
          "name": "from",
          "type": "address"
        },
        {
          "indexed": true,
          "internalType": "address",
          "name": "to",
          "type": "address"
        },
        {
          "indexed": false,
          "internalType": "uint256",
          "name": "value",
          "type": "uint256"
        }
      ],
      "name": "Transfer",
      "type": "event"
    },
    {
      "inputs": [
        {
          "internalType": "uint256",
          "name": "offset",
          "type": "uint256"
        }
      ],
      "name": "GetPaletteFromMapping",
      "outputs": [
        {
          "internalType": "uint16[]",
          "name": "",
          "type": "uint16[]"
        }
      ],
      "stateMutability": "view",
      "type": "function"
    },
    {
      "inputs": [
        {
          "internalType": "uint256",
          "name": "offset",
          "type": "uint256"
        }
      ],
      "name": "GetTraitFromMapping",
      "outputs": [
        {
          "components": [
            {
              "internalType": "uint16",
              "name": "color",
              "type": "uint16"
            },
            {
              "internalType": "uint16",
              "name": "paletteIndex",
              "type": "uint16"
            },
            {
              "internalType": "bool",
              "name": "usePalette",
              "type": "bool"
            },
            {
              "internalType": "string",
              "name": "d",
              "type": "string"
            }
          ],
          "internalType": "struct PathString[]",
          "name": "",
          "type": "tuple[]"
        }
      ],
      "stateMutability": "view",
      "type": "function"
    },
    {
      "inputs": [
        {
          "internalType": "address",
          "name": "owner",
          "type": "address"
        },
        {
          "internalType": "address",
          "name": "spender",
          "type": "address"
        }
      ],
      "name": "allowance",
      "outputs": [
        {
          "internalType": "uint256",
          "name": "",
          "type": "uint256"
        }
      ],
      "stateMutability": "view",
      "type": "function"
    },
    {
      "inputs": [
        {
          "internalType": "address",
          "name": "spender",
          "type": "address"
        },
        {
          "internalType": "uint256",
          "name": "amount",
          "type": "uint256"
        }
      ],
      "name": "approve",
      "outputs": [
        {
          "internalType": "bool",
          "name": "",
          "type": "bool"
        }
      ],
      "stateMutability": "nonpayable",
      "type": "function"
    },
    {
      "inputs": [
        {
          "internalType": "address",
          "name": "account",
          "type": "address"
        }
      ],
      "name": "balanceOf",
      "outputs": [
        {
          "internalType": "uint256",
          "name": "",
          "type": "uint256"
        }
      ],
      "stateMutability": "view",
      "type": "function"
    },
    {
      "inputs": [],
      "name": "burnCount",
      "outputs": [
        {
          "internalType": "uint256",
          "name": "",
          "type": "uint256"
        }
      ],
      "stateMutability": "view",
      "type": "function"
    },
    {
      "inputs": [],
      "name": "decimals",
      "outputs": [
        {
          "internalType": "uint8",
          "name": "",
          "type": "uint8"
        }
      ],
      "stateMutability": "pure",
      "type": "function"
    },
    {
      "inputs": [
        {
          "internalType": "address",
          "name": "spender",
          "type": "address"
        },
        {
          "internalType": "uint256",
          "name": "subtractedValue",
          "type": "uint256"
        }
      ],
      "name": "decreaseAllowance",
      "outputs": [
        {
          "internalType": "bool",
          "name": "",
          "type": "bool"
        }
      ],
      "stateMutability": "nonpayable",
      "type": "function"
    },
    {
      "inputs": [
        {
          "internalType": "address",
          "name": "owner",
          "type": "address"
        }
      ],
      "name": "dynamicInscription",
      "outputs": [
        {
          "components": [
            {
              "internalType": "uint256",
              "name": "seed",
              "type": "uint256"
            },
            {
              "internalType": "uint256",
              "name": "extra",
              "type": "uint256"
            }
          ],
          "internalType": "struct SeedData",
          "name": "data",
          "type": "tuple"
        }
      ],
      "stateMutability": "view",
      "type": "function"
    },
    {
      "inputs": [],
      "name": "dynamicInscriptionTotalCount",
      "outputs": [
        {
          "internalType": "uint256",
          "name": "",
          "type": "uint256"
        }
      ],
      "stateMutability": "view",
      "type": "function"
    },
    {
      "inputs": [
        {
          "components": [
            {
              "internalType": "uint256",
              "name": "seed",
              "type": "uint256"
            },
            {
              "internalType": "uint256",
              "name": "extra",
              "type": "uint256"
            }
          ],
          "internalType": "struct SeedData",
          "name": "seed_data",
          "type": "tuple"
        }
      ],
      "name": "getFrog",
      "outputs": [
        {
          "components": [
            {
              "internalType": "uint256",
              "name": "lvl",
              "type": "uint256"
            },
            {
              "internalType": "uint256",
              "name": "egg",
              "type": "uint256"
            },
            {
              "internalType": "uint256",
              "name": "eggPalette",
              "type": "uint256"
            },
            {
              "internalType": "uint256",
              "name": "background",
              "type": "uint256"
            },
            {
              "internalType": "uint256",
              "name": "backgroundPalette",
              "type": "uint256"
            },
            {
              "internalType": "uint256",
              "name": "body",
              "type": "uint256"
            },
            {
              "internalType": "uint256",
              "name": "bodyPalette",
              "type": "uint256"
            },
            {
              "internalType": "uint256",
              "name": "expression",
              "type": "uint256"
            },
            {
              "internalType": "uint256",
              "name": "expressionPalette",
              "type": "uint256"
            },
            {
              "internalType": "uint256",
              "name": "eyes",
              "type": "uint256"
            },
            {
              "internalType": "uint256",
              "name": "eyesPalette",
              "type": "uint256"
            },
            {
              "internalType": "bool",
              "name": "hatBool",
              "type": "bool"
            },
            {
              "internalType": "uint256",
              "name": "hat",
              "type": "uint256"
            },
            {
              "internalType": "uint256",
              "name": "hatPalette",
              "type": "uint256"
            },
            {
              "internalType": "bool",
              "name": "eyewearBool",
              "type": "bool"
            },
            {
              "internalType": "uint256",
              "name": "eyewear",
              "type": "uint256"
            },
            {
              "internalType": "uint256",
              "name": "eyewearPalette",
              "type": "uint256"
            },
            {
              "internalType": "bool",
              "name": "clothesBool",
              "type": "bool"
            },
            {
              "internalType": "uint256",
              "name": "clothes",
              "type": "uint256"
            },
            {
              "internalType": "uint256",
              "name": "clothesPalette",
              "type": "uint256"
            }
          ],
          "internalType": "struct FrogData",
          "name": "",
          "type": "tuple"
        }
      ],
      "stateMutability": "view",
      "type": "function"
    },
    {
      "inputs": [
        {
          "internalType": "uint256",
          "name": "index",
          "type": "uint256"
        }
      ],
      "name": "getHolderByIndex",
      "outputs": [
        {
          "internalType": "address",
          "name": "",
          "type": "address"
        }
      ],
      "stateMutability": "view",
      "type": "function"
    },
    {
      "inputs": [
        {
          "internalType": "address",
          "name": "account",
          "type": "address"
        }
      ],
      "name": "getHolderIndex",
      "outputs": [
        {
          "internalType": "uint256",
          "name": "",
          "type": "uint256"
        }
      ],
      "stateMutability": "view",
      "type": "function"
    },
    {
      "inputs": [
        {
          "internalType": "uint256",
          "name": "startIndex",
          "type": "uint256"
        },
        {
          "internalType": "uint256",
          "name": "count",
          "type": "uint256"
        }
      ],
      "name": "getHoldersList",
      "outputs": [
        {
          "internalType": "address[]",
          "name": "",
          "type": "address[]"
        }
      ],
      "stateMutability": "view",
      "type": "function"
    },
    {
      "inputs": [
        {
          "components": [
            {
              "internalType": "uint256",
              "name": "seed",
              "type": "uint256"
            },
            {
              "internalType": "uint256",
              "name": "extra",
              "type": "uint256"
            }
          ],
          "internalType": "struct SeedData",
          "name": "seed_data",
          "type": "tuple"
        }
      ],
      "name": "getMeta",
      "outputs": [
        {
          "internalType": "string",
          "name": "",
          "type": "string"
        }
      ],
      "stateMutability": "view",
      "type": "function"
    },
    {
      "inputs": [
        {
          "components": [
            {
              "internalType": "uint256",
              "name": "seed",
              "type": "uint256"
            },
            {
              "internalType": "uint256",
              "name": "extra",
              "type": "uint256"
            }
          ],
          "internalType": "struct SeedData",
          "name": "seed_data",
          "type": "tuple"
        }
      ],
      "name": "getSvg",
      "outputs": [
        {
          "internalType": "string",
          "name": "",
          "type": "string"
        }
      ],
      "stateMutability": "view",
      "type": "function"
    },
    {
      "inputs": [
        {
          "components": [
            {
              "internalType": "uint256",
              "name": "lvl",
              "type": "uint256"
            },
            {
              "internalType": "uint256",
              "name": "egg",
              "type": "uint256"
            },
            {
              "internalType": "uint256",
              "name": "eggPalette",
              "type": "uint256"
            },
            {
              "internalType": "uint256",
              "name": "background",
              "type": "uint256"
            },
            {
              "internalType": "uint256",
              "name": "backgroundPalette",
              "type": "uint256"
            },
            {
              "internalType": "uint256",
              "name": "body",
              "type": "uint256"
            },
            {
              "internalType": "uint256",
              "name": "bodyPalette",
              "type": "uint256"
            },
            {
              "internalType": "uint256",
              "name": "expression",
              "type": "uint256"
            },
            {
              "internalType": "uint256",
              "name": "expressionPalette",
              "type": "uint256"
            },
            {
              "internalType": "uint256",
              "name": "eyes",
              "type": "uint256"
            },
            {
              "internalType": "uint256",
              "name": "eyesPalette",
              "type": "uint256"
            },
            {
              "internalType": "bool",
              "name": "hatBool",
              "type": "bool"
            },
            {
              "internalType": "uint256",
              "name": "hat",
              "type": "uint256"
            },
            {
              "internalType": "uint256",
              "name": "hatPalette",
              "type": "uint256"
            },
            {
              "internalType": "bool",
              "name": "eyewearBool",
              "type": "bool"
            },
            {
              "internalType": "uint256",
              "name": "eyewear",
              "type": "uint256"
            },
            {
              "internalType": "uint256",
              "name": "eyewearPalette",
              "type": "uint256"
            },
            {
              "internalType": "bool",
              "name": "clothesBool",
              "type": "bool"
            },
            {
              "internalType": "uint256",
              "name": "clothes",
              "type": "uint256"
            },
            {
              "internalType": "uint256",
              "name": "clothesPalette",
              "type": "uint256"
            }
          ],
          "internalType": "struct FrogData",
          "name": "frog_data",
          "type": "tuple"
        },
        {
          "internalType": "string",
          "name": "uuid",
          "type": "string"
        }
      ],
      "name": "getSvgDEBUG",
      "outputs": [
        {
          "internalType": "string",
          "name": "",
          "type": "string"
        }
      ],
      "stateMutability": "view",
      "type": "function"
    },
    {
      "inputs": [],
      "name": "holdersCount",
      "outputs": [
        {
          "internalType": "uint256",
          "name": "",
          "type": "uint256"
        }
      ],
      "stateMutability": "view",
      "type": "function"
    },
    {
      "inputs": [
        {
          "internalType": "address",
          "name": "spender",
          "type": "address"
        },
        {
          "internalType": "uint256",
          "name": "addedValue",
          "type": "uint256"
        }
      ],
      "name": "increaseAllowance",
      "outputs": [
        {
          "internalType": "bool",
          "name": "",
          "type": "bool"
        }
      ],
      "stateMutability": "nonpayable",
      "type": "function"
    },
    {
      "inputs": [
        {
          "internalType": "address",
          "name": "owner",
          "type": "address"
        }
      ],
      "name": "inscriptionCount",
      "outputs": [
        {
          "internalType": "uint256",
          "name": "",
          "type": "uint256"
        }
      ],
      "stateMutability": "view",
      "type": "function"
    },
    {
      "inputs": [
        {
          "internalType": "address",
          "name": "owner",
          "type": "address"
        },
        {
          "internalType": "uint256",
          "name": "index",
          "type": "uint256"
        }
      ],
      "name": "inscriptionOfOwnerByIndex",
      "outputs": [
        {
          "components": [
            {
              "internalType": "uint256",
              "name": "seed",
              "type": "uint256"
            },
            {
              "internalType": "uint256",
              "name": "extra",
              "type": "uint256"
            }
          ],
          "internalType": "struct SeedData",
          "name": "data",
          "type": "tuple"
        }
      ],
      "stateMutability": "view",
      "type": "function"
    },
    {
      "inputs": [],
      "name": "inscriptionsTotalCount",
      "outputs": [
        {
          "internalType": "uint256",
          "name": "",
          "type": "uint256"
        }
      ],
      "stateMutability": "view",
      "type": "function"
    },
    {
      "inputs": [
        {
          "internalType": "address",
          "name": "owner",
          "type": "address"
        },
        {
          "internalType": "uint256",
          "name": "seed",
          "type": "uint256"
        }
      ],
      "name": "isOwnerOf",
      "outputs": [
        {
          "internalType": "bool",
          "name": "",
          "type": "bool"
        }
      ],
      "stateMutability": "view",
      "type": "function"
    },
    {
      "inputs": [
        {
          "internalType": "address",
          "name": "poolAddress",
          "type": "address"
        }
      ],
      "name": "launch",
      "outputs": [],
      "stateMutability": "payable",
      "type": "function"
    },
    {
      "inputs": [],
      "name": "maxBuy",
      "outputs": [
        {
          "internalType": "uint256",
          "name": "",
          "type": "uint256"
        }
      ],
      "stateMutability": "view",
      "type": "function"
    },
    {
      "inputs": [],
      "name": "name",
      "outputs": [
        {
          "internalType": "string",
          "name": "",
          "type": "string"
        }
      ],
      "stateMutability": "view",
      "type": "function"
    },
    {
      "inputs": [],
      "name": "owner",
      "outputs": [
        {
          "internalType": "address",
          "name": "",
          "type": "address"
        }
      ],
      "stateMutability": "view",
      "type": "function"
    },
    {
      "inputs": [],
      "name": "ownerRenounce",
      "outputs": [],
      "stateMutability": "nonpayable",
      "type": "function"
    },
    {
      "inputs": [],
      "name": "pool",
      "outputs": [
        {
          "internalType": "address",
          "name": "",
          "type": "address"
        }
      ],
      "stateMutability": "view",
      "type": "function"
    },
    {
      "inputs": [
        {
          "components": [
            {
              "internalType": "uint16[]",
              "name": "list",
              "type": "uint16[]"
            }
          ],
          "internalType": "struct FilePaletteData[]",
          "name": "data",
          "type": "tuple[]"
        },
        {
          "internalType": "uint256",
          "name": "offset",
          "type": "uint256"
        }
      ],
      "name": "setPalettes",
      "outputs": [],
      "stateMutability": "nonpayable",
      "type": "function"
    },
    {
      "inputs": [
        {
          "components": [
            {
              "internalType": "string",
              "name": "file",
              "type": "string"
            },
            {
              "internalType": "uint256",
              "name": "fileId",
              "type": "uint256"
            },
            {
              "internalType": "uint256",
              "name": "lvl",
              "type": "uint256"
            },
            {
              "components": [
                {
                  "internalType": "uint16",
                  "name": "color",
                  "type": "uint16"
                },
                {
                  "internalType": "uint16",
                  "name": "paletteIndex",
                  "type": "uint16"
                },
                {
                  "internalType": "bool",
                  "name": "usePalette",
                  "type": "bool"
                },
                {
                  "internalType": "string",
                  "name": "d",
                  "type": "string"
                }
              ],
              "internalType": "struct PathString[]",
              "name": "Data",
              "type": "tuple[]"
            }
          ],
          "internalType": "struct FilePathDataString[]",
          "name": "data",
          "type": "tuple[]"
        },
        {
          "internalType": "uint256",
          "name": "offset",
          "type": "uint256"
        }
      ],
      "name": "setPaths",
      "outputs": [],
      "stateMutability": "nonpayable",
      "type": "function"
    },
    {
      "inputs": [],
      "name": "symbol",
      "outputs": [
        {
          "internalType": "string",
          "name": "",
          "type": "string"
        }
      ],
      "stateMutability": "view",
      "type": "function"
    },
    {
      "inputs": [],
      "name": "totalSupply",
      "outputs": [
        {
          "internalType": "uint256",
          "name": "",
          "type": "uint256"
        }
      ],
      "stateMutability": "view",
      "type": "function"
    },
    {
      "inputs": [
        {
          "internalType": "address",
          "name": "to",
          "type": "address"
        },
        {
          "internalType": "uint256",
          "name": "amount",
          "type": "uint256"
        }
      ],
      "name": "transfer",
      "outputs": [
        {
          "internalType": "bool",
          "name": "",
          "type": "bool"
        }
      ],
      "stateMutability": "nonpayable",
      "type": "function"
    },
    {
      "inputs": [
        {
          "internalType": "address",
          "name": "from",
          "type": "address"
        },
        {
          "internalType": "address",
          "name": "to",
          "type": "address"
        },
        {
          "internalType": "uint256",
          "name": "amount",
          "type": "uint256"
        }
      ],
      "name": "transferFrom",
      "outputs": [
        {
          "internalType": "bool",
          "name": "",
          "type": "bool"
        }
      ],
      "stateMutability": "nonpayable",
      "type": "function"
    },
    {
      "inputs": [
        {
          "internalType": "address",
          "name": "newOwner",
          "type": "address"
        }
      ],
      "name": "transferOwnership",
      "outputs": [],
      "stateMutability": "nonpayable",
      "type": "function"
    }
  ],
  "bytecode": "0x604060a081523462002c87576200001562002c8c565b6006908181526020906546726f67676960d01b828201526200003662002c8c565b60078152662466726f67676960c81b8382015281519093906001600160401b0380821162002bd4576003916200006d835462002cac565b94601f9586811162002c55575b50869086831160011462002bea57620000ad929160009183620029cb575b50508160011b916000199060031b1c19161790565b82555b855181811162002bd457600496620000c9885462002cac565b86811162002b97575b50869086831160011462002b2c5762000104929160009183620029cb5750508160011b916000199060031b1c19161790565b86555b336080819052601380546001600160a01b031916909117905586519261260084018281118582101762002b175788526200014062002c8c565b8181526508c668a708c760d31b8782015284526200015d62002c8c565b818152651c9ca0a2a32360d11b87820152868501526200017c62002c8c565b8181526539394437464560d01b87820152888501526200019b62002c8c565b81815265212122a1a0a160d11b878201526060850152620001bb62002c8c565b8181526546464546424560d01b878201526080850152620001db62002c8c565b818152651191504d908d60d21b8782015260a0850152620001fb62002c8c565b81815265114cd08d519160d21b8782015260c08501526200021b62002c8c565b8181526537313831394160d01b8782015260e08501526200023b62002c8c565b818152650d4dcd11114d60d21b878201526101008501526200025c62002c8c565b8181526534423838453560d01b878201526101208501526200027d62002c8c565b8181526534444445453360d01b878201526101408501526200029e62002c8c565b8181526536464533344360d01b87820152610160850152620002bf62002c8c565b8181526543314542363360d01b87820152610180850152620002e062002c8c565b81815265232322a31a1960d11b878201526101a08501526200030162002c8c565b8181526523231c989a1960d11b878201526101c08501526200032262002c8c565b8181526511518d4c8d9160d21b878201526101e08501526200034362002c8c565b818152650888a6c6a88760d31b878201526102008501526200036462002c8c565b8181526503839363045360d41b878201526102208501526200038562002c8c565b81815265199c199a1a2160d11b87820152610240850152620003a662002c8c565b818152650c4d8c514d8d60d21b87820152610260850152620003c762002c8c565b818152651a1918a31ba160d11b87820152610280850152620003e862002c8c565b8181526538383230383360d01b878201526102a08501526200040962002c8c565b8181526536333136314560d01b878201526102c08501526200042a62002c8c565b818152650e108cd18c9160d21b878201526102e08501526200044b62002c8c565b8181526543443937323160d01b878201526103008501526200046c62002c8c565b81815265189b1b9c9a1960d11b878201526103208501526200048d62002c8c565b8181526530303545383560d01b87820152610340850152620004ae62002c8c565b8181526503030303030360d41b87820152610360850152620004cf62002c8c565b818152652322a32322a360d11b87820152610380850152620004f062002c8c565b8181526523231c9ba31b60d11b878201526103a08501526200051162002c8c565b8181526546463731433560d01b878201526103c08501526200053262002c8c565b8181526546413337384560d01b878201526103e08501526200055362002c8c565b8181526544423044343760d01b878201526104008501526200057462002c8c565b81815265209a181c1a9960d11b878201526104208501526200059562002c8c565b8181526544413945453160d01b87820152610440850152620005b662002c8c565b8181526546464439444360d01b87820152610460850152620005d762002c8c565b8181526523232323232360d11b87820152610480850152620005f862002c8c565b81815265229c9b9b199960d11b878201526104a08501526200061962002c8c565b8181526546464232314560d01b878201526104c08501526200063a62002c8c565b8181526523232222181960d11b878201526104e08501526200065b62002c8c565b8181526530303932383760d01b878201526105008501526200067c62002c8c565b8181526530304331363360d01b878201526105208501526200069d62002c8c565b8181526534364539313360d01b87820152610540850152620006be62002c8c565b818152651818209ba31960d11b87820152610560850152620006df62002c8c565b818152651922229ba32360d11b878201526105808501526200070062002c8c565b818152650dd05191919160d21b878201526105a08501526200072162002c8c565b8181526530303939464360d01b878201526105c08501526200074262002c8c565b818152651ba0a220a32360d11b878201526105e08501526200076362002c8c565b8181526511118ccd0d9160d21b878201526106008501526200078462002c8c565b81815265108c8c4d4cd160d21b87820152610620850152620007a562002c8c565b8181526538373034324160d01b87820152610640850152620007c662002c8c565b8181526535373030313960d01b87820152610660850152620007e762002c8c565b8181526539373942433160d01b878201526106808501526200080862002c8c565b8181526544334435453560d01b878201526106a08501526200082962002c8c565b8181526546464637463760d01b878201526106c08501526200084a62002c8c565b8181526504634364430360d41b878201526106e08501526200086b62002c8c565b8181526504337334130360d41b878201526107008501526200088c62002c8c565b8181526504137303530360d41b87820152610720850152620008ad62002c8c565b8181526503731303030360d41b87820152610740850152620008ce62002c8c565b8181526532303231333560d01b87820152610760850152620008ef62002c8c565b81815265199c199c9a2160d11b878201526107808501526200091062002c8c565b8181526534433446364560d01b878201526107a08501526200093162002c8c565b8181526546464646463760d01b878201526107c08501526200095262002c8c565b8181526546304432433760d01b878201526107e08501526200097362002c8c565b8181526510cd0e4c509160d21b878201526108008501526200099462002c8c565b818152651b231a9c9ca360d11b87820152610820850152620009b562002c8c565b8181526535383639434560d01b87820152610840850152620009d662002c8c565b8181526532373343423760d01b87820152610860850152620009f762002c8c565b8181526532323136393160d01b8782015261088085015262000a1862002c8c565b8181526531353038363160d01b878201526108a085015262000a3962002c8c565b8181526537364444343160d01b878201526108c085015262000a5a62002c8c565b8181526506060828a6a760d31b878201526108e085015262000a7b62002c8c565b8181526530303734364160d01b8782015261090085015262000a9c62002c8c565b8181526518181a229b9b60d11b8782015261092085015262000abd62002c8c565b8181526506a646a6a6e760d31b8782015261094085015262000ade62002c8c565b818152650e514dcc118d60d21b8782015261096085015262000aff62002c8c565b8181526536463438464160d01b8782015261098085015262000b2062002c8c565b818152650d0d0c4d914d60d21b878201526109a085015262000b4162002c8c565b8181526532443135383160d01b878201526109c085015262000b6262002c8c565b8181526546464638393360d01b878201526109e085015262000b8362002c8c565b8181526546414537333760d01b87820152610a0085015262000ba462002c8c565b818152651111108d0c1160d21b87820152610a2085015262000bc562002c8c565b8181526543323736304560d01b87820152610a4085015262000be662002c8c565b8181526504646373141360d41b87820152610a6085015262000c0762002c8c565b81815265119190518cd160d21b87820152610a8085015262000c2862002c8c565b818152651b999ca2a32360d11b87820152610aa085015262000c4962002c8c565b8181526541334646373360d01b87820152610ac085015262000c6a62002c8c565b8181526537433746413560d01b87820152610ae085015262000c8b62002c8c565b81815265221a9ca0a32360d11b87820152610b0085015262000cac62002c8c565b8181526546464643434160d01b87820152610b2085015262000ccd62002c8c565b8181526530344646464360d01b87820152610b4085015262000cee62002c8c565b818152650c0c10cd90cd60d21b87820152610b6085015262000d0f62002c8c565b8181526530304137413560d01b87820152610b8085015262000d3062002c8c565b8181526518181c1a1c1960d11b87820152610ba085015262000d5162002c8c565b8181526530303446344560d01b87820152610bc085015262000d7262002c8c565b8181526504636464630360d41b87820152610be085015262000d9362002c8c565b8181526504344443430360d41b87820152610c0085015262000db462002c8c565b8181526503834383830360d41b87820152610c2085015262000dd562002c8c565b8181526503434343630360d41b87820152610c4085015262000df662002c8c565b81815265232219a1a32360d11b87820152610c6085015262000e1762002c8c565b81815265118c4c0c118d60d21b87820152610c8085015262000e3862002c8c565b8181526510cc8c0c10cd60d21b87820152610ca085015262000e5962002c8c565b818152651c1a18181c1b60d11b87820152610cc085015262000e7a62002c8c565b8181526535423030354360d01b87820152610ce085015262000e9b62002c8c565b8181526511918d91515160d21b87820152610d0085015262000ebc62002c8c565b8181526543373039334560d01b87820152610d2085015262000edd62002c8c565b8181526508c728c848c760d31b87820152610d4085015262000efe62002c8c565b81815265229ca2a1199b60d11b87820152610d6085015262000f1f62002c8c565b81815265181821991b2360d11b87820152610d8085015262000f4062002c8c565b8181526530303741423960d01b87820152610da085015262000f6162002c8c565b818152651b9c9a99a32360d11b87820152610dc085015262000f8262002c8c565b81815265209ba320a32360d11b87820152610de085015262000fa362002c8c565b818152651922211aa32360d11b87820152610e0085015262000fc462002c8c565b8181526518981ba2a29960d11b87820152610e2085015262000fe562002c8c565b8181526518181921a0a160d11b87820152610e408501526200100662002c8c565b818152651a1aa119232360d11b87820152610e608501526200102762002c8c565b8181526518a11b98232360d11b87820152610e808501526200104862002c8c565b8181526532393431443160d01b87820152610ea08501526200106962002c8c565b8181526534313030414560d01b87820152610ec08501526200108a62002c8c565b8181526503531303036360d41b87820152610ee0850152620010ab62002c8c565b818152652323221a192360d11b87820152610f00850152620010cc62002c8c565b8181526546464135323560d01b87820152610f20850152620010ed62002c8c565b8181526546463733303560d01b87820152610f408501526200110e62002c8c565b8181526504545324130360d41b87820152610f608501526200112f62002c8c565b8181526503936313630360d41b87820152610f808501526200115062002c8c565b8181526537303738423160d01b87820152610fa08501526200117162002c8c565b8181526531313132323160d01b87820152610fc08501526200119262002c8c565b8181526504239463330360d41b87820152610fe0850152620011b362002c8c565b818152651aa19921232160d11b87820152611000850152620011d462002c8c565b81815265104c51918e0d60d21b87820152611020850152620011f562002c8c565b8181526535464442394560d01b878201526110408501526200121662002c8c565b8181526519a2a09b9ca360d11b878201526110608501526200123762002c8c565b8181526518181b19a09b60d11b878201526110808501526200125862002c8c565b8181526503843393243360d41b878201526110a08501526200127962002c8c565b818152650cd14d0d8e0d60d21b878201526110c08501526200129a62002c8c565b8181526508c608c628c760d31b878201526110e0850152620012bb62002c8c565b81815265219aa19ca29b60d11b87820152611100850152620012dc62002c8c565b8181526533333335353360d01b87820152611120850152620012fd62002c8c565b81815265211c20a3209960d11b878201526111408501526200131e62002c8c565b818152651111911150d160d21b878201526111608501526200133f62002c8c565b8181526533443346353960d01b878201526111808501526200136062002c8c565b8181526535303533373560d01b878201526111a08501526200138162002c8c565b8181526536383644393960d01b878201526111c0850152620013a262002c8c565b8181526532343235334160d01b878201526111e0850152620013c362002c8c565b8181526541373238304360d01b87820152611200850152620013e462002c8c565b8181526546464637433160d01b878201526112208501526200140562002c8c565b8181526541304134444160d01b878201526112408501526200142662002c8c565b81815265221b221ca2a360d11b878201526112608501526200144762002c8c565b818152651a181a191b1b60d11b878201526112808501526200146862002c8c565b8181526518a31918199b60d11b878201526112a08501526200148962002c8c565b818152651b189b1b1c2360d11b878201526112c0850152620014aa62002c8c565b8181526535443633393160d01b878201526112e0850152620014cb62002c8c565b8181526503333333535360d41b87820152611300850152620014ec62002c8c565b8181526541363036324560d01b878201526113208501526200150d62002c8c565b8181526536353136324160d01b878201526113408501526200152e62002c8c565b818152650dd08c0c0c8d60d21b878201526113608501526200154f62002c8c565b818152651a22981a98a160d11b878201526113808501526200157062002c8c565b8181526533393232323960d01b878201526113a08501526200159162002c8c565b8181526506472626062760d31b878201526113c0850152620015b262002c8c565b8181526538433238343560d01b878201526113e0850152620015d362002c8c565b8181526544313232353360d01b87820152611400850152620015f462002c8c565b8181526535453244334360d01b878201526114208501526200161562002c8c565b8181526533353336344560d01b878201526114408501526200163662002c8c565b8181526503139314133360d41b878201526114608501526200165762002c8c565b8181526538383844423560d01b878201526114808501526200167862002c8c565b8181526536303636393360d01b878201526114a08501526200169962002c8c565b8181526534383442373360d01b878201526114c0850152620016ba62002c8c565b8181526533453832344360d01b878201526114e0850152620016db62002c8c565b8181526541454132383160d01b87820152611500850152620016fc62002c8c565b818152651c221c189a9b60d11b878201526115208501526200171d62002c8c565b8181526534393435333360d01b878201526115408501526200173e62002c8c565b8181526533363334313560d01b878201526115608501526200175f62002c8c565b81815265064866a6668760d31b878201526115808501526200178062002c8c565b8181526522222299a0a160d11b878201526115a0850152620017a162002c8c565b818152651b209b191a1960d11b878201526115c0850152620017c262002c8c565b8181526539414237354160d01b878201526115e0850152620017e362002c8c565b81815265181b1a22209b60d11b878201526116008501526200180462002c8c565b8181526531383332353760d01b878201526116208501526200182562002c8c565b818152651818191a1ba160d11b878201526116408501526200184662002c8c565b81815265181b989b9a1b60d11b878201526116608501526200186762002c8c565b818152651918191a199960d11b878201526116808501526200188862002c8c565b8181526531303134323760d01b878201526116a0850152620018a962002c8c565b8181526532393430373960d01b878201526116c0850152620018ca62002c8c565b8181526532323546443160d01b878201526116e0850152620018eb62002c8c565b81815265192119999a9960d11b878201526117008501526200190c62002c8c565b818152650666a666c68760d31b878201526117208501526200192d62002c8c565b8181526518a298a3199960d11b878201526117408501526200194e62002c8c565b8181526534463532373560d01b878201526117608501526200196f62002c8c565b8181526535373535373760d01b878201526117808501526200199062002c8c565b8181526532313231333560d01b878201526117a0850152620019b162002c8c565b8181526533443343353560d01b878201526117c0850152620019d262002c8c565b818152652219219a1ca160d11b878201526117e0850152620019f362002c8c565b8181526536413636363160d01b8782015261180085015262001a1462002c8c565b8181526538443732364560d01b8782015261182085015262001a3562002c8c565b8181526519a2199b99a160d11b8782015261184085015262001a5662002c8c565b8181526519229922999b60d11b8782015261186085015262001a7762002c8c565b8181526518a198a2191b60d11b8782015261188085015262001a9862002c8c565b8181526539333935394360d01b878201526118a085015262001ab962002c8c565b81815265118d518d910d60d21b878201526118c085015262001ada62002c8c565b818152651a1b1a1c1aa160d11b878201526118e085015262001afb62002c8c565b8181526530303834363560d01b8782015261190085015262001b1c62002c8c565b818152650cd14d0c8d8d60d21b8782015261192085015262001b3d62002c8c565b8181526503546363137360d41b8782015261194085015262001b5e62002c8c565b8181526536333638393160d01b8782015261196085015262001b7f62002c8c565b8181526518181ba19c9b60d11b8782015261198085015262001ba062002c8c565b81815265181819a19a1960d11b878201526119a085015262001bc162002c8c565b81815265119151918e4d60d21b878201526119c085015262001be262002c8c565b8181526538443946433160d01b878201526119e085015262001c0362002c8c565b8181526521a2221a229960d11b87820152611a0085015262001c2462002c8c565b818152651a9a1b1b9c2360d11b87820152611a2085015262001c4562002c8c565b8181526518a31918999b60d11b87820152611a4085015262001c6662002c8c565b818152651999999a9a9960d11b87820152611a6085015262001c8762002c8c565b8181526530304331314160d01b87820152611a8085015262001ca862002c8c565b8181526541314646344360d01b87820152611aa085015262001cc962002c8c565b8181526519a299a29a9b60d11b87820152611ac085015262001cea62002c8c565b818152651a989a231b9960d11b87820152611ae085015262001d0b62002c8c565b81815265114c9191908d60d21b87820152611b0085015262001d2c62002c8c565b8181526503238453430360d41b87820152611b2085015262001d4d62002c8c565b818152651b9a9b991ca360d11b87820152611b4085015262001d6e62002c8c565b81815265192119211a1b60d11b87820152611b6085015262001d8f62002c8c565b8181526532463246343160d01b87820152611b8085015262001db062002c8c565b8181526518181ca09c9960d11b87820152611ba085015262001dd162002c8c565b8181526503633364141360d41b87820152611bc085015262001df262002c8c565b8181526523231b1b221960d11b87820152611be085015262001e1362002c8c565b8181526522a122a1a31b60d11b87820152611c0085015262001e3462002c8c565b8181526510d090d1514d60d21b87820152611c2085015262001e5562002c8c565b8181526521a19a1c19a360d11b87820152611c4085015262001e7662002c8c565b8181526546373944323560d01b87820152611c6085015262001e9762002c8c565b8181526546464345304360d01b87820152611c8085015262001eb862002c8c565b818152651b1aa318a32360d11b87820152611ca085015262001ed962002c8c565b81815265086848c8c8c760d31b87820152611cc085015262001efa62002c8c565b818152651999a1a3232360d11b87820152611ce085015262001f1b62002c8c565b8181526546463937443960d01b87820152611d0085015262001f3c62002c8c565b8181526546464439464360d01b87820152611d2085015262001f5d62002c8c565b8181526523231ba1a22160d11b87820152611d4085015262001f7e62002c8c565b8181526511919091519160d21b87820152611d6085015262001f9f62002c8c565b8181526544353035383560d01b87820152611d8085015262001fc062002c8c565b818152651a989c22231960d11b87820152611da085015262001fe162002c8c565b818152651ca0a21aa32360d11b87820152611dc08501526200200262002c8c565b818152651c991b191a1960d11b87820152611de08501526200202362002c8c565b8181526504330383736360d41b87820152611e008501526200204462002c8c565b8181526536383332323960d01b87820152611e208501526200206562002c8c565b81815265114c504e0dcd60d21b87820152611e408501526200208662002c8c565b8181526503641364338360d41b87820152611e60850152620020a762002c8c565b8181526530413346354560d01b87820152611e80850152620020c862002c8c565b818152650706c6c6886760d31b87820152611ea0850152620020e962002c8c565b81815265191c1921211960d11b87820152611ec08501526200210a62002c8c565b818152650c910d51111160d21b87820152611ee08501526200212b62002c8c565b8181526539363738373360d01b87820152611f008501526200214c62002c8c565b8181526544353333363160d01b87820152611f208501526200216d62002c8c565b8181526520a0989b19a160d11b87820152611f408501526200218e62002c8c565b8181526519a29c22232360d11b87820152611f60850152620021af62002c8c565b818152652220a22222a360d11b87820152611f80850152620021d062002c8c565b81815265211a211c222160d11b87820152611fa0850152620021f162002c8c565b8181526503841413043360d41b87820152611fc08501526200221262002c8c565b818152651a181a209b1b60d11b87820152611fe08501526200223362002c8c565b8181526503645374441360d41b878201526120008501526200225462002c8c565b818152651b9a9818191960d11b878201526120208501526200227562002c8c565b8181526541383131333760d01b878201526120408501526200229662002c8c565b8181526522a29c9ba12160d11b87820152612060850152620022b762002c8c565b8181526543363736394160d01b87820152612080850152620022d862002c8c565b818152651c999a981ba160d11b878201526120a0850152620022f962002c8c565b8181526510cd90d04d8d60d21b878201526120c08501526200231a62002c8c565b8181526504636464143360d41b878201526120e08501526200233b62002c8c565b818152651191918c0e1160d21b878201526121008501526200235c62002c8c565b8181526546463846333760d01b878201526121208501526200237d62002c8c565b8181526546464245343160d01b878201526121408501526200239e62002c8c565b8181526504435353034360d41b87820152612160850152620023bf62002c8c565b8181526531363137323560d01b87820152612180850152620023e062002c8c565b8181526532393241334560d01b878201526121a08501526200240162002c8c565b8181526521a0a1991ba160d11b878201526121c08501526200242262002c8c565b818152652318a3189c9b60d11b878201526121e08501526200244362002c8c565b8181526539313830353560d01b878201526122008501526200246462002c8c565b81815265221b1b98182360d11b878201526122208501526200248562002c8c565b8181526508c64848866760d31b87820152612240850152620024a662002c8c565b8181526546454536383760d01b87820152612260850152620024c762002c8c565b818152651c9c9922189b60d11b87820152612280850152620024e862002c8c565b8181526542453446343760d01b878201526122a08501526200250962002c8c565b8181526536343139324160d01b878201526122c08501526200252a62002c8c565b81815265110e0dcdccd160d21b878201526122e08501526200254b62002c8c565b8181526536463030323160d01b878201526123008501526200256c62002c8c565b8181526545454636383760d01b878201526123208501526200258d62002c8c565b8181526539333836334360d01b87820152612340850152620025ae62002c8c565b8181526520a1a29aa32360d11b87820152612360850152620025cf62002c8c565b81815265229b22a2a32360d11b87820152612380850152620025f062002c8c565b81815265199c2122a32360d11b878201526123a08501526200261162002c8c565b818152651b9ca21b232360d11b878201526123c08501526200263262002c8c565b8181526518181c23222160d11b878201526123e08501526200265362002c8c565b8181526530303630423560d01b878201526124008501526200267462002c8c565b8181526535383136313160d01b878201526124208501526200269562002c8c565b8181526537423241324160d01b87820152612440850152620026b662002c8c565b818152650c914c10cc4d60d21b87820152612460850152620026d762002c8c565b8181526520989a21199960d11b87820152612480850152620026f862002c8c565b8181526546444145443160d01b878201526124a08501526200271962002c8c565b8181526508c8c8a6c8a760d31b878201526124c08501526200273a62002c8c565b8181526545353532393160d01b878201526124e08501526200275b62002c8c565b81815265231a9c19a11b60d11b878201526125008501526200277c62002c8c565b8181526520a099989b1960d11b878201526125208501526200279d62002c8c565b8181526537373030344360d01b87820152612540850152620027be62002c8c565b8181526503641373041360d41b87820152612560850152620027df62002c8c565b818152651ca3209a21a160d11b878201526125808501526200280062002c8c565b8181526537453735363960d01b878201526125a08501526200282162002c8c565b818152651c231c231c2360d11b878201526125c08501526200284262002c8c565b9081526504330433043360d41b868201526125e084015260165492610130938460165580851062002a9b575b509190601660005285600020916000935b8585106200295d57505050505050600160175533156200291e57506002546702ea11e32ad50000928382018092116200290957506000917fddf252ad1be2c89b69c2b068fc378daa952ba7f163c4a11628f55a4df523b3ef9160025533835282815284832084815401905584519384523393a351615201908162002d0382396080518161212d0152f35b601190634e487b7160e01b6000525260246000fd5b90606493519262461bcd60e51b845283015260248201527f45524332303a206d696e7420746f20746865207a65726f2061646472657373006044820152fd5b805180519084821162002a8657908992916200297a875462002cac565b8a811162002a49575b5083908a8311600114620029d7578260019593869593620029bb93600092620029cb5750508160011b916000199060031b1c19161790565b87555b019401940193926200287f565b01519050388062000098565b90601f9493941983169188600052846000209260005b81811062002a30575091600196939185889796941062002a17575b505050831b83018755620029be565b015160001983891b60f8161c1916905538808062002a08565b8284015185558e966001909501949384019301620029ed565b62002a7590886000528560002060058d808701821c83019389881062002a7c575b01901c019062002ce9565b3862002983565b9350829362002a6a565b60418b634e487b7160e01b6000525260246000fd5b6016600052848760002091820191015b81811062002aba57506200286e565b8062002ac96001925462002cac565b8062002ad8575b500162002aab565b888111831462002aef5750600081555b3862002ad0565b60009082825262002b0d8a8c8420920160051c820185830162002ce9565b8183555562002ae8565b604188634e487b7160e01b6000525260246000fd5b90601f1983169189600052886000209260005b8a82821062002b8057505090846001959493921062002b67575b505050811b01865562000107565b015160001983871b60f8161c1916905538808062002b59565b600185968293968601518155019501930162002b3f565b62002bc39089600052886000208880860160051c8201928b871062002bca575b0160051c019062002ce9565b38620000d2565b9250819262002bb7565b634e487b7160e01b600052604160045260246000fd5b90601f1983169185600052886000209260005b8a82821062002c3e57505090846001959493921062002c25575b505050811b018255620000b0565b015160001983871b60f8161c1916905538808062002c17565b600185968293968601518155019501930162002bfd565b62002c809085600052886000208880860160051c8201928b871062002bca570160051c019062002ce9565b386200007a565b600080fd5b60408051919082016001600160401b0381118382101762002bd457604052565b90600182811c9216801562002cde575b602083101462002cc857565b634e487b7160e01b600052602260045260246000fd5b91607f169162002cbc565b81811062002cf5575050565b6000815560010162002ce956fe60808060405260048036101561001457600080fd5b60003560e01c91826306fdde031461235557508163095ea7b31461232f57816315fcd330146121bd57816316f0115b1461219657816318160ddd14612178578163214013ca1461210d57816323b872dd1461204c5781632bd1a01114611ff6578163313ce56714611fda578163333a007214611f7e57816335ad0cea14611e7c5781633950935114611e2a578163422b9e2314611d435781634814764e14611c3c578163524773ce14611bf45781636b4ed21b14611bd657816370a0823114611b9c57816370db69d614611b795781638da5cb5b14611b5257816395d89b4114611a6c57816395e4b21b14611a3257816399f65c8f14611a145781639f5a1466146116ca578163a457c2d71461160c578163a9059cbb146115db578163bde7cb8214611334578163c3f4552a14610972578163c5b8f77214610925578163c7218d5b14610895578163cb8106f414610852578163dd62ed3e14610800578163e0d97502146107e2578163f2fde38b1461079a578163f3726e4414610691578163f89212e3146101ec575063fb700e5b146101ad57600080fd5b346101e75760203660031901126101e7576001600160a01b036101ce612469565b1660005260086020526020604060002054604051908152f35b600080fd5b346101e75760403660031901126101e757610205612a2e565b506040516060810181811067ffffffffffffffff82111761067c576040528135815260006020820152602435604082015261023e612a2e565b610247826144ac565b815261025282614853565b50606081019160008352601861026782614853565b069060808301918252825180156000146103765750610280945061029d81610290603e93614853565b5060006020860152614853565b0660408301525b6040519282518452602083015160208501526040830151604085015251606084015251608083015260a081015160a083015260c081015160c083015260e081015160e08301526101008082015190830152610120808201519083015261014080820151908301526101608082015115159083015261018080820151908301526101a080820151908301526101c0808201511515908301526101e0808201519083015261020080820151908301526102208082015115159083015261024080820151908301526102608091015190820152f35b600214610632575b60038351146105d0575b82518581146105b3575b6005809114610546575b60066103a783614853565b0660a08501908152603e6103ba84614853565b0660c086019081529051600090600281116104ff5750506102809650816103e084614853565b065b60e0860152516101008501526103f782614853565b06610120840152600761040982614853565b066101408401526101c0830180516104d6575b610160840180516104ad575b511590816104a3575b5080610495575b156104665761045a81601b61044e600794614853565b06610240860152614853565b166102608301526102a4565b610220830151610477575b506102a4565b61048881601861044e600794614853565b1661026083015284610471565b506102208301511515610438565b9050511586610431565b601b6104b884614853565b0661018086015260076104ca84614853565b166101a0860152610428565b60166104e183614853565b066101e085015260076104f383614853565b1661020085015261041c565b831015610511575b61028097506103e2565b508161051c84614853565b06828101809111610531576102809750610507565b601188634e487b7160e01b6000525260246000fd5b6001808061055385614853565b16036105ac57805b1515610160860152808061056e85614853565b16036105a557805b15156101c0860152808061058985614853565b160361059d575b151561022085015261039c565b506000610590565b6000610576565b600061055b565b600161016085015260016101c08501526001610220850152610392565b60036105db82614853565b06806105f8575060016101c084015260016101608401525b610388565b60018103610616575060016101608401526001610220840152610388565b6002036105f35760016101c08401526001610220840152610388565b600361063d82614853565b0680610652575060016101c08401525b61037e565b600181036106685750600161016084015261037e565b60020361064d57600161022084015261037e565b604183634e487b7160e01b6000525260246000fd5b346101e75761069f3661253e565b906106b66001600160a01b0360135416331461266e565b6000905b8082106106c357005b6106cd82846126d1565b600052601560205260406000209260005b6106f26106ec8585896129e9565b80612916565b905081101561078c576107096106ec8585896129e9565b8210156107775761071e908260051b01612968565b855468010000000000000000811015610762579061074482600180959401895588612a0b565b61ffff9291928084549260031b9316831b921b1916179055016106de565b604189634e487b7160e01b6000525260246000fd5b603288634e487b7160e01b6000525260246000fd5b5092506001909101906106ba565b346101e75760203660031901126101e7576107b3612469565b6001600160a01b0319601354916001600160a01b03906107d6338386161461266e565b16911617601355600080f35b346101e75760003660031901126101e7576020601154604051908152f35b346101e75760403660031901126101e757610819612469565b61082161247f565b906001600160a01b038091166000526001602052604060002091166000526020526020604060002054604051908152f35b346101e75760203660031901126101e75761088460209135600052600d6020526001600160a01b036040600020541690565b6001600160a01b0360405191168152f35b346101e75760403660031901126101e7576001600160a01b036108b6612469565b600060206040516108c6816124c8565b8281520152166000526009602052604060002060243560005260205261092160406000206001604051916108f9836124c8565b8054835201546020820152604051918291829190916020806040830194805184520151910152565b0390f35b346101e75760403660031901126101e7576001600160a01b03610946612469565b16600052600b6020526040600020602435600052602052602060ff604060002054166040519015158152f35b346101e75760403660031901126101e7576109b4906040519063f89212e360e01b82528180610280948593820190604082019160043581526020602435910152565b0381305afa918215611328576000926112fb575b50506109d48151614445565b610a27602860405180937f226c6576656c223a0000000000000000000000000000000000000000000000006020830152610a178151809260208686019101612421565b8101036008810184520182612500565b610a346060830151614445565b91610adf6047610a476080840151614445565b946040519586917f2c226261636b67726f756e64223a2200000000000000000000000000000000006020840152610a88815180926020602f87019101612421565b82017f222c226261636b67726f756e6450616c65747465223a22000000000000000000602f820152610ac4825180936020604685019101612421565b601160f91b6046838301015201036027810186520184612500565b610aec60a0820151614445565b90610b956039610aff60c0840151614445565b936040519485917f2c22626f6479223a2200000000000000000000000000000000000000000000006020840152610b40815180926020602987019101612421565b82017f222c22626f6479436f6c6f72223a2200000000000000000000000000000000006029820152610b7c825180936020603885019101612421565b01601160f91b6038820152036019810185520183612500565b610ba260e0820151614445565b90610c4c6047610bb6610100840151614445565b936040519485917f2c2265787072657373696f6e223a2200000000000000000000000000000000006020840152610bf7815180926020602f87019101612421565b82017f222c2265787072657373696f6e50616c65747465223a22000000000000000000602f820152610c33825180936020604685019101612421565b01601160f91b6046820152036027810185520183612500565b610c5a610120820151614445565b610d03603b610c6d610140850151614445565b926040519384917f2c2265796573223a2200000000000000000000000000000000000000000000006020840152610cae815180926020602987019101612421565b82017f222c226579657350616c65747465223a220000000000000000000000000000006029820152610cea825180936020603a85019101612421565b01601160f91b603a82015203601b810184520182612500565b610d11610180830151614445565b610e0a6046610d246101a0860151614445565b610160860151909390156112ee57610d3a6129b0565b6040519485927f2c22686174223a220000000000000000000000000000000000000000000000006020850152610d7a815180926020602888019101612421565b83017f222c2268617450616c65747465223a22000000000000000000000000000000006028820152610db6825180936020603885019101612421565b017f222c22686174426f6f6c223a22000000000000000000000000000000000000006038820152610df1825180936020604585019101612421565b01601160f91b6045820152036026810184520182612500565b610e186101e0840151614445565b91610f126052610e2c610200870151614445565b6101c0870151909590156112e157610e426129b0565b6040519687927f2c2265796577656172223a2200000000000000000000000000000000000000006020850152610e82815180926020602c88019101612421565b83017f222c226579657765617250616c65747465223a22000000000000000000000000602c820152610ebe825180936020604085019101612421565b017f222c2265796577656172426f6f6c223a220000000000000000000000000000006040820152610ef9825180936020605185019101612421565b01601160f91b6051820152036032810186520184612500565b610f20610240850151614445565b610220610f31610260870151614445565b950151156112d457610f416129b0565b604051958692602084017f2c22636c6f74686573223a220000000000000000000000000000000000000000905280519081602c86019160200191610f8492612421565b8301602c81017f222c22636c6f7468657350616c65747465223a22000000000000000000000000905281519182604083019160200191610fc392612421565b01604081017f222c22636c6f74686573426f6f6c223a2200000000000000000000000000000090528151918260518301916020019161100192612421565b0160518101601160f91b9052036032810185526052016110219085612500565b6040519461102e866124c8565b60138652602086017f68747470733a2f2f66726f6767692e6172742f0000000000000000000000000090526040518096602082017f2c22776562223a2200000000000000000000000000000000000000000000000090528051908160288401916020019161109b92612421565b8101602881017f222c000000000000000000000000000000000000000000000000000000000000905203600a81018752602a016110d89087612500565b604051966110e5886124c8565b60108852602088017f46726f6767692c202466726f6767692e0000000000000000000000000000000090526040518098602082017f226465736372697074696f6e223a220000000000000000000000000000000000905280519081602f8401916020019161115292612421565b8101602f8101601160f91b9052036010810189526030016111739089612500565b604051998a9960208b017f7b0000000000000000000000000000000000000000000000000000000000000090528051908160218d0191602001916111b692612421565b8a01815191826021830191602001916111ce92612421565b01815191826021830191602001916111e592612421565b01815191826021830191602001916111fc92612421565b018151918260218301916020019161121392612421565b018151918260218301916020019161122a92612421565b018151918260218301916020019161124192612421565b018151918260218301916020019161125892612421565b018151918260218301916020019161126f92612421565b0160210180825160208194019161128592612421565b017f7d00000000000000000000000000000000000000000000000000000000000000815203601e19810182526001016112be9082612500565b6040518091602082526020820161092191612444565b6112dc612977565b610f41565b6112e9612977565b610e42565b6112f6612977565b610d3a565b61131a9250803d10611321575b6113128183612500565b810190612701565b81806109c8565b503d611308565b6040513d6000823e3d90fd5b346101e7576113423661253e565b9261135c6001600160a01b0360139493945416331461266e565b6000905b83821061136957005b6020916113838361137b8388886128de565b0135876126d1565b600052601483526040600020956000905b61139f8388886128de565b916113af60609384810190612916565b90508110156115cd576113d9816113d36113ca878c8c6128de565b86810190612916565b906128de565b92895493680100000000000000008510156115b8576113ff6001958681018d558c61294c565b6115a45761ffff61140f83612968565b169080548261ffff19821617825563ffff000061142d8c8601612968565b60101b16808463ffffffff198416171783556040850135938415158095036101e75764ff000000008a958e1b169264ffffffffff19161717178155019181013590601e19813603018212156101e7570180359067ffffffffffffffff82116101e757813603898201136101e75788906114a6845461258f565b90601f91828111611560575b5060009184116001146114f7579683928392600198996000956114ea575b5050501b916000199060031b1c19161790555b0190611394565b01013592508a8f806114d0565b60008581528b8120601f19861699959450928c915b8a81106115495750846001999a1061152d575b50505050811b0190556114e3565b60001960f88660031b161c19920101351690558c808a8161151f565b83820183013585559386019390820190820161150c565b856000528884600020600585808901821c830194888a1061159b575b01901c01915b8281106115905750506114b2565b600081558101611582565b9450829461157c565b600088634e487b7160e01b82525260246000fd5b604187634e487b7160e01b6000525260246000fd5b509650506001019150611360565b346101e75760403660031901126101e7576116016115f7612469565b6024359033614049565b602060405160018152f35b346101e75760403660031901126101e757611625612469565b60243533600052600160205260406000206001600160a01b038316600052602052604060002054818110611660576116019350039033612ac0565b60848460206040519162461bcd60e51b8352820152602560248201527f45524332303a2064656372656173656420616c6c6f77616e63652062656c6f7760448201527f207a65726f0000000000000000000000000000000000000000000000000000006064820152fd5b346101e757602090816003193601126101e757356000526015815260406000206040518081848085549384815201809560005281600020936000905b80600f83011061194a576117a395549184828210611936575b82821061191f575b828210611909575b8282106118f2575b8282106118db575b8282106118c4575b8282106118ad575b828210611896575b82821061187f575b828210611868575b828210611851575b82821061183a575b828210611823575b82821061180c575b8282106117f5575b50106117e7575b5090509392930383612500565b604051928392818401908285525180915260408401929160005b8281106117cc57505050500390f35b835161ffff16855286955093810193928101926001016117bd565b60f01c815201859087611796565b6001919461ffff8560e01c1681520193018461178f565b6001919461ffff8560d01c16815201930184611787565b6001919461ffff8560c01c1681520193018461177f565b6001919461ffff8560b01c16815201930184611777565b6001919461ffff8560a01c1681520193018461176f565b6001919461ffff8560901c16815201930184611767565b6001919461ffff8560801c1681520193018461175f565b6001919461ffff8560701c16815201930184611757565b6001919461ffff8560601c1681520193018461174f565b6001919461ffff8560501c16815201930184611747565b6001919461ffff8560401c1681520193018461173f565b6001919461ffff8560301c16815201930184611737565b6001919461ffff85831c1681520193018461172f565b6001919461ffff8560101c16815201930184611727565b6001919461ffff851681520193018461171f565b925092506001610200601092865461ffff80821683528082871c168c84015280828d1c16604084015280826060828260301c168187015282826080828260401c16818a0152828260a092828260501c16848d0152828260c0981c16878d0152828260701c1660e08d01521c166101008a0152828260901c166101208a01521c16610140870152828260b01c166101608701521c16610180840152808260d01c166101a08401528160e01c166101c083015260f01c6101e08201520194019201928492938792611706565b346101e75760003660031901126101e7576020600f54604051908152f35b346101e75760203660031901126101e7576001600160a01b03611a53612469565b16600052600e6020526020604060002054604051908152f35b346101e75760003660031901126101e75760405190600082825491611a908361258f565b9283835260209460019186600182169182600014611b30575050600114611ad4575b5050611ac092500383612500565b610921604051928284938452830190612444565b8592506000527f8a35acfbc15ff81a39ae7d344fd709f28e8600b4aa8c65c6b64bfe7fe36bd19b906000915b858310611b18575050611ac093508201018580611ab2565b80548389018501528794508693909201918101611b00565b9250935050611ac094915060ff191682840152151560051b8201018580611ab2565b346101e75760003660031901126101e75760206001600160a01b0360135416604051908152f35b346101e75760003660031901126101e7576020611b94612860565b604051908152f35b346101e75760203660031901126101e7576001600160a01b03611bbd612469565b1660005260006020526020604060002054604051908152f35b346101e75760003660031901126101e7576020601054604051908152f35b346101e75760003660031901126101e757600254906702ea11e32ad50000918203918211611c2757602082604051908152f35b601190634e487b7160e01b6000525260246000fd5b346101e757602090816003193601126101e7573560005260148152604060002090815491611c69836126b9565b92611c776040519485612500565b8084528284018092600052836000206000915b838310611d205750505050604051918083019381845251809452604083019360408160051b85010192916000955b828710611cc55785850386f35b909192938280611d10600193603f198a820301865288519060809061ffff80845116825285840151168582015260408301511515604082015281606080940151938201520190612444565b9601920196019592919092611cb8565b600286600192611d32859a999a612800565b815201920192019190959495611c8a565b346101e75760403660031901126101e757611dd9611d618235614445565b611d6c602435614445565b92611dac604051928360209682611d8c8994518092868087019101612421565b8201611da082518093868085019101612421565b01038085520183612500565b6040519063f89212e360e01b82528180610280958693820190604082019160043581526020602435910152565b0381305afa90811561132857611df893600092611e0d575b5050612bf4565b90610921604051928284938452830190612444565b611e239250803d10611321576113128183612500565b8480611df1565b346101e75760403660031901126101e757611601611e46612469565b33600052600160205260406000206001600160a01b038216600052602052611e756024356040600020546126d1565b9033612ac0565b346101e75760403660031901126101e75780359060249060243590611ea0826126b9565b91611eae6040519384612500565b808352611eba816126b9565b6020958487019591601f190136873760005b838110611f1f57878688604051928392818401908285525180915260408401929160005b828110611eff57505050500390f35b83516001600160a01b031685528695509381019392810192600101611ef0565b611f46611f2c82846126d1565b600052600d6020526001600160a01b036040600020541690565b8651821015611f6a576001600160a01b0316600582901b8701890152600101611ecc565b83603287634e487b7160e01b600052526000fd5b346101e75760003660031901126101e7576001600160a01b0319601354611faf336001600160a01b0383161461266e565b166013557f6e4ee811a17215345b89e3506064ff2d62f4feedff3566e9d09219cda7e8cadb600080a1005b346101e75760003660031901126101e757602060405160098152f35b346101e75760203660031901126101e7576001600160a01b03612017612469565b60006020604051612027816124c8565b828152015216600052600c60205261092160406000206001604051916108f9836124c8565b346101e75760603660031901126101e757612065612469565b61206d61247f565b604435916001600160a01b03811660005260016020526040600020336000526020526040600020549360001985036120ab575b506116019350614049565b8385106120c957506120c38361160195033383612ac0565b846120a0565b60649060206040519162461bcd60e51b8352820152601d60248201527f45524332303a20696e73756666696369656e7420616c6c6f77616e63650000006044820152fd5b60203660031901126101e757612121612469565b6001600160a01b0390817f00000000000000000000000000000000000000000000000000000000000000001633036101e757600554918083166101e7576001600160a01b0319911691161760055542600655600080f35b346101e75760003660031901126101e7576020600254604051908152f35b346101e75760003660031901126101e75760206001600160a01b0360055416604051908152f35b346101e75736600319016102a081126101e757610280136101e7576102843567ffffffffffffffff81116101e757366023820112156101e7578082013561220381612522565b916122116040519384612500565b81835236602483830101116101e7578160009260246020930183860137830101526040519161223f83612495565b358252602435602083015260443560408301526064356060830152608435608083015260a43560a083015260c43560c083015260e43560e08301526101043561010083015261012435610120830152610144356101408301526101643580151581036101e757610160830152610184356101808301526101a4356101a08301526101c43580151581036101e7576101c08301526101e4356101e083015261020435610200830152610224359081151582036101e7578261231b926102206109219501526102443561024082015261026435610260820152612bf4565b604051918291602083526020830190612444565b346101e75760403660031901126101e75761160161234b612469565b6024359033612ac0565b346101e75760003660031901126101e7576003546000826123758361258f565b91828252602093600190856001821691826000146124015750506001146123a4575b50611ac092500383612500565b84915060036000527fc2575a0e9e593c00f959f8c92f12db2869c3395a3b0502d05e2516446f71f85b906000915b8583106123e9575050611ac0935082010185612397565b805483890185015287945086939092019181016123d2565b60ff191685820152611ac095151560051b85010192508791506123979050565b60005b8381106124345750506000910152565b8181015183820152602001612424565b9060209161245d81518092818552858086019101612421565b601f01601f1916010190565b600435906001600160a01b03821682036101e757565b602435906001600160a01b03821682036101e757565b610280810190811067ffffffffffffffff8211176124b257604052565b634e487b7160e01b600052604160045260246000fd5b6040810190811067ffffffffffffffff8211176124b257604052565b6060810190811067ffffffffffffffff8211176124b257604052565b90601f8019910116810190811067ffffffffffffffff8211176124b257604052565b67ffffffffffffffff81116124b257601f01601f191660200190565b9060406003198301126101e75760043567ffffffffffffffff928382116101e757806023830112156101e75781600401359384116101e75760248460051b830101116101e757602401919060243590565b90600182811c921680156125bf575b60208310146125a957565b634e487b7160e01b600052602260045260246000fd5b91607f169161259e565b906040519182600082546125dc8161258f565b9081845260209460019160018116908160001461264c575060011461260d575b50505061260b92500383612500565b565b600090815285812095935091905b81831061263457505061260b93508201013880806125fc565b8554888401850152948501948794509183019161261b565b9250505061260b94925060ff191682840152151560051b8201013880806125fc565b1561267557565b606460405162461bcd60e51b815260206004820152600a60248201527f6f6e6c79206f776e6572000000000000000000000000000000000000000000006044820152fd5b67ffffffffffffffff81116124b25760051b60200190565b919082018092116126de57565b634e487b7160e01b600052601160045260246000fd5b519081151582036101e757565b90816102809103126101e7576040519061271a82612495565b805182526020810151602083015260408101516040830152606081015160608301526080810151608083015260a081015160a083015260c081015160c083015260e081015160e08301526101008082015190830152610120808201519083015261014080820151908301526101606127938183016126f4565b9083015261018080820151908301526101a080820151908301526101c06127bb8183016126f4565b908301526101e0808201519083015261020080820151908301526102206127e38183016126f4565b908301526102408082015190830152610260809101519082015290565b906040516080810181811067ffffffffffffffff8211176124b257604052606061284e6001839560ff815461ffff80821688528160101c16602088015260201c1615156040860152016125c9565b910152565b919082039182116126de57565b6001600160a01b0360055416156128d25761287d60065442612853565b6702ea11e32ad500008181029181830481036126de57670e92596fd62900000291808304600514901517156126de57620186a0655f7f37b39000920482018092116126de578082116128cd575090565b905090565b6702ea11e32ad5000090565b91908110156129005760051b81013590607e19813603018212156101e7570190565b634e487b7160e01b600052603260045260246000fd5b903590601e19813603018212156101e7570180359067ffffffffffffffff82116101e757602001918160051b360383136101e757565b80548210156129005760005260206000209060011b0190600090565b3561ffff811681036101e75790565b60405190612984826124c8565b600582527f66616c73650000000000000000000000000000000000000000000000000000006020830152565b604051906129bd826124c8565b600482527f74727565000000000000000000000000000000000000000000000000000000006020830152565b91908110156129005760051b81013590601e19813603018212156101e7570190565b919091805483101561290057600052601e60206000208360041c019260011b1690565b60405190612a3b82612495565b816102606000918281528260208201528260408201528260608201528260808201528260a08201528260c08201528260e08201528261010082015282610120820152826101408201528261016082015282610180820152826101a0820152826101c0820152826101e08201528261020082015282610220820152826102408201520152565b6001600160a01b03809116918215612b8b5716918215612b215760207f8c5be1e5ebec7d5bd14f71427d1e84f3dd0314c0f7b2291e5b200ac8c7c3b925918360005260018252604060002085600052825280604060002055604051908152a3565b608460405162461bcd60e51b815260206004820152602260248201527f45524332303a20617070726f766520746f20746865207a65726f20616464726560448201527f73730000000000000000000000000000000000000000000000000000000000006064820152fd5b608460405162461bcd60e51b8152602060048201526024808201527f45524332303a20617070726f76652066726f6d20746865207a65726f2061646460448201527f72657373000000000000000000000000000000000000000000000000000000006064820152fd5b90612bfd61438a565b90612d116078612c0b61438a565b936040519485917f3c73766720786d6c6e733d27687474703a2f2f7777772e77332e6f72672f323060208401527f30302f737667272076696577426f783d2730203000000000000000000000000060408401527f200000000000000000000000000000000000000000000000000000000000000090816054850152612c9a815180926020605588019101612421565b8301906055820152612cb6825180936020605685019101612421565b017f272073686170652d72656e646572696e673d276372697370456467657327206960568201527f643d0000000000000000000000000000000000000000000000000000000000006076820152036058810185520183612500565b825161380b57606083015192608081015190604051612d2f816124c8565b600a815269189858dad9dc9bdd5b9960b21b6020820152612710958601958681116126de5760009687526014602052604087209381018091116137f75786526015602052604086208354606094889391925b8385106137515750505050506040602082015191015160405190612da4826124c8565b600392600383527f65676700000000000000000000000000000000000000000000000000000000006020840152614e2090810180821161373d57885260146020526040882091810180911161372957875260156020526040872081546060989490939291905b84861061362f57505050505050916105dd917f293b205d5d3e203c2f7363726970743e0000000000000000000000000000000061362c946040519684612e5a89965180926020808a019101612421565b8501917f276567672d7376672d0000000000000000000000000000000000000000000000602084015284516020860193612e98826029830187612421565b017f273e0000000000000000000000000000000000000000000000000000000000006029820152612ed3825180936020602b85019101612421565b01612ee8825180936020602b85019101612421565b017f3c73637269707420747970653d27746578742f6a617661736372697074273e3c602b8201527f215b43444154415b66756e6374696f6e20616e696d6174652875756964297b63604b8201527f6f6e7374207376673d646f63756d656e742e676574456c656d656e7442794964606b8201527f28276567672d7376672d00000000000000000000000000000000000000000000608b820152835190612f92826095830185612421565b017f27292c70617468733d7376672e717565727953656c6563746f72416c6c28277060958201527f6174685b7374726f6b655d3a6e6f74285b69643d226261636b67726f756e642260b58201527f5d27293b6c65742074696d653d303b20636f6e73742072616e646f6d4172726160d58201527f79203d206e65772055696e7433324172726179283130293b2073656c662e637260f58201527f7970746f2e67657452616e646f6d56616c7565732872616e646f6d41727261796101158201527f293b66756e6374696f6e20686578546f5267622874297b6c657420653d302c616101358201527f3d302c6e3d303b72657475726e20343d3d3d742e6c656e6774683f28653d70616101558201527f727365496e7428745b315d2b745b315d2c3136292c613d7061727365496e74286101758201527f745b325d2b745b325d2c3136292c6e3d7061727365496e7428745b335d2b745b6101958201527f335d2c313629293a373d3d3d742e6c656e677468262628653d7061727365496e6101b58201527f7428745b315d2b745b325d2c3136292c613d7061727365496e7428745b335d2b6101d58201527f745b345d2c3136292c6e3d7061727365496e7428745b355d2b745b365d2c31366101f58201527f29292c7b723a652c673a612c623a6e7d7d66756e6374696f6e20726762546f486102158201527f736c28742c652c61297b742f3d3235352c652f3d3235352c612f3d3235353b6c6102358201527f6574206e2c732c723d4d6174682e6d617828742c652c61292c6c3d4d6174682e6102558201527f6d696e28742c652c61292c6f3d28722b6c292f323b696628723d3d3d6c296e3d6102758201527f733d303b656c73657b6c657420693d722d6c3b73776974636828733d6f3e2e356102958201527f3f692f28322d722d6c293a692f28722b6c292c72297b6361736520743a6e3d286102b58201527f652d61292f692b28653c613f363a30293b627265616b3b6361736520653a6e3d6102d58201527f28612d74292f692b323b627265616b3b6361736520613a6e3d28742d65292f696102f58201527f2b347d6e2f3d367d72657475726e7b683a3336302a6e2c733a3130302a732c6c6103158201527f3a3130302a6f7d7d66756e6374696f6e206379636c65436f6c6f727328297b746103358201527f696d652b3d2e3132352c70617468732e666f724561636828743d3e7b6c6574206103558201527f653d32302a4d6174682e73696e2874696d652a742e616e696d6174696f6e52616103758201527f7465292c613d28742e68736c2e682b6529253336303b613c30262628612b3d336103958201527f3630293b6c6574206e3d6068736c28247b617d2c20247b742e68736c2e737d256103b58201527f2c20247b742e68736c2e6c7d2529603b742e73657441747472696275746528276103d58201527f7374726f6b65272c6e297d297d70617468732e666f724561636828743d3e7b6c6103f58201527f657420653d686578546f52676228742e676574417474726962757465282773746104158201527f726f6b652729292c613d726762546f48736c28652e722c652e672c652e62293b6104358201527f742e68736c3d612c742e616e696d6174696f6e526174653d2e30312a31302b2e6104558201527f30327d293b6c657420766572746963616c506f736974696f6e3d72616e646f6d6104758201527f41727261795b305d3b636f6e737420616d706c69747564653d382c66726571756104958201527f656e63793d2e30353b66756e6374696f6e20616e696d61746528297b766572746104b58201527f6963616c506f736974696f6e2b3d6672657175656e63793b636f6e737420743d6104d58201527f616d706c69747564652a4d6174682e73696e28766572746963616c506f7369746104f58201527f696f6e293b7376672e7374796c652e7472616e73666f726d3d607472616e736c6105158201527f6174655928247b747d707829602c72657175657374416e696d6174696f6e46726105358201527f616d6528616e696d617465297d6c657420696e74657276616c54696d653d312f6105558201527f33303b736574496e74657276616c286379636c65436f6c6f72732c696e7465726105758201527f76616c54696d65292c72657175657374416e696d6174696f6e4672616d6528616105958201527f6e696d617465293b7d20616e696d6174652800000000000000000000000000006105b58201526136086105c79451809386840190612421565b0191820152651e17b9bb339f60d11b6105d7820152036105bd810184520182612500565b90565b909192939498600190858b8660ff613647838361294c565b505460201c16156136f1576136e492826136a561369f61367f6136786136726020986136ab9861294c565b50612800565b938d61294c565b5061369361ffff80925460101c168d612a0b565b9054908c1b1c166148a4565b506125c9565b90615068565b9260405193816136c48693518092868087019101612421565b82016136d882518093868085019101612421565b01038084520182612500565b995b019493929190612e0a565b61372392816136a561369f61ffff61371b8761371561367260209a6136ab9a61294c565b9561294c565b5054166148a4565b996136e6565b602488634e487b7160e01b81526011600452fd5b602489634e487b7160e01b81526011600452fd5b909192939560019084888560ff613768838361294c565b505460201c16156137c7576137bb92826136a561369f61379a6137936136726020986136ab9861294c565b938c61294c565b506137ae61ffff80925460101c168c612a0b565b90549060031b1c166148a4565b965b0193929190612d81565b6137f192826136a561369f61ffff61371b6137ea6136726020996136ab9961294c565b948d61294c565b966137bd565b602487634e487b7160e01b81526011600452fd5b509060608101519060808101519160405190613826826124c8565b600a825269189858dad9dc9bdd5b9960b21b60208301526127109081018082116126de57600052601460205260406000209381018091116126de57600093919352601560205260406000206060936000928054925b838510613fd257505050505060a081015160c0820151906040519061389f826124c8565b600482527f626f64790000000000000000000000000000000000000000000000000000000060208301526175309081018082116126de57600052601460205260406000209281018091116126de57600092919252601560205260406000206060926000928054925b838510613f5b57505050505060e0820151610100830151906040519061392c826124c8565b600a82527f65787072657373696f6e000000000000000000000000000000000000000000006020830152619c409081018082116126de57600052601460205260406000209281018091116126de57600092919252601560205260406000206060926000928054925b838510613ee457505050505061012083015161014084015190604051906139ba826124c8565b600482527f657965730000000000000000000000000000000000000000000000000000000060208301528061c3500161c350116126de5761c35001600052601460205260406000209161c350018061c350116126de57600092919252601560205260406000206060926000928054925b838510613e6d575050505050610180840151916101a08501519260405190613a51826124c8565b600382527f686174000000000000000000000000000000000000000000000000000000000060208301528061ea600161ea60116126de5761ea600160005260146020526040600020938061ea600161ea60116126de5761ea6094919401600052601560205260406000206060946000928054925b838510613df65750505050506101e0850151936102008601519460405190613aec826124c8565b600782527f6579657765617200000000000000000000000000000000000000000000000000602083015280620111700162011170116126de576201117001600052601460205260406000209580620111700162011170116126de576201117096919601600052601560205260406000206060966000928054925b838510613d7f5750505050506102606102408701519601519560405190613b8c826124c8565b600782527f636c6f7468657300000000000000000000000000000000000000000000000000602083015280620138800162013880116126de576201388001600052601460205260406000209680620138800162013880116126de576201388097919701600052601560205260406000206060976000928054925b838510613d0857505050505094602094613c44989461362c9894651e17b9bb339f60d11b94601199896040519d8e8b83829d51948593019101612421565b8901977f2766726f672d737667273e0000000000000000000000000000000000000000008b8a0152602b98613c81825180938e8d85019101612421565b01613c94825180938d8c85019101612421565b01613ca7825180938c8b85019101612421565b01613cba825180938b8a85019101612421565b01613ccd825180938a8985019101612421565b01613ce082518093898885019101612421565b01613cf382518093888785019101612421565b01918201520301600e19810184520182612500565b9091929399600190848c8560ff613d1f838361294c565b505460201c1615613d5657613d4a92826136a561369f61379a6137936136726020986136ab9861294c565b9a5b0193929190613c06565b613d7992826136a561369f61ffff61371b6137ea6136726020996136ab9961294c565b9a613d4c565b9091929398600190848b8560ff613d96838361294c565b505460201c1615613dcd57613dc192826136a561369f61379a6137936136726020986136ab9861294c565b995b0193929190613b66565b613df092826136a561369f61ffff61371b6137ea6136726020996136ab9961294c565b99613dc3565b909192939660019084898560ff613e0d838361294c565b505460201c1615613e4457613e3892826136a561369f61379a6137936136726020986136ab9861294c565b975b0193929190613ac5565b613e6792826136a561369f61ffff61371b6137ea6136726020996136ab9961294c565b97613e3a565b909192939460019084878560ff613e84838361294c565b505460201c1615613ebb57613eaf92826136a561369f61379a6137936136726020986136ab9861294c565b955b0193929190613a2a565b613ede92826136a561369f61ffff61371b6137ea6136726020996136ab9961294c565b95613eb1565b909192939460019084878560ff613efb838361294c565b505460201c1615613f3257613f2692826136a561369f61379a6137936136726020986136ab9861294c565b955b0193929190613994565b613f5592826136a561369f61ffff61371b6137ea6136726020996136ab9961294c565b95613f28565b909192939460019084878560ff613f72838361294c565b505460201c1615613fa957613f9d92826136a561369f61379a6137936136726020986136ab9861294c565b955b0193929190613907565b613fcc92826136a561369f61ffff61371b6137ea6136726020996136ab9961294c565b95613f9f565b909192939560019084888560ff613fe9838361294c565b505460201c16156140205761401492826136a561369f61379a6137936136726020986136ab9861294c565b965b019392919061387b565b61404392826136a561369f61ffff61371b6137ea6136726020996136ab9961294c565b96614016565b6005546001600160a01b039392919084161561431457614068816148db565b614071836148db565b9061407d8585856144ff565b614086836148db565b90614090856148db565b9181158061430d575b6142ff575b816142f6575b506142e8575b8115806142e1575b6142d3575b816142ca575b506142bc575b8382161561418357838116308114614178576007549460ff8616156140ee57505061260b935061470e565b60055416809114614104575061260b935061470e565b92919050614110612860565b82116141345760ff1993841660011760075561412b9261470e565b60075416600755565b606460405162461bcd60e51b815260206004820152600d60248201527f6d617820627579206c696d6974000000000000000000000000000000000000006044820152fd5b5061260b935061470e565b9050919091168015614252576000918183528260205260408320548181106141e857817fddf252ad1be2c89b69c2b068fc378daa952ba7f163c4a11628f55a4df523b3ef926020928587528684520360408620558060025403600255604051908152a3565b608460405162461bcd60e51b815260206004820152602260248201527f45524332303a206275726e20616d6f756e7420657863656564732062616c616e60448201527f63650000000000000000000000000000000000000000000000000000000000006064820152fd5b608460405162461bcd60e51b815260206004820152602160248201527f45524332303a206275726e2066726f6d20746865207a65726f2061646472657360448201527f73000000000000000000000000000000000000000000000000000000000000006064820152fd5b6142c582614a22565b6140c3565b905015386140bd565b6142dc846149c9565b6140b7565b50806140b2565b6142f183614a22565b6140aa565b905015386140a4565b614308856149c9565b61409e565b5080614099565b8360135416808583161490811561436f575b506140c357606460405162461bcd60e51b815260206004820152600b60248201527f6e6f7420737461727465640000000000000000000000000000000000000000006044820152fd5b90508483161438614326565b60001981146126de5760010190565b6064600081805b614431575061439f81612522565b906143ad6040519283612500565b808252601f196143bc82612522565b013660208401375b8092801561442a5760001982019182116126de578193600a9260309084840682018092116126de57855111156129005760f81b7fff000000000000000000000000000000000000000000000000000000000000001660001a908401601f015304916143c4565b5050905090565b9061443d600a9161437b565b910480614391565b801561447257600081805b61445e575061439f81612522565b9061446a600a9161437b565b910480614450565b5060405161447f816124c8565b600181527f3000000000000000000000000000000000000000000000000000000000000000602082015290565b5161520881106144f957620802c881106144f3576210059081106144ed576218085881106144e75762200b20116144e257600590565b600490565b50600390565b50600290565b50600190565b50600090565b91906001600160a01b039182841630811461470757633b9aca009081830494851515806146f9575b806146e9575b61456c575b506145679261260b9692614561926000526000602052806145596040600020549384612853565b049104612853565b90614ae2565b614f74565b600090828252602091600c8352604090888282205414806146ca575b61467057848152600b8452818120898252845260ff828220541680614651575b6145b457505050614532565b6146259296507ff812986a5595e9c800cf9827b7640776492182d291a381e643e11eeef74fe70697955098818a8661464c979b94969c5260098c52818120600a8d528282208583528d528282205482528c522099600185519b6146168d6124c8565b80548d520154908b0152614e3a565b61462f8784614d91565b519283921695829190916020806040830194805184520151910152565b0390a3565b508288168152600b8452818120898252845260ff8282205416156145a8565b6146259296507ff812986a5595e9c800cf9827b7640776492182d291a381e643e11eeef74fe70697955098818a8661464c979b94969c52600c8c522099600185519b6146bb8d6124c8565b80548d520154908b0152614ae2565b508288168152600b8452818120898252845260ff828220541615614588565b508060055416818616141561452d565b508060055416821415614527565b5050505050565b6001600160a01b038091169182156147e95760009383855284602052604085205481811061477f577fddf252ad1be2c89b69c2b068fc378daa952ba7f163c4a11628f55a4df523b3ef9360209383604093888a528987520383892055169586815220818154019055604051908152a3565b608460405162461bcd60e51b815260206004820152602660248201527f45524332303a207472616e7366657220616d6f756e742065786365656473206260448201527f616c616e636500000000000000000000000000000000000000000000000000006064820152fd5b608460405162461bcd60e51b815260206004820152602560248201527f45524332303a207472616e736665722066726f6d20746865207a65726f20616460448201527f64726573730000000000000000000000000000000000000000000000000000006064820152fd5b614870815160208301908151916148698361437b565b90526126d1565b6000198101919082116126de5760400151604051906020820192835260408201526040815261489e816124e4565b51902090565b6016548110156129005760166000527fd833147d7dc355ba459fc788f669e58cfaf9dc25ddcd0702e87d69c7b51242890190600090565b906001600160a01b03809216913083149081156149bb575b5080156149b3575b6149ad57600091808352600c6020526040832054604051917ffb700e5b0000000000000000000000000000000000000000000000000000000083526004830152602082602481305afa9182156149a2578492614963575b5061495e9293506126d1565b151590565b9091506020813d60201161499a575b8161497f60209383612500565b810103126149965761495e92935051908392614952565b8380fd5b3d9150614972565b6040513d86823e3d90fd5b60009150565b5081156148fb565b9050600554168214386148f3565b614a1090601054600052600d6020526001600160a01b036040600020911690816001600160a01b031982541617905560105490600052600e6020528060406000205561437b565b601055565b80156126de576000190190565b6010548015614ade576001600160a01b03809216600091818352600e60205260409384842054916000198101908111614aca57808303614a95575b505050614a6b601054614a15565b6010558152600e60205280828120556010548152600d602052206001600160a01b03198154169055565b8452600d6020528484205416818452848420816001600160a01b03198254161790558352600e60205283832055388080614a5d565b602485634e487b7160e01b81526011600452fd5b5050565b91908015614d8c576005546001600160a01b038481169291168214614d86576000828152600c602081815260409384842097855191614b20836124c8565b895483526001809a015484840152878652848452868620805482811015614cf457505087865284845286862054614b5691612853565b908786528484528587812055614b7a614b7060125461437b565b8060125582615160565b8887528585526001888820015560088452868620549980879b88925b614cb0575b505050918187969492938b614c159997957fd9ce8cf3b6090f5cee32f81d4e7fc62d1b356567f2d54d0ec856bfa018f4cfaf9b9c9d11614c63575b5050508051151580614c52575b614c3f575b511580614c2d575b614c1a575b878352522090518154815260019091015460208201529081906040820190565b0390a2565b614c2560115461437b565b601155614bf5565b50878352818152838320541515614bf0565b614c4a601154614a15565b601155614be8565b508884528282528484205415614be3565b614c9b92614c7091612853565b8b8752858552614c848888209182546126d1565b9055614c9160125461437b565b9081601255615160565b89855283835260018686200155388080614bd6565b90919b818d1080614ceb575b15614ce557614cd7614cdd91614cd186615191565b906126d1565b9c61437b565b919081614b96565b9b614b9b565b50848110614cbc565b7fd9ce8cf3b6090f5cee32f81d4e7fc62d1b356567f2d54d0ec856bfa018f4cfaf999a9b5092614d3291614c848a99979594614c159b999795612853565b908985528383528585209160018301555115159081614d7c575b50614d7157878352522090518154815260019091015460208201529081906040820190565b614c25601154614a15565b9050541538614d4c565b50509050565b509050565b906001600160a01b0380600554169216918214614ade57600090828252602060088152604093848420614dc4815461437b565b9055614dd1600f5461437b565b600f5580845260088252848420546000198101908111614aca5781855260098352858520818652835285852084518155600184860151910155818552600a8352858520845186528352858520558352600b8152838320915183525220600160ff19825416179055565b6001600160a01b0380600554169116908114614ade57600190600092818452602060088152604092838620614e6f8154614a15565b9055614e7c600f54614a15565b600f55808652600b8252838620838752825283862060ff198154169055808652600882528386205492600a83528487209087528252838620548187526009835284872081885283528487209086865192614ed5846124c8565b80548452015484830152848103614f13575b50818752600a835284872090518752825285848120558552600981528285209185525282208281550155565b82885260098452858820858952845285882087875191614f32836124c8565b805483520154858201908152848a5260098652878a20838b52865288888b20918351835551910155838952600a85528689209051895284528588205538614ee7565b908015614ade576005546001600160a01b03838116939116831461506357614ffe614c15917f675b60f2c6359bc06657e4dab2068c3b994cc7a3fe5f4eb8343475fcc1fd08b793600090868252600c6020526040938493848420926001865194614fdd866124c8565b8054865201546020850152898552600c602052614c848686209182546126d1565b90878352600c60205283832091600183015551159081615058575b50615045575b858152600c60205220905191829182919091602060016040830194805484520154910152565b61505060115461437b565b60115561501f565b905054151538615019565b505050565b61362c916060603d920151936040519485927f3c70617468207374726f6b653d2723000000000000000000000000000000000060208501526150b4815180926020602f88019101612421565b83017f2720643d27000000000000000000000000000000000000000000000000000000602f8201526150f0825180936020603485019101612421565b017f272069643d270000000000000000000000000000000000000000000000000000603482015261512b825180936020603a85019101612421565b017f272f3e0000000000000000000000000000000000000000000000000000000000603a82015203601d810184520182612500565b906040519060208201926bffffffffffffffffffffffff199060601b16835260348201526034815261489e816124e4565b60006001600160a01b038216815260086020526040812054156128cd57604061362c91600960205281812081805260205220548092614e3a56fea264697066735822122061c69c5654621287616ac29bd9f0b5aa21fe847789804ea4967b9940a1f2e27264736f6c63430008180033",
  "linkReferences": {},
  "deployedLinkReferences": {}
}