{
  "_format": "hh-sol-artifact-1",
  "contractName": "Fungi",
  "sourceName": "contracts/token/Fungi.sol",
  "abi": [
    {
      "inputs": [],
      "stateMutability": "nonpayable",
      "type": "constructor"
    },
    {
      "inputs": [],
      "name": "ReentrancyGuardReentrantCall",
      "type": "error"
    },
    {
      "anonymous": false,
      "inputs": [
        {
          "indexed": true,
          "internalType": "address",
          "name": "owner",
          "type": "address"
        },
        {
          "indexed": true,
          "internalType": "address",
          "name": "spender",
          "type": "address"
        },
        {
          "indexed": false,
          "internalType": "uint256",
          "name": "value",
          "type": "uint256"
        }
      ],
      "name": "Approval",
      "type": "event"
    },
    {
      "anonymous": false,
      "inputs": [
        {
          "indexed": true,
          "internalType": "address",
          "name": "holder",
          "type": "address"
        },
        {
          "components": [
            {
              "internalType": "uint256",
              "name": "seed",
              "type": "uint256"
            },
            {
              "internalType": "uint256",
              "name": "extra",
              "type": "uint256"
            }
          ],
          "indexed": false,
          "internalType": "struct SeedData",
          "name": "seed_data",
          "type": "tuple"
        }
      ],
      "name": "OnDynamicInscriptionAdd",
      "type": "event"
    },
    {
      "anonymous": false,
      "inputs": [
        {
          "indexed": true,
          "internalType": "address",
          "name": "holder",
          "type": "address"
        },
        {
          "components": [
            {
              "internalType": "uint256",
              "name": "seed",
              "type": "uint256"
            },
            {
              "internalType": "uint256",
              "name": "extra",
              "type": "uint256"
            }
          ],
          "indexed": false,
          "internalType": "struct SeedData",
          "name": "seed_data",
          "type": "tuple"
        }
      ],
      "name": "OnDynamicInscriptionRemove",
      "type": "event"
    },
    {
      "anonymous": false,
      "inputs": [
        {
          "indexed": true,
          "internalType": "address",
          "name": "from",
          "type": "address"
        },
        {
          "indexed": true,
          "internalType": "address",
          "name": "to",
          "type": "address"
        },
        {
          "components": [
            {
              "internalType": "uint256",
              "name": "seed",
              "type": "uint256"
            },
            {
              "internalType": "uint256",
              "name": "extra",
              "type": "uint256"
            }
          ],
          "indexed": false,
          "internalType": "struct SeedData",
          "name": "seed_data",
          "type": "tuple"
        }
      ],
      "name": "OnInscriptionTransfer",
      "type": "event"
    },
    {
      "anonymous": false,
      "inputs": [],
      "name": "RenounceOwnership",
      "type": "event"
    },
    {
      "anonymous": false,
      "inputs": [
        {
          "indexed": true,
          "internalType": "address",
          "name": "from",
          "type": "address"
        },
        {
          "indexed": true,
          "internalType": "address",
          "name": "to",
          "type": "address"
        },
        {
          "indexed": false,
          "internalType": "uint256",
          "name": "value",
          "type": "uint256"
        }
      ],
      "name": "Transfer",
      "type": "event"
    },
    {
      "inputs": [
        {
          "internalType": "address",
          "name": "owner",
          "type": "address"
        },
        {
          "internalType": "address",
          "name": "spender",
          "type": "address"
        }
      ],
      "name": "allowance",
      "outputs": [
        {
          "internalType": "uint256",
          "name": "",
          "type": "uint256"
        }
      ],
      "stateMutability": "view",
      "type": "function"
    },
    {
      "inputs": [
        {
          "internalType": "address",
          "name": "spender",
          "type": "address"
        },
        {
          "internalType": "uint256",
          "name": "amount",
          "type": "uint256"
        }
      ],
      "name": "approve",
      "outputs": [
        {
          "internalType": "bool",
          "name": "",
          "type": "bool"
        }
      ],
      "stateMutability": "nonpayable",
      "type": "function"
    },
    {
      "inputs": [
        {
          "internalType": "address",
          "name": "account",
          "type": "address"
        }
      ],
      "name": "balanceOf",
      "outputs": [
        {
          "internalType": "uint256",
          "name": "",
          "type": "uint256"
        }
      ],
      "stateMutability": "view",
      "type": "function"
    },
    {
      "inputs": [],
      "name": "burnCount",
      "outputs": [
        {
          "internalType": "uint256",
          "name": "",
          "type": "uint256"
        }
      ],
      "stateMutability": "view",
      "type": "function"
    },
    {
      "inputs": [],
      "name": "decimals",
      "outputs": [
        {
          "internalType": "uint8",
          "name": "",
          "type": "uint8"
        }
      ],
      "stateMutability": "pure",
      "type": "function"
    },
    {
      "inputs": [
        {
          "internalType": "address",
          "name": "spender",
          "type": "address"
        },
        {
          "internalType": "uint256",
          "name": "subtractedValue",
          "type": "uint256"
        }
      ],
      "name": "decreaseAllowance",
      "outputs": [
        {
          "internalType": "bool",
          "name": "",
          "type": "bool"
        }
      ],
      "stateMutability": "nonpayable",
      "type": "function"
    },
    {
      "inputs": [
        {
          "internalType": "address",
          "name": "owner",
          "type": "address"
        }
      ],
      "name": "dynamicInscription",
      "outputs": [
        {
          "components": [
            {
              "internalType": "uint256",
              "name": "seed",
              "type": "uint256"
            },
            {
              "internalType": "uint256",
              "name": "extra",
              "type": "uint256"
            }
          ],
          "internalType": "struct SeedData",
          "name": "data",
          "type": "tuple"
        }
      ],
      "stateMutability": "view",
      "type": "function"
    },
    {
      "inputs": [],
      "name": "dynamicInscriptionTotalCount",
      "outputs": [
        {
          "internalType": "uint256",
          "name": "",
          "type": "uint256"
        }
      ],
      "stateMutability": "view",
      "type": "function"
    },
    {
      "inputs": [
        {
          "components": [
            {
              "internalType": "uint256",
              "name": "seed",
              "type": "uint256"
            },
            {
              "internalType": "uint256",
              "name": "extra",
              "type": "uint256"
            }
          ],
          "internalType": "struct SeedData",
          "name": "seed_data",
          "type": "tuple"
        }
      ],
      "name": "getFrog",
      "outputs": [
        {
          "components": [
            {
              "internalType": "uint256",
              "name": "lvl",
              "type": "uint256"
            },
            {
              "internalType": "uint256",
              "name": "egg",
              "type": "uint256"
            },
            {
              "internalType": "uint256",
              "name": "eggPalette",
              "type": "uint256"
            },
            {
              "internalType": "uint256",
              "name": "eggAnimation",
              "type": "uint256"
            },
            {
              "internalType": "uint256",
              "name": "bg",
              "type": "uint256"
            },
            {
              "internalType": "uint256",
              "name": "bgPalette",
              "type": "uint256"
            },
            {
              "internalType": "uint256",
              "name": "colorCycle",
              "type": "uint256"
            },
            {
              "internalType": "uint256",
              "name": "body",
              "type": "uint256"
            },
            {
              "internalType": "uint256",
              "name": "bodyPalette",
              "type": "uint256"
            },
            {
              "internalType": "bool",
              "name": "animateBody",
              "type": "bool"
            },
            {
              "internalType": "uint256",
              "name": "expression",
              "type": "uint256"
            },
            {
              "internalType": "uint256",
              "name": "eyes",
              "type": "uint256"
            },
            {
              "internalType": "uint256",
              "name": "eyesPalette",
              "type": "uint256"
            },
            {
              "internalType": "bool",
              "name": "hatBool",
              "type": "bool"
            },
            {
              "internalType": "uint256",
              "name": "hat",
              "type": "uint256"
            },
            {
              "internalType": "uint256",
              "name": "hatPalette",
              "type": "uint256"
            },
            {
              "internalType": "bool",
              "name": "eyewearBool",
              "type": "bool"
            },
            {
              "internalType": "uint256",
              "name": "eyewear",
              "type": "uint256"
            },
            {
              "internalType": "uint256",
              "name": "eyewearPalette",
              "type": "uint256"
            },
            {
              "internalType": "bool",
              "name": "clothesBool",
              "type": "bool"
            },
            {
              "internalType": "uint256",
              "name": "clothes",
              "type": "uint256"
            },
            {
              "internalType": "uint256",
              "name": "clothesPalette",
              "type": "uint256"
            },
            {
              "internalType": "bool",
              "name": "animateBg",
              "type": "bool"
            },
            {
              "internalType": "uint256",
              "name": "animatedBg",
              "type": "uint256"
            },
            {
              "internalType": "uint256",
              "name": "animatedBgPalette",
              "type": "uint256"
            }
          ],
          "internalType": "struct FrogData",
          "name": "",
          "type": "tuple"
        }
      ],
      "stateMutability": "pure",
      "type": "function"
    },
    {
      "inputs": [
        {
          "internalType": "uint256",
          "name": "index",
          "type": "uint256"
        }
      ],
      "name": "getHolderByIndex",
      "outputs": [
        {
          "internalType": "address",
          "name": "",
          "type": "address"
        }
      ],
      "stateMutability": "view",
      "type": "function"
    },
    {
      "inputs": [
        {
          "internalType": "address",
          "name": "account",
          "type": "address"
        }
      ],
      "name": "getHolderIndex",
      "outputs": [
        {
          "internalType": "uint256",
          "name": "",
          "type": "uint256"
        }
      ],
      "stateMutability": "view",
      "type": "function"
    },
    {
      "inputs": [
        {
          "internalType": "uint256",
          "name": "startIndex",
          "type": "uint256"
        },
        {
          "internalType": "uint256",
          "name": "count",
          "type": "uint256"
        }
      ],
      "name": "getHoldersList",
      "outputs": [
        {
          "internalType": "address[]",
          "name": "",
          "type": "address[]"
        }
      ],
      "stateMutability": "view",
      "type": "function"
    },
    {
      "inputs": [
        {
          "components": [
            {
              "internalType": "uint256",
              "name": "seed",
              "type": "uint256"
            },
            {
              "internalType": "uint256",
              "name": "extra",
              "type": "uint256"
            }
          ],
          "internalType": "struct SeedData",
          "name": "seed_data",
          "type": "tuple"
        }
      ],
      "name": "getMeta",
      "outputs": [
        {
          "internalType": "string",
          "name": "",
          "type": "string"
        }
      ],
      "stateMutability": "view",
      "type": "function"
    },
    {
      "inputs": [
        {
          "components": [
            {
              "internalType": "uint256",
              "name": "seed",
              "type": "uint256"
            },
            {
              "internalType": "uint256",
              "name": "extra",
              "type": "uint256"
            }
          ],
          "internalType": "struct SeedData",
          "name": "seed_data",
          "type": "tuple"
        }
      ],
      "name": "getSvg",
      "outputs": [
        {
          "internalType": "string",
          "name": "",
          "type": "string"
        }
      ],
      "stateMutability": "view",
      "type": "function"
    },
    {
      "inputs": [],
      "name": "holdersCount",
      "outputs": [
        {
          "internalType": "uint256",
          "name": "",
          "type": "uint256"
        }
      ],
      "stateMutability": "view",
      "type": "function"
    },
    {
      "inputs": [
        {
          "internalType": "address",
          "name": "spender",
          "type": "address"
        },
        {
          "internalType": "uint256",
          "name": "addedValue",
          "type": "uint256"
        }
      ],
      "name": "increaseAllowance",
      "outputs": [
        {
          "internalType": "bool",
          "name": "",
          "type": "bool"
        }
      ],
      "stateMutability": "nonpayable",
      "type": "function"
    },
    {
      "inputs": [
        {
          "internalType": "address",
          "name": "owner",
          "type": "address"
        }
      ],
      "name": "inscriptionCount",
      "outputs": [
        {
          "internalType": "uint256",
          "name": "",
          "type": "uint256"
        }
      ],
      "stateMutability": "view",
      "type": "function"
    },
    {
      "inputs": [
        {
          "internalType": "address",
          "name": "owner",
          "type": "address"
        },
        {
          "internalType": "uint256",
          "name": "index",
          "type": "uint256"
        }
      ],
      "name": "inscriptionOfOwnerByIndex",
      "outputs": [
        {
          "components": [
            {
              "internalType": "uint256",
              "name": "seed",
              "type": "uint256"
            },
            {
              "internalType": "uint256",
              "name": "extra",
              "type": "uint256"
            }
          ],
          "internalType": "struct SeedData",
          "name": "data",
          "type": "tuple"
        }
      ],
      "stateMutability": "view",
      "type": "function"
    },
    {
      "inputs": [],
      "name": "inscriptionsTotalCount",
      "outputs": [
        {
          "internalType": "uint256",
          "name": "",
          "type": "uint256"
        }
      ],
      "stateMutability": "view",
      "type": "function"
    },
    {
      "inputs": [
        {
          "internalType": "address",
          "name": "owner",
          "type": "address"
        },
        {
          "internalType": "uint256",
          "name": "seed",
          "type": "uint256"
        }
      ],
      "name": "isOwnerOf",
      "outputs": [
        {
          "internalType": "bool",
          "name": "",
          "type": "bool"
        }
      ],
      "stateMutability": "view",
      "type": "function"
    },
    {
      "inputs": [
        {
          "internalType": "address",
          "name": "poolAddress",
          "type": "address"
        }
      ],
      "name": "launch",
      "outputs": [],
      "stateMutability": "nonpayable",
      "type": "function"
    },
    {
      "inputs": [],
      "name": "maxBuy",
      "outputs": [
        {
          "internalType": "uint256",
          "name": "",
          "type": "uint256"
        }
      ],
      "stateMutability": "view",
      "type": "function"
    },
    {
      "inputs": [],
      "name": "name",
      "outputs": [
        {
          "internalType": "string",
          "name": "",
          "type": "string"
        }
      ],
      "stateMutability": "view",
      "type": "function"
    },
    {
      "inputs": [],
      "name": "owner",
      "outputs": [
        {
          "internalType": "address",
          "name": "",
          "type": "address"
        }
      ],
      "stateMutability": "view",
      "type": "function"
    },
    {
      "inputs": [],
      "name": "ownerRenounce",
      "outputs": [],
      "stateMutability": "nonpayable",
      "type": "function"
    },
    {
      "inputs": [],
      "name": "pool",
      "outputs": [
        {
          "internalType": "address",
          "name": "",
          "type": "address"
        }
      ],
      "stateMutability": "view",
      "type": "function"
    },
    {
      "inputs": [
        {
          "components": [
            {
              "internalType": "string",
              "name": "keyFrame",
              "type": "string"
            },
            {
              "internalType": "string",
              "name": "keyFrameName",
              "type": "string"
            },
            {
              "internalType": "string",
              "name": "animation",
              "type": "string"
            },
            {
              "internalType": "string[]",
              "name": "targets",
              "type": "string[]"
            }
          ],
          "internalType": "struct Animation",
          "name": "data",
          "type": "tuple"
        },
        {
          "internalType": "uint256",
          "name": "id",
          "type": "uint256"
        }
      ],
      "name": "setAnimation",
      "outputs": [],
      "stateMutability": "nonpayable",
      "type": "function"
    },
    {
      "inputs": [
        {
          "internalType": "string[]",
          "name": "data",
          "type": "string[]"
        },
        {
          "internalType": "uint256",
          "name": "offset",
          "type": "uint256"
        }
      ],
      "name": "setColors",
      "outputs": [],
      "stateMutability": "nonpayable",
      "type": "function"
    },
    {
      "inputs": [
        {
          "components": [
            {
              "internalType": "uint16[]",
              "name": "list",
              "type": "uint16[]"
            }
          ],
          "internalType": "struct FilePaletteData[]",
          "name": "data",
          "type": "tuple[]"
        },
        {
          "internalType": "uint256",
          "name": "offset",
          "type": "uint256"
        }
      ],
      "name": "setPalettes",
      "outputs": [],
      "stateMutability": "nonpayable",
      "type": "function"
    },
    {
      "inputs": [
        {
          "components": [
            {
              "internalType": "uint256",
              "name": "fileId",
              "type": "uint256"
            },
            {
              "components": [
                {
                  "internalType": "uint16",
                  "name": "color",
                  "type": "uint16"
                },
                {
                  "internalType": "uint16",
                  "name": "paletteIndex",
                  "type": "uint16"
                },
                {
                  "internalType": "bool",
                  "name": "usePalette",
                  "type": "bool"
                },
                {
                  "internalType": "string",
                  "name": "d",
                  "type": "string"
                }
              ],
              "internalType": "struct Path[]",
              "name": "Data",
              "type": "tuple[]"
            }
          ],
          "internalType": "struct FilePathData[]",
          "name": "data",
          "type": "tuple[]"
        },
        {
          "internalType": "uint256",
          "name": "offset",
          "type": "uint256"
        }
      ],
      "name": "setPaths",
      "outputs": [],
      "stateMutability": "nonpayable",
      "type": "function"
    },
    {
      "inputs": [],
      "name": "symbol",
      "outputs": [
        {
          "internalType": "string",
          "name": "",
          "type": "string"
        }
      ],
      "stateMutability": "view",
      "type": "function"
    },
    {
      "inputs": [],
      "name": "totalSupply",
      "outputs": [
        {
          "internalType": "uint256",
          "name": "",
          "type": "uint256"
        }
      ],
      "stateMutability": "view",
      "type": "function"
    },
    {
      "inputs": [
        {
          "internalType": "address",
          "name": "to",
          "type": "address"
        },
        {
          "internalType": "uint256",
          "name": "amount",
          "type": "uint256"
        }
      ],
      "name": "transfer",
      "outputs": [
        {
          "internalType": "bool",
          "name": "",
          "type": "bool"
        }
      ],
      "stateMutability": "nonpayable",
      "type": "function"
    },
    {
      "inputs": [
        {
          "internalType": "address",
          "name": "from",
          "type": "address"
        },
        {
          "internalType": "address",
          "name": "to",
          "type": "address"
        },
        {
          "internalType": "uint256",
          "name": "amount",
          "type": "uint256"
        }
      ],
      "name": "transferFrom",
      "outputs": [
        {
          "internalType": "bool",
          "name": "",
          "type": "bool"
        }
      ],
      "stateMutability": "nonpayable",
      "type": "function"
    },
    {
      "inputs": [
        {
          "internalType": "address",
          "name": "newOwner",
          "type": "address"
        }
      ],
      "name": "transferOwnership",
      "outputs": [],
      "stateMutability": "nonpayable",
      "type": "function"
    }
  ],
  "bytecode": "0x60a0604090808252346200043d57620000188162000442565b6006815260206546726f67676960d01b818301528251916200003a8362000442565b60078352662466726f67676960c81b828401528051906001600160401b038083116200033d5760038054936001938486811c9616801562000432575b878710146200041c578190601f96878111620003c6575b5087908783116001146200035f5760009262000353575b505060001982841b1c191690841b1781555b85519182116200033d5760049586548481811c9116801562000332575b878210146200031d5790818685949311620002c5575b5086908684116001146200025a576000936200024e575b505082841b92600019911b1c19161784555b33608052601054600052600d83528460002060018060a01b03199033828254161790556200015060105433600052600e86528088600020556200045e565b60105581848751620001628162000442565b6305f5e10081520152620001763362000484565b3390601354161760135560185533156200020f575060025467016345785d8a000092838201809211620001fa57506000917fddf252ad1be2c89b69c2b068fc378daa952ba7f163c4a11628f55a4df523b3ef9160025533835282815284832084815401905584519384523393a351615f9b9081620005ef8239608051816121e00152f35b601190634e487b7160e01b6000525260246000fd5b90606493519262461bcd60e51b845283015260248201527f45524332303a206d696e7420746f20746865207a65726f2061646472657373006044820152fd5b01519150388062000100565b9190859450601f1984169289600052886000209360005b8a828210620002ae575050851162000293575b50505050811b01845562000112565b01519060f884600019921b161c191690553880808062000284565b838501518755899890960195938401930162000271565b9091925087600052866000208680860160051c82019289871062000313575b91879187969594930160051c01915b82811062000303575050620000e9565b60008155869550879101620002f3565b92508192620002e4565b602288634e487b7160e01b6000525260246000fd5b90607f1690620000d3565b634e487b7160e01b600052604160045260246000fd5b015190503880620000a4565b90869350601f1983169185600052896000209260005b8b828210620003af575050841162000396575b505050811b018155620000b6565b015160001983861b60f8161c1916905538808062000388565b8385015186558a9790950194938401930162000375565b90915083600052876000208780850160051c8201928a861062000412575b918891869594930160051c01915b828110620004025750506200008d565b60008155859450889101620003f2565b92508192620003e4565b634e487b7160e01b600052602260045260246000fd5b95607f169562000076565b600080fd5b604081019081106001600160401b038211176200033d57604052565b60001981146200046e5760010190565b634e487b7160e01b600052601160045260246000fd5b6005549091906001600160a01b0380841691168114620005e9576000928184526020600c8152604091828620906001845192620004c18462000442565b80548452015483830152848752600c83528387208054906305f5e1008201809211620005d55755620004f56012546200045e565b60128190558451606092831b6001600160601b031916858201908152603480830193909352918152909181016001600160401b03811182821017620005c157918593917f675b60f2c6359bc06657e4dab2068c3b994cc7a3fe5f4eb8343475fcc1fd08b797989993855251902090878352600c855283832091600183015551159081620005b5575b506200059f575b858152600c83522090600183519280548452015490820152a2565b620005ac6011546200045e565b60115562000584565b9050541515386200057d565b634e487b7160e01b89526041600452602489fd5b634e487b7160e01b89526011600452602489fd5b50905056fe60a08060405260048036101561001457600080fd5b60003560e01c91826306fdde031461253057508163095ea7b31461250a57816312e0c1181461227157816316f0115b1461224857816318160ddd1461222a578163214013ca146121bd57816323b872dd146120fd57816324d4e3a214611b6b5781632bd1a01114611b16578163313ce56714611afa578163333a007214611aa257816335ad0cea146119be578163395093511461196d578163422b9e231461189a578163524773ce146118525781636b4ed21b1461183457816370a08231146117fa57816370db69d6146117d75781638da5cb5b146117ae57816395d89b41146116d757816395e4b21b1461169d57816399f65c8f1461167f578163a457c2d7146115da578163a9059cbb146115a9578163c3f4552a14610c32578163c5b8f77214610be5578163c7218d5b14610b56578163cb8106f414610b17578163dd62ed3e14610ac6578163e0d9750214610aa8578163f2fde38b14610a65578163f3726e4414610965578163f4465a28146107d9578163f89212e3146101e1575063fb700e5b146101a257600080fd5b346101dc5760203660031901126101dc576001600160a01b036101c361264f565b1660005260086020526020604060002054604051908152f35b600080fd5b346101dc5760403660031901126101dc576101fa612c32565b50803560018082106101dc5760405191606083018381106001600160401b038211176107c457604052825260006020830152602435604083015261023c612c32565b9061024683614f11565b8252601861025384615e31565b069260a083019384528161026682615e31565b169160c08401928352808451111560001461044957600561028683615e31565b066020850152603e61029783615e31565b06604085015260056102a883615e31565b066002810180911161043457610320965060608501528084511461040a575b505b6102c0918284019182516103e0575b506040519484518652602085015160208701526040850151604087015260608501516060870152608085015160808701525160a08601525160c085015260e083015160e08501526101008084015190850152610120808401511515908501526101408084015190850152610160808401519085015261018080840151908501526101a0808401511515908501526101c080840151908501526101e0808401519085015261020080840151151590850152610220808401519085015261024080840151908501526102608084015115159085015261028080840151908501526102a08084015190850152511515908301526102e080820151908301526103008091015190820152f35b6103fd8160076103f1600994615e31565b066102e0880152615e31565b06610300850152866102d8565b80601461041684615e31565b06101561042c575b15156102c0840152856102c7565b50600061041e565b601187634e487b7160e01b6000525260246000fd5b948561032096601461045a85615e31565b0610156107bc5780915b6102c08601921515835281601461047a86615e31565b0610156107b45781925b61012087019315158452600361049986615e31565b069187519060038214600014610656575050508061062f5750806102008601525b80600a6104c685615e31565b061015610627575b151590525b61051e60066104e183615e31565b0660e08501908152603e6104f484615e31565b066101008601526002600561050885615e31565b92519206911161061e5760ff60005b16906128a1565b610140840152600561052f82615e31565b06610160840152600761054182615e31565b06610180840152610200830180516105f5575b6101a0840180516105cc575b511590816105c2575b50806105b4575b1561059e57601c61058082615e31565b06610280840152600761059282615e31565b166102a08401526102c9565b610260830151156102c957601961058082615e31565b506102608301511515610570565b9050511586610569565b60256105d784615e31565b066101c086015260076105e984615e31565b166101e0860152610560565b601761060083615e31565b06610220850152600761061283615e31565b16610240850152610554565b60ff6005610517565b5060006104ce565b8082036106435750806101a08601526104ba565b6002036104ba57806102608601526104ba565b81036106cd57505080610698575080610200860152806101a08601525b80600561067f85615e31565b061015610690575b151590526104d3565b506000610687565b8082036106b35750806101a086015280610260860152610673565b600203610673578061020086015280610260860152610673565b60059194925010156106e2575b5050506104d3565b81806106ed86615e31565b16036107ad57815b15156101a0870152818061070886615e31565b16036107a657815b1515610200870152818061072386615e31565b160361079f57815b151561026087015281600361073f86615e31565b16108015610794575b1561078d57815b1515905280600361075f85615e31565b16108015610782575b1561077a575b151590528580806106da565b50600061076e565b506006855114610768565b600061074f565b506006865114610748565b600061072b565b6000610710565b60006106f5565b600092610484565b600091610464565b604185634e487b7160e01b6000525260246000fd5b346101dc576107e73661267b565b601354929391926001600160a01b031633036101dc579291906000935b82851061080d57005b60059461081e81871b860186612924565b61082883856128a1565b600052602091601683526040600020926001600160401b0383116109505761085084546126cb565b99601f9a8b8111610918575b505060009983116001146108ad5750908060019596979899610895936000926108a2575b50508160011b916000199060031b1c19161790565b90555b0193929190610804565b013590508a80610880565b90601f198316998460005282600020926000905b8c82106109005750508360019798999a9b106108e6575b505050831b83019055610898565b0135600019600384901b60f8161c191690558880806108d8565b806001849682949587013581550195019201906108c1565b610940918660005283600020908d808801821c830193868910610947575b01901c0190612956565b8a8061085c565b93508293610936565b604187634e487b7160e01b6000525260246000fd5b346101dc576109733661267b565b6013546001600160a01b031633036101dc57906000905b80821061099357005b61099d82846128a1565b600052601560205260406000209260005b6109c26109bc858589612bed565b806128c4565b9050811015610a57576109d96109bc858589612bed565b821015610a42576109ee908260051b01612915565b8554600160401b811015610a2d5790610a0f82600180959401895588612c0f565b61ffff9291928084549260031b9316831b921b1916179055016109ae565b604189634e487b7160e01b6000525260246000fd5b603288634e487b7160e01b6000525260246000fd5b50925060019091019061098a565b346101dc5760203660031901126101dc57610a7e61264f565b601354906001600160a01b039033828416036101dc576001600160a01b0319909216911617601355005b346101dc5760003660031901126101dc576020601154604051908152f35b346101dc5760403660031901126101dc57610adf61264f565b610ae7612665565b9060018060a01b038091166000526001602052604060002091166000526020526020604060002054604051908152f35b346101dc5760203660031901126101dc57356000908152600d60209081526040909120546001600160a01b03166040516001600160a01b039091168152f35b346101dc5760403660031901126101dc57610b6f61264f565b60006020604051610b7f81612705565b828152015260018060a01b031660005260096020526040600020602435600052602052610be16040600020600160405191610bb983612705565b8054835201546020820152604051918291829190916020806040830194805184520151910152565b0390f35b346101dc5760403660031901126101dc576001600160a01b03610c0661264f565b16600052600b6020526040600020602435600052602052602060ff604060002054166040519015158152f35b346101dc5760403660031901126101dc576040805163f89212e360e01b81526004359281019283526024356020840152610320929091839183918291010381305afa90811561159d5760226114379261152392610be195600092611570575b5050610c9d8151614e4c565b90610cdc6028604051809467113632bb32b6111d60c11b6020830152610ccc8151809260208686019101612600565b81010360088101855201836127a3565b610ce96080820151614e4c565b90610d6e6037610cfc60a0840151614e4c565b936040519485916616113133911d1160c91b6020840152610d27815180926020602787019101612600565b82016e1116113133a830b632ba3a32911d1160891b6027820152610d55825180936020603685019101612600565b01601160f91b60368201520360178101855201836127a3565b610d7b6020820151614e4c565b90610e3f604b610d8e6040840151614e4c565b93610d9c6060850151614e4c565b60405195869267161132b3b3911d1160c11b6020850152610dc7815180926020602888019101612600565b83016f11161132b3b3a830b632ba3a32911d1160811b6028820152610df6825180936020603885019101612600565b017111161132b3b3a0b734b6b0ba34b7b7111d1160711b6038820152610e26825180936020604a85019101612600565b01601160f91b604a82015203602b8101855201836127a3565b610e4c60e0820151614e4c565b610f8f606c610e5f610100850151614e4c565b92610e6e610140860151614e4c565b6101208601511561156357610e81612bcd565b610e8e60c0880151614e4c565b916040519687946816113137b23c911d1160b91b6020870152610ebb81518092602060298a019101612600565b8501701116113137b23ca830b632ba3a32911d1160791b6029820152610eeb825180936020603a85019101612600565b016f11161132bc383932b9b9b4b7b7111d1160811b603a820152610f19825180936020604a85019101612600565b017011161130b734b6b0ba32a137b23c911d1160791b604a820152610f48825180936020605b85019101612600565b016f11161131b7b637b921bcb1b632911d1160811b605b820152610f76825180936020606b85019101612600565b01601160f91b606b82015203604c8101845201826127a3565b610f9d610160830151614e4c565b611026603b610fb0610180860151614e4c565b9260405193849168161132bcb2b9911d1160b91b6020840152610fdd815180926020602987019101612600565b82017011161132bcb2b9a830b632ba3a32911d1160791b602982015261100d825180936020603a85019101612600565b01601160f91b603a82015203601b8101845201826127a3565b6110346101c0840151614e4c565b6110fb60466110476101e0870151614e4c565b6101a0870151909390156115565761105d612bcd565b6040519485926716113430ba111d1160c11b6020850152611088815180926020602888019101612600565b83016f1116113430ba2830b632ba3a32911d1160811b60288201526110b7825180936020603885019101612600565b016c1116113430ba2137b7b6111d1160991b60388201526110e2825180936020604585019101612600565b01601160f91b60458201520360268101845201826127a3565b611109610220850151614e4c565b916111dd605261111d610240880151614e4c565b6102008801519095901561154957611133612bcd565b6040519687926b161132bcb2bbb2b0b9111d1160a11b6020850152611162815180926020602c88019101612600565b83017311161132bcb2bbb2b0b92830b632ba3a32911d1160611b602c820152611195825180936020604085019101612600565b017011161132bcb2bbb2b0b92137b7b6111d1160791b60408201526111c4825180936020605185019101612600565b01601160f91b60518201520360328101865201846127a3565b6111eb610280860151614e4c565b936112bf60526111ff6102a0890151614e4c565b6102608901519097901561153c57611215612bcd565b6040519889926b161131b637ba3432b9911d1160a11b6020850152611244815180926020602c88019101612600565b83017311161131b637ba3432b9a830b632ba3a32911d1160611b602c820152611277825180936020604085019101612600565b017011161131b637ba3432b9a137b7b6111d1160791b60408201526112a6825180936020605185019101612600565b01601160f91b60518201520360328101885201866127a3565b6113a760566112d26102e0890151614e4c565b6102c06112e36103008b0151614e4c565b9901511561152f576112f3612bcd565b604051998a926e161130b734b6b0ba32b22133911d1160891b6020850152611325815180926020602f88019101612600565b83017f222c22616e696d61746564426750616c65747465223a22000000000000000000602f820152611361825180936020604685019101612600565b016e11161130b734b6b0ba32a133911d1160891b604682015261138e825180936020605585019101612600565b01601160f91b60558201520360368101895201876127a3565b604051967f2c22776562223a2268747470733a2f2f66726f6767692e6e65742f222c0000006020890152601d88526113de88612705565b604051987f226465736372697074696f6e223a2246726f6767692c202466726f6767692e2260208b015260208a526114158a612705565b60216040519e8f809d607b60f81b602083015260208151948593019101612600565b8b0161144d825180936020602185019101612600565b01611462825180936020602185019101612600565b01611477825180936020602185019101612600565b0161148c825180936020602185019101612600565b016114a1825180936020602185019101612600565b016114b6825180936020602185019101612600565b016114cb825180936020602185019101612600565b016114e0825180936020602185019101612600565b016114f5825180936020602185019101612600565b0161150a825180936020602185019101612600565b01607d60f81b60218201520360028101845201826127a3565b60405191829182612623565b611537612bac565b6112f3565b611544612bac565b611215565b611551612bac565b611133565b61155e612bac565b61105d565b61156b612bac565b610e81565b61158f9250803d10611596575b61158781836127a3565b8101906129c2565b8580610c91565b503d61157d565b6040513d6000823e3d90fd5b346101dc5760403660031901126101dc576115cf6115c561264f565b6024359033612de9565b602060405160018152f35b346101dc5760403660031901126101dc576115f361264f565b602435336000526001602052604060002060018060a01b03831660005260205260406000205481811061162d576115cf9350039033612ce7565b60405162461bcd60e51b8152602081860152602560248201527f45524332303a2064656372656173656420616c6c6f77616e63652062656c6f77604482015264207a65726f60d81b6064820152608490fd5b346101dc5760003660031901126101dc576020600f54604051908152f35b346101dc5760203660031901126101dc576001600160a01b036116be61264f565b16600052600e6020526020604060002054604051908152f35b346101dc5760003660031901126101dc57604051906000908054906116fb826126cb565b808552916020916001918281169081156117815750600114611728575b610be186611523818803826127a3565b600090815293507f8a35acfbc15ff81a39ae7d344fd709f28e8600b4aa8c65c6b64bfe7fe36bd19b5b83851061176e5750505050810160200161152382610be185611718565b8054868601840152938201938101611751565b9050869550610be19693506020925061152394915060ff191682840152151560051b820101929385611718565b346101dc5760003660031901126101dc576013546040516001600160a01b039091168152602090f35b346101dc5760003660031901126101dc5760206117f2612b13565b604051908152f35b346101dc5760203660031901126101dc576001600160a01b0361181b61264f565b1660005260006020526020604060002054604051908152f35b346101dc5760003660031901126101dc576020601054604051908152f35b346101dc5760003660031901126101dc576002549067016345785d8a000091820391821161188557602082604051908152f35b601190634e487b7160e01b6000525260246000fd5b346101dc5760403660031901126101dc5761192e6118b88235614e4c565b61190160206118c8602435614e4c565b9260405193816118e18693518092868087019101612600565b82016118f582518093868085019101612600565b010380845201826127a3565b6040519263f89212e360e01b84528380610320948593820190604082019160043581526020602435910152565b0381305afa801561159d57610be19361152393600092611950575b5050613063565b6119669250803d106115965761158781836127a3565b8480611949565b346101dc5760403660031901126101dc576115cf61198961264f565b336000526001602052604060002060018060a01b0382166000526020526119b76024356040600020546128a1565b9033612ce7565b346101dc5760403660031901126101dc57356024356119dc8161296d565b6119e960405191826127a3565b8181526119f58261296d565b6020938285019391601f190136853760005b828110611a5d57505050906040519283926020840190602085525180915260408401929160005b828110611a3d57505050500390f35b83516001600160a01b031685528695509381019392810192600101611a2e565b80611a88611a6d600193856128a1565b6000908152600d60205260409020546001600160a01b031690565b611a9282876129a1565b90838060a01b0316905201611a07565b346101dc5760003660031901126101dc57601354336001600160a01b038216036101dc576001600160a01b0319166013557f6e4ee811a17215345b89e3506064ff2d62f4feedff3566e9d09219cda7e8cadb600080a1005b346101dc5760003660031901126101dc57602060405160098152f35b346101dc5760203660031901126101dc57611b2f61264f565b60006020604051611b3f81612705565b828152015260018060a01b0316600052600c602052610be16040600020600160405191610bb983612705565b346101dc57600319906040368301126101dc576001600160401b0381358181116101dc5760808184019482360301126101dc57601354602491906001600160a01b031633036101dc57813560005260209060178252604060002094611bd08780612924565b8681999299116120e957611be488546126cb565b98601f998a81116120bb575b506000908a831160011461205457611c209291600091836120495750508160011b916000199060031b1c19161790565b87555b600196878101611c3587860184612924565b90898211611f8e57611c4783546126cb565b8c811161201a575b506000908c8311600114611fad57611c7f929160009183611fa25750508160011b916000199060031b1c19161790565b90555b60028101611c936044860184612924565b90898211611f8e57611ca583546126cb565b8c8111611f55575b506000908c8311600114611eda5792611ce883600394611cf4989794606497600092611d925750508160011b916000199060031b1c19161790565b90555b019401906128c4565b959094600160401b8711611ec7578354878555808810611e52575b50859360005284600020936000965b888810611d2757005b611d318183612924565b858193929311611e3e578b9189918e611d4a8b546126cb565b818111611e10575b506000908211600114611d9d579080611d83928697600092611d925750508160011b916000199060031b1c19161790565b89555b01960197019694611d1e565b013590503880610880565b94601f198216958b600052846000209660005b818110611ded5750918697918488959410611dd3575b505050811b018955611d86565b0135600019600384901b60f8161c19169055388080611dc6565b9396839598838894989395013581550195019201918f9592918d95979492611db0565b611e38908c60005285600020600584808701821c8301938988106109475701901c0190612956565b38611d52565b84604188634e487b7160e01b600052526000fd5b8460005288888760002092830192015b828110611e70575050611d0f565b8b611e7b82546126cb565b80611e8b575b5050018990611e62565b818111600114611ea3575050600081555b8b8d611e81565b611ebe6000928484528b8420920160051c8201858301612956565b81835555611e9c565b634e487b7160e01b600090815260418452fd5b908b9291601f19831691856000528a6000209260005b8c828210611f3657505092600395928592611cf49a99966064999610611f1e575b505050811b019055611ceb565b013560001983881b60f8161c191690558f8080611f11565b91929596849587849396013581550195019201908e9594939291611ef0565b611f7f90846000528d8a6000209080860160051c8201928c8710611f85575b0160051c0190612956565b8c611cad565b92508192611f74565b88604187634e487b7160e01b600052526000fd5b013590508d80610880565b908b9291601f19831691856000528a6000209260005b8c828210611ffb5750508411611fe1575b505050811b019055611c82565b0135600019600384901b60f8161c191690558c8080611fd4565b91929596849587849396013581550195019201908e9594939291611fc3565b61204390846000528d8a6000209080860160051c8201928c8710611f85570160051c0190612956565b8c611c4f565b013590508b80610880565b601f198316918a600052876000209260005b898282106120a557505090846001959493921061208b575b505050811b018755611c23565b0135600019600384901b60f8161c191690558a808061207e565b6001849682939587013581550195019201612066565b6120e3908a600052876000208c80860160051c8201928a8710611f85570160051c0190612956565b8a611bf0565b85604184634e487b7160e01b600052526000fd5b346101dc5760603660031901126101dc5761211661264f565b61211e612665565b6044359160018060a01b038116600052600160205260406000203360005260205260406000205493600019850361215b575b506115cf9350612de9565b8385106121795750612173836115cf95033383612ce7565b84612150565b60649060206040519162461bcd60e51b8352820152601d60248201527f45524332303a20696e73756666696369656e7420616c6c6f77616e63650000006044820152fd5b346101dc5760203660031901126101dc576121d661264f565b6001600160a01b037f0000000000000000000000000000000000000000000000000000000000000000811633036101dc57600554918183166101dc576001600160a01b031990921691161760055542600655005b346101dc5760003660031901126101dc576020600254604051908152f35b346101dc5760003660031901126101dc576005546040516001600160a01b039091168152602090f35b346101dc5761227f3661267b565b6013546001600160a01b031633036101dc579060005b81811061229e57005b6122b36122ac828487612869565b35846128a1565b600052602091601483526040600020936000905b6122de6122d585858a612869565b868101906128c4565b90508210156124fc576122f56122d585858a612869565b8310156124e7578260051b81013590607e19813603018212156101dc5701918654600160401b8110156124d25780600161233292018955886128f9565b6124be5761ffff61234285612915565b16908054908261ffff19831617815563ffff00006123618a8801612915565b60101b1691828463ffffffff198316171782556040870135928315158094036101dc576123ae9464ff000000006001958d1b169264ffffffffff1916171717815501936060810190612924565b6001600160401b0381959295116124a9576123c982546126cb565b94601f9586811161247b575b5060009582116001146124125790806001959661240893600092611fa25750508160011b916000199060031b1c19161790565b90555b01906122c7565b601f1982169583600052896000209660005b8b828210612465575050916001969791848895941061244b575b505050811b01905561240b565b0135600019600384901b60f8161c191690558c808061243e565b6001849a82939587013581550199019201612424565b6124a390846000528a6000208880860160051c8201928d8710611f85570160051c0190612956565b8c6123d5565b60418b634e487b7160e01b6000525260246000fd5b60008a634e487b7160e01b82525260246000fd5b60418a634e487b7160e01b6000525260246000fd5b603289634e487b7160e01b6000525260246000fd5b945090925050600101612295565b346101dc5760403660031901126101dc576115cf61252661264f565b6024359033612ce7565b346101dc5760003660031901126101dc57600060035461254f816126cb565b808452906020906001908181169081156125d6575060011461257c575b610be185611523818703826127a3565b6003600090815293507fc2575a0e9e593c00f959f8c92f12db2869c3395a3b0502d05e2516446f71f85b5b8385106125c35750505050810160200161152382610be161256c565b80548686018401529382019381016125a7565b869550610be19693506020925061152394915060ff191682840152151560051b820101929361256c565b60005b8381106126135750506000910152565b8181015183820152602001612603565b604091602082526126438151809281602086015260208686019101612600565b601f01601f1916010190565b600435906001600160a01b03821682036101dc57565b602435906001600160a01b03821682036101dc57565b9060406003198301126101dc576004356001600160401b03928382116101dc57806023830112156101dc5781600401359384116101dc5760248460051b830101116101dc57602401919060243590565b90600182811c921680156126fb575b60208310146126e557565b634e487b7160e01b600052602260045260246000fd5b91607f16916126da565b604081019081106001600160401b0382111761272057604052565b634e487b7160e01b600052604160045260246000fd5b61032081019081106001600160401b0382111761272057604052565b608081019081106001600160401b0382111761272057604052565b602081019081106001600160401b0382111761272057604052565b606081019081106001600160401b0382111761272057604052565b90601f801991011681019081106001600160401b0382111761272057604052565b906040519182600082546127d7816126cb565b908184526020946001916001811690816000146128475750600114612808575b505050612806925003836127a3565b565b600090815285812095935091905b81831061282f57505061280693508201013880806127f7565b85548884018501529485019487945091830191612816565b9250505061280694925060ff191682840152151560051b8201013880806127f7565b919081101561288b5760051b81013590603e19813603018212156101dc570190565b634e487b7160e01b600052603260045260246000fd5b919082018092116128ae57565b634e487b7160e01b600052601160045260246000fd5b903590601e19813603018212156101dc57018035906001600160401b0382116101dc57602001918160051b360383136101dc57565b805482101561288b5760005260206000209060011b0190600090565b3561ffff811681036101dc5790565b903590601e19813603018212156101dc57018035906001600160401b0382116101dc576020019181360383136101dc57565b818110612961575050565b60008155600101612956565b6001600160401b0381116127205760051b60200190565b80511561288b5760200190565b80516001101561288b5760400190565b805182101561288b5760209160051b010190565b519081151582036101dc57565b90816103209103126101dc57604051906129db82612736565b805182526020810151602083015260408101516040830152606081015160608301526080810151608083015260a081015160a083015260c081015160c083015260e081015160e08301526101008082015190830152610120612a3e8183016129b5565b908301526101408082015190830152610160808201519083015261018080820151908301526101a0612a718183016129b5565b908301526101c080820151908301526101e08082015190830152610200612a998183016129b5565b9083015261022080820151908301526102408082015190830152610260612ac18183016129b5565b9083015261028080820151908301526102a080820151908301526102c0612ae98183016129b5565b908301526102e08082015190830152610300809101519082015290565b919082039182116128ae57565b6005546001600160a01b031615612b8557612b3060065442612b06565b67016345785d8a00008181029181830481036128ae576706f05b59d3b200000291808304600514901517156128ae57620186a0652d79883d2000920482018092116128ae57808211612b80575090565b905090565b67016345785d8a000090565b6001600160401b03811161272057601f01601f191660200190565b60405190612bb982612705565b600582526466616c736560d81b6020830152565b60405190612bda82612705565b60048252637472756560e01b6020830152565b919081101561288b5760051b81013590601e19813603018212156101dc570190565b919091805483101561288b57600052601e60206000208360041c019260011b1690565b60405190612c3f82612736565b816103006000918281528260208201528260408201528260608201528260808201528260a08201528260c08201528260e08201528261010082015282610120820152826101408201528261016082015282610180820152826101a0820152826101c0820152826101e08201528261020082015282610220820152826102408201528261026082015282610280820152826102a0820152826102c0820152826102e08201520152565b6001600160a01b03908116918215612d985716918215612d485760207f8c5be1e5ebec7d5bd14f71427d1e84f3dd0314c0f7b2291e5b200ac8c7c3b925918360005260018252604060002085600052825280604060002055604051908152a3565b60405162461bcd60e51b815260206004820152602260248201527f45524332303a20617070726f766520746f20746865207a65726f206164647265604482015261737360f01b6064820152608490fd5b60405162461bcd60e51b8152602060048201526024808201527f45524332303a20617070726f76652066726f6d20746865207a65726f206164646044820152637265737360e01b6064820152608490fd5b6005546001600160a01b039392919084161561303b57612e08816156c8565b612e11836156c8565b90612e1d858585614f70565b612e26836156c8565b90612e30856156c8565b91811580613034575b613026575b8161301d575b5061300f575b811580613008575b612ffa575b81612ff1575b50612fe3575b83821615612edf57838116308114612ed4576007549460ff861615612e8e575050612806935061517f565b60055416809114612ea45750612806935061517f565b92919050612eb0612b13565b82116101dc5760ff19938416600117600755612ecb9261517f565b60075416600755565b50612806935061517f565b9050919091168015612f9457600091818352826020526040832054818110612f4457817fddf252ad1be2c89b69c2b068fc378daa952ba7f163c4a11628f55a4df523b3ef926020928587528684520360408620558060025403600255604051908152a3565b60405162461bcd60e51b815260206004820152602260248201527f45524332303a206275726e20616d6f756e7420657863656564732062616c616e604482015261636560f01b6064820152608490fd5b60405162461bcd60e51b815260206004820152602160248201527f45524332303a206275726e2066726f6d20746865207a65726f206164647265736044820152607360f81b6064820152608490fd5b612fec826157f7565b612e63565b90501538612e5d565b6130038461579d565b612e57565b5080612e52565b613018836157f7565b612e4a565b90501538612e44565b61302f8561579d565b612e3e565b5080612e39565b83601354168085831614908115613057575b50612e6357600080fd5b9050848316143861304d565b90608052604051907f3c73766720786d6c6e733d27687474703a2f2f7777772e77332e6f72672f323060208301527f30302f737667272076696577426f783d2730203020313030203130302720736860408301527f6170652d72656e646572696e673d2763726973704564676573272069643d2766606083015265726f6767692d60d01b6080830152613124608883608051516131098160868401602060805101612600565b810161139f60f11b60868201520360688101855201836127a3565b6102c08101805190919060009015614c5e57506102e08101516103008201519060405161315081612705565b600b815260208101916a616e696d617465642d626760a81b835262015f90018062015f90116128ae57600052601460205260406000209262015f9001908162015f90116128ae57602c6131f3916131d8936000969596526015602052604060002095604051948592691e339031b630b9b99e9160b11b6020850152518092602a850190612600565b810161111f60f11b602a82015203600c8101845201826127a3565b916000918054915b828410614c055750505050613240602460405183613223829551809260208086019101612600565b8101631e17b39f60e11b60208201520360048101845201826127a3565b6102e0820151610300830151906040519061325a82612705565b600b825260208201916a616e696d617465642d626760a81b8352620186a09182018083116128ae57600052601460205260406000209382018092116128ae57602c6132da916131d8936000969596526015602052604060002095604051948592691e339031b630b9b99e9160b11b6020850152518092602a850190612600565b916000918054915b828410614bac575050505060206118f59261335792604051613330602482866133148183019687815193849201612600565b8101631e17b39f60e11b888201520360048101845201826127a3565b60405195836133488895518092888089019101612600565b84019151809386840190612600565b915b5115614b93576060936102e082015162015f90018062015f90116128ae57600052601460205260406000209182546133908161296d565b9361339e60405195866127a3565b818552602085019060005260206000206000915b838310614b6d57505050506000915b6002831015613cf35782613ce7576133e862015f905b62ffffff61030085015191166128a1565b6000526015602052604060002094604051808760208299549384815201906000526020600020926000905b80600f830110613c1d576134a9945491818110613c08575b818110613bf0575b818110613bd9575b818110613bc1575b818110613ba9575b818110613b91575b818110613b79575b818110613b61575b818110613b49575b818110613b31575b818110613b19575b818110613b01575b818110613ae9575b818110613ad1575b818110613ab9575b10613aab575b5003876127a3565b8451966134b58861296d565b976134c3604051998a6127a3565b8089526134d2601f199161296d565b0160005b818110613a9a57505060005b885181101561353e5760019061ffff61350b816020613501858d6129a1565b510151168b6129a1565b5116600052601660205261352260406000206127c4565b61352c828c6129a1565b52613537818b6129a1565b50016134e2565b5093969492919790955061355185612984565b519061355c86612991565b519186516002101561288b5760608701519087516003101561288b5760808801519088516004101561288b5760a089015189516005101561288b5760c08a01518a516006101561288b5760e08b01518b516007101561288b576101008c0151918c516008101561288b576101208d0151938d516009101561288b578d966101408801519751600a101561288b576101608f0151986040519b8c8c819d516020819301916020019161360c92612600565b8c019860208a017f406b65796672616d6573206379636c652d7261696e626f772d00000000000000905260399960805151908b8101826080516020019161365292612600565b01998a01717b30252c313030257b7374726f6b653a202360701b9052604b99815191828c8301916020019161368692612600565b01988901703b7d382e3333257b7374726f6b653a202360781b9052605c98815191828b830191602001916136b992612600565b01978801713b7d31362e3636257b7374726f6b653a202360701b9052606e97815191828a830191602001916136ed92612600565b019687016e3b7d3235257b7374726f6b653a202360881b9052607d9681519182898301916020019161371e92612600565b019586016e3b7d3333257b7374726f6b653a202360881b9052608c9581519182888301916020019161374f92612600565b01948501713b7d34312e3636257b7374726f6b653a202360701b9052609e9481519182878301916020019161378392612600565b019384016e3b7d3530257b7374726f6b653a202360881b905260ad938151918286830191602001916137b492612600565b01928301713b7d35382e3333257b7374726f6b653a202360701b905260bf928151918285830191602001916137e892612600565b01918201713b7d36362e3636257b7374726f6b653a202360701b905260d19181519182848301916020019161381c92612600565b019081016e3b7d3735257b7374726f6b653a202360881b90528151918260e08301916020019161384b92612600565b019060e08201713b7d38332e3333257b7374726f6b653a202360701b905260f29181519182848301916020019161388192612600565b01908101617d7d60f01b90520360d48101825260f4016138a190826127a3565b6040518181925190816020840191602001916138bc92612600565b808201602001672366726f6767692d60c01b9052608051519080830160280182608051602001916138ec92612600565b820101602881017f202e616e696d617465642d626720706174687b616e696d6174696f6e3a6379639052604881016a6c652d7261696e626f772d60a81b90526053906080515190828101826080516020019161394792612600565b019081017f20327320737465702d737461727420696e66696e6974653b7d00000000000000905203604c81018252606c0161398290826127a3565b966000975b8551891015613a8857600190613a80605d6139a28c8a6129a1565b51926139ad8d614e4c565b9362733b7d60e81b60405195836139ce889551809260208089019101612600565b8401672366726f6767692d60c01b602082015260805151906139f98260288301602060805101612600565b01927f202e616e696d617465642d626720706174685b7374726f6b653d2223000000006028850152604493613a378251809360208885019101612600565b019275112ebdb0b734b6b0ba34b7b716b232b630bc9d10169760511b90840152605a92613a6d8251809360208785019101612600565b019182015203603d8101845201826127a3565b980197613987565b975092959193506001909101916133c1565b806060602080938d010152016134d6565b60f01c8152602001386134a1565b92602060019161ffff8560e01c16815201930161349b565b92602060019161ffff8560d01c168152019301613493565b92602060019161ffff8560c01c16815201930161348b565b92602060019161ffff8560b01c168152019301613483565b92602060019161ffff8560a01c16815201930161347b565b92602060019161ffff8560901c168152019301613473565b92602060019161ffff8560801c16815201930161346b565b92602060019161ffff8560701c168152019301613463565b92602060019161ffff8560601c16815201930161345b565b92602060019161ffff8560501c168152019301613453565b92602060019161ffff8560401c16815201930161344b565b92602060019161ffff8560301c168152019301613443565b92602060019161ffff85831c16815201930161343b565b92602060019161ffff8560101c168152019301613433565b92602060019161ffff8516815201930161342b565b916010919350610200600191865461ffff80821683528082871c166020840152808260201c166040840152808260301c166060840152808260401c1660808401528160a0828260501c1681860152828260c0828260601c1681890152828260e095828260701c16878c0152828260801c166101008c0152828260901c166101208c01521c16610140890152828260b01c166101608901521c16610180860152828260d01c166101a08601521c166101c083015260f01c6101e0820152019401920189929391613413565b6133e8620186a06133d7565b95939493925090505b613d25602060405184613d188296518092858086019101612600565b81010380855201836127a3565b80516001106141545760405190613d3b82612788565b6002825260005b60408110614122575060c081015160005260176020526040600020604051613d6981612752565b613d72826127c4565b8152613d80600183016127c4565b6020820152613d91600283016127c4565b604082015260038092018054613da68161296d565b91613db460405193846127a3565b818352602083019060005260206000206000915b83831061410557505050506060820152613de184612984565b52613deb83612984565b50606082015160005260176020526040600020600360405191613e0d83612752565b613e16816127c4565b8352613e24600182016127c4565b6020840152613e35600282016127c4565b6040840152018054613e468161296d565b91613e5460405193846127a3565b818352602083019060005260206000206000915b8383106140e857505050506060820152613e8184612991565b52613e8b83612991565b506040602083015192015160405192613ea384612705565b6003845260208401936265676760e81b8552614e209182018083116128ae57600052601460205260406000209282018092116128ae57602c613f1b916131d893600097969597526015602052604060002095604051948592691e339031b630b9b99e9160b11b6020850152518092602a850190612600565b926000928154925b838510614024575050505050916140219391603593613f8060405192613f776024856020613f5a8183019788815193849201612600565b8101631e17b39f60e11b60208201520360048101875201856127a3565b608051906152f6565b91613fc16040519886613f9d8b985180926020808c019101612600565b8701613fb28251809360208085019101612600565b01915180936020840190612600565b01661e39ba3cb6329f60c91b6020820152613fe6825180936020602785019101612600565b01613ffb825180936020602785019101612600565b016d1e17b9ba3cb6329f1e17b9bb339f60911b60278201520360158101845201826127a3565b90565b909192939460019060ff61403888876128f9565b505460201c16156140a95761409d60206118c861405e6140588b8a6128f9565b50615297565b6140688b8a6128f9565b5061407c61ffff80925460101c168a612c0f565b905490891b1c166000526016835261409760406000206127c4565b90615ee9565b955b0193929190613f23565b6140e260206118c86140be6140588b8a6128f9565b61ffff6140cb8c8b6128f9565b5054166000526016835261409760406000206127c4565b9561409f565b6001602081926140f7856127c4565b815201920192019190613e68565b600160208192614114856127c4565b815201920192019190613dc8565b60209060405161413181612752565b606081526060838201526060604082015260608082015282828601015201613d42565b60409392935161416381612705565b6001815260005b60208110614b3b575060c08201516000526017602052604060002060036040519161419483612752565b61419d816127c4565b83526141ab600182016127c4565b60208401526141bc600282016127c4565b60408401520180546141cd8161296d565b916141db60405193846127a3565b818352602083019060005260206000206000915b838310614b1e5750505050606082015261420882612984565b5261421281612984565b5060e0820151610100830151906040519061422c82612705565b6004825263626f647960e01b60208301526175300180617530116128ae5760005260146020526040600020918061753001617530116128ae576175309291920160005260156020526040600020916142c8602c6040518093691e339031b630b9b99e9160b11b60208301526142ab815180926020602a86019101612600565b61111f60f11b602a8284010152810103600c8101845201826127a3565b916000918054915b828410614ac5575050505061431b6024604051836142f8829551809260208086019101612600565b631e17b39f60e11b602082840101526004828281010301825281010301826127a3565b610140830151610100840151906040519061433582612705565b600a82526932bc383932b9b9b4b7b760b11b602083015280619c4001619c40116128ae57619c4001600052601460205260406000209180619c4001619c40116128ae57619c409291920160005260156020526040600020916143be602c6040518093691e339031b630b9b99e9160b11b60208301526131d8815180926020602a86019101612600565b916000918054915b828410614a5557505050506143ee602460405183613223829551809260208086019101612600565b61016084015190610180850151916040519061440982612705565b60048252636579657360e01b60208301528061c3500161c350116128ae5761c3500160005260146020526040600020928061c3500161c350116128ae5761c35093919301600052601560205260406000209261448c602c6040518093691e339031b630b9b99e9160b11b60208301526131d8815180926020602a86019101612600565b926000918054915b8284106149e557505050506144d96024604051846144bc829651809260208086019101612600565b8101631e17b39f60e11b60208201520360048101855201836127a3565b6101c0850151926101e086015193604051906144f482612705565b60038252621a185d60ea1b60208301528061ea600161ea60116128ae5761ea600160005260146020526040600020948061ea600161ea60116128ae5761ea60959195016000526015602052604060002094614576602c6040518093691e339031b630b9b99e9160b11b60208301526131d8815180926020602a86019101612600565b946000918054915b82841061497b57505050506145a6602460405186613f5a829851809260208086019101612600565b6102208601519461024087015195604051906145c182612705565b600782526632bcb2bbb2b0b960c91b602083015280620111700162011170116128ae576201117001600052601460205260406000209680620111700162011170116128ae576201117097919701600052601560205260406000209661464d602c6040518093691e339031b630b9b99e9160b11b60208301526131d8815180926020602a86019101612600565b966000918054915b828410614917575050505061469a60246040518861467d829a51809260208086019101612600565b8101631e17b39f60e11b60208201520360048101895201876127a3565b610280870151966102a081015197604051906146b582612705565b6007825266636c6f7468657360c81b602083015280620138800162013880116128ae576201388001600052601460205260406000209880620138800162013880116128ae5762013880999199016000526015602052604060002098614741602c6040518093691e339031b630b9b99e9160b11b60208301526131d8815180926020602a86019101612600565b986000918054915b82841061487457505050509260359895926147d09b9895926101206140219c99966147a460246040518b614787829d51809260208086019101612600565b8101631e17b39f60e11b602082015203600481018c52018a6127a3565b01511561485d576080516147b7916152f6565b975b60206040519d8e8c83829e51948593019101612600565b8a016147e58251809360208085019101612600565b016147f98251809360208085019101612600565b0161480d8251809360208085019101612600565b016148218251809360208085019101612600565b016148358251809360208085019101612600565b016148498251809360208085019101612600565b01613fc18251809360208085019101612600565b5060405161486a8161276d565b60008152976147b9565b9091929a6001908c60ff61488882876128f9565b505460201c16156148ee5760206118c8826148b36148ac6140586148e3968b6128f9565b91896128f9565b506148c761ffff80925460101c1689612c0f565b90549060031b1c166000526016835261409760406000206127c4565b9b5b01929190614749565b60206118c88261ffff6140cb61490a614058614911978c6128f9565b928a6128f9565b9b6148e5565b9091929860019060ff61492a8c866128f9565b505460201c16156149595761494e60206118c88d6148b36148ac614058838b6128f9565b995b01929190614655565b61497560206118c88d61ffff6140cb61490a614058848c6128f9565b99614950565b9091929660019060ff61498e8a866128f9565b505460201c16156149c3576149b860206118c86149ae6140588d896128f9565b6148b38d896128f9565b975b0192919061457e565b6149df60206118c88b61ffff6140cb61490a614058848c6128f9565b976149ba565b9091929460019060ff6149f888866128f9565b505460201c1615614a2d57614a2260206118c8614a186140588b896128f9565b6148b38b896128f9565b955b01929190614494565b614a4f60206118c8614a426140588b896128f9565b61ffff6140cb8c8a6128f9565b95614a24565b9091929360019060ff614a6887866128f9565b505460201c1615614a9d57614a9260206118c8614a886140588a896128f9565b6148b38a896128f9565b945b019291906143c6565b614abf60206118c8614ab26140588a896128f9565b61ffff6140cb8b8a6128f9565b94614a94565b9091929360019060ff614ad887866128f9565b505460201c1615614b0357614af860206118c8614a886140588a896128f9565b945b019291906142d0565b614b1860206118c8614ab26140588a896128f9565b94614afa565b600160208192614b2d856127c4565b8152019201920191906141ef565b602090604051614b4a81612752565b60608152606083820152606060408201526060808201528282850101520161416a565b60026020600192614b81859b989a9b615297565b815201920192019190969593966133b2565b604092919251614ba28161276d565b6000815290613cfc565b9091929360019060ff614bbf87866128f9565b505460201c1615614bea57614bdf60206118c8614a886140588a896128f9565b945b019291906132e2565b614bff60206118c8614ab26140588a896128f9565b94614be1565b9091929360019060ff614c1887866128f9565b505460201c1615614c4357614c3860206118c8614a886140588a896128f9565b945b019291906131fb565b614c5860206118c8614ab26140588a896128f9565b94614c3a565b608082015160a0830151604051614c7481612705565b60028152602081019261626760f01b8452612710908101808211614e29578552601460205260408520928101809111614e1557602c6131d892614ce692879695975260156020526040862094604051948592691e339031b630b9b99e9160b11b6020850152518092602a850190612600565b92828154925b838510614d60575050505050614d5a6020614d4d9260405190614d3b60248385614d1f8183019586815193849201612600565b8101631e17b39f60e11b878201520360048101855201836127a3565b60405194859251809285850190612600565b81010380845201826127a3565b91613359565b909192939460019060ff614d7488876128f9565b505460201c1615614dd857614dcc60206118c8614d946140588b8a6128f9565b614d9e8b8a6128f9565b50614db261ffff80925460101c1689612c0f565b90549060031b1c16885260168352614097604089206127c4565b955b0193929190614cec565b614e0f60206118c8614ded6140588b8a6128f9565b61ffff614dfa8c8b6128f9565b505416885260168352614097604089206127c4565b95614dce565b634e487b7160e01b85526011600452602485fd5b634e487b7160e01b86526011600452602486fd5b60001981146128ae5760010190565b8015614ef357600081805b614edf5750614e6581612b91565b90614e7360405192836127a3565b808252601f19614e8282612b91565b013660208401375b80928015614ed85760001982019182116128ae578193600a9260309084840682018092116128ae578551111561288b5760f81b6001600160f81b03191660001a908401601f01530491614e8a565b5050905090565b90614eeb600a91614e3d565b910480614e57565b50604051614f0081612705565b60018152600360fc1b602082015290565b516103e88110614f6a57610bb88110614f64576127108110614f5e576175308110614f585761ea608110614f52576201d4c011614f4d57600690565b600590565b50600490565b50600390565b50600290565b50600190565b50600090565b916001600160a01b03919082841630811461517857633b9aca0090818304948515158061516a575b8061515a575b614fdd575b50614fd8926128069692614fd292600052600060205280614fca6040600020549384612b06565b049104612b06565b906158ab565b615d3d565b600090828252602091600c83526040908882822054148061513b575b6150e157848152600b8452818120898252845260ff8282205416806150c2575b61502557505050614fa3565b6150969296507ff812986a5595e9c800cf9827b7640776492182d291a381e643e11eeef74fe70697955098818a866150bd979b94969c5260098c52818120600a8d528282208583528d528282205482528c522099600185519b6150878d612705565b80548d520154908b0152615c03565b6150a08784615b5a565b519283921695829190916020806040830194805184520151910152565b0390a3565b508288168152600b8452818120898252845260ff828220541615615019565b6150969296507ff812986a5595e9c800cf9827b7640776492182d291a381e643e11eeef74fe70697955098818a866150bd979b94969c52600c8c522099600185519b61512c8d612705565b80548d520154908b01526158ab565b508288168152600b8452818120898252845260ff828220541615614ff9565b5080600554168186161415614f9e565b508060055416821415614f98565b5050505050565b6001600160a01b03908116918215615244576000938385528460205260408520548181106151f0577fddf252ad1be2c89b69c2b068fc378daa952ba7f163c4a11628f55a4df523b3ef9360209383604093888a528987520383892055169586815220818154019055604051908152a3565b60405162461bcd60e51b815260206004820152602660248201527f45524332303a207472616e7366657220616d6f756e7420657863656564732062604482015265616c616e636560d01b6064820152608490fd5b60405162461bcd60e51b815260206004820152602560248201527f45524332303a207472616e736665722066726f6d20746865207a65726f206164604482015264647265737360d81b6064820152608490fd5b906040516152a481612752565b60606152d46001839560ff815461ffff80821688528160101c16602088015260201c1615156040860152016127c4565b910152565b604051906152e682612705565b60018252600b60fa1b6020830152565b90604051600081526153078161276d565b91604051600081526153188161276d565b916040516b3d9030b734b6b0ba34b7b71d60a11b6020820152600c815261533e81612705565b926000945b835186101561563b5761540e6030602d60f81b9260206153638a896129a1565b510151607d60f81b6153758b8a6129a1565b5151604051968461539089965180926020808a019101612600565b8501936b0102035b2bcb33930b6b2b9960a51b6020860152602c946153be8251809360208985019101612600565b019384015261207b60f01b602d938a51906153e0828d60208985019101612600565b0193840152602f926153fb8251809360208785019101612600565b01918201520360108101845201826127a3565b906000905b6060908161542189886129a1565b5101515183101561552057906154f56001928415801590615517575b156154fd576154628561544e6152d9565b945b61545a8d8c6129a1565b5101516129a1565b5190604051938161547d869351809260208087019101612600565b82016154928251809360208085019101612600565b0191602360f81b60208401526666726f6767692d60c81b602184015261101760f11b6028938a51906154cb828d60208985019101612600565b0193840152602a926154e68251809360208785019101612600565b0103600a8101845201826127a3565b910190615413565b6154628560405161550d8161276d565b6000815294615450565b5089151561543d565b9297969590506001915061560a602061553988886129a1565b51015191604061554989896129a1565b51015190881580615631575b15615613576155626152d9565b6820696e66696e69746560b81b6040519583615588889551809260208089019101612600565b840161559d8251809360208085019101612600565b0193602d60f81b6020860152600160fd1b8a6021966155c58251809360208b85019101612600565b01958601526022946155e08251809360208985019101612600565b0193840152602b926155fb8251809360208785019101612600565b0103600b8101845201826127a3565b94019495615343565b60405161561f81612705565b858152603b60f81b6020820152615562565b5084885111615555565b9150935060419150614021926040519482615660879451809260208088019101612600565b83016156758251809360208085019101612600565b016156898251809360208085019101612600565b017f7472616e73666f726d2d6f726967696e3a20626f74746f6d2063656e7465723b6020820152607d60f81b60408201520360218101845201826127a3565b6001600160a01b03908116919030831490811561578f575b508015615787575b61578157600091808352600c60205260408320546040519163fb700e5b60e01b83526004830152602082602481305afa918215615776578492615737575b506157329293506128a1565b151590565b9091506020813d60201161576e575b81615753602093836127a3565b8101031261576a5761573292935051908392615726565b8380fd5b3d9150615746565b6040513d86823e3d90fd5b60009150565b5081156156e8565b9050600554168214386156e0565b6157e590601054600052600d60205260406000209060018060a01b031690816001600160601b0360a01b82541617905560105490600052600e60205280604060002055614e3d565b601055565b80156128ae576000190190565b60105480156158a7576001600160a01b039182166000818152600e602052604080822054909491939091906000198101908111614e1557808303615870575b5050506158446010546157ea565b6010558152600e60205280828120556010548152600d602052206001600160601b0360a01b8154169055565b8452600d6020528484205416818452848420816001600160601b0360a01b8254161790558352600e60205283832055388080615836565b5050565b91908015615b55576005546001600160a01b038481169291168214615b4f576000828152600c6020818152604093848420978551916158e983612705565b895483526001809a015484840152878652848452868620805482811015615abd5750508786528484528686205461591f91612b06565b908786528484528587812055615943615939601254614e3d565b8060125582615e82565b8887528585526001888820015560088452868620549980879b88925b615a79575b505050918187969492938b6159de9997957fd9ce8cf3b6090f5cee32f81d4e7fc62d1b356567f2d54d0ec856bfa018f4cfaf9b9c9d11615a2c575b5050508051151580615a1b575b615a08575b5115806159f6575b6159e3575b878352522090518154815260019091015460208201529081906040820190565b0390a2565b6159ee601154614e3d565b6011556159be565b508783528181528383205415156159b9565b615a136011546157ea565b6011556159b1565b5088845282825284842054156159ac565b615a6492615a3991612b06565b8b8752858552615a4d8888209182546128a1565b9055615a5a601254614e3d565b9081601255615e82565b8985528383526001868620015538808061599f565b90919b818d1080615ab4575b15615aae57615aa0615aa691615a9a86615eae565b906128a1565b9c614e3d565b91908161595f565b9b615964565b50848110615a85565b7fd9ce8cf3b6090f5cee32f81d4e7fc62d1b356567f2d54d0ec856bfa018f4cfaf999a9b5092615afb91615a4d8a999795946159de9b999795612b06565b908985528383528585209160018301555115159081615b45575b50615b3a57878352522090518154815260019091015460208201529081906040820190565b6159ee6011546157ea565b9050541538615b15565b50509050565b509050565b6005546001600160a01b0391821692911682146158a757600090828252602060088152604093848420615b8d8154614e3d565b9055615b9a600f54614e3d565b600f5580845260088252848420546000198101908111614e155781855260098352858520818652835285852084518155600184860151910155818552600a8352858520845186528352858520558352600b8152838320915183525220600160ff19825416179055565b6005546001600160a01b03918216911681146158a757600190600092818452602060088152604092838620615c3881546157ea565b9055615c45600f546157ea565b600f55808652600b8252838620838752825283862060ff198154169055808652600882528386205492600a83528487209087528252838620548187526009835284872081885283528487209086865192615c9e84612705565b80548452015484830152848103615cdc575b50818752600a835284872090518752825285848120558552600981528285209185525282208281550155565b82885260098452858820858952845285882087875191615cfb83612705565b805483520154858201908152848a5260098652878a20838b52865288888b20918351835551910155838952600a85528689209051895284528588205538615cb0565b9080156158a7576005546001600160a01b038381169391168314615e2c57615dc76159de917f675b60f2c6359bc06657e4dab2068c3b994cc7a3fe5f4eb8343475fcc1fd08b793600090868252600c6020526040938493848420926001865194615da686612705565b8054865201546020850152898552600c602052615a4d8686209182546128a1565b90878352600c60205283832091600183015551159081615e21575b50615e0e575b858152600c60205220905191829182919091602060016040830194805484520154910152565b615e19601154614e3d565b601155615de8565b905054151538615de2565b505050565b615e4e81516020830190815191615e4783614e3d565b90526128a1565b6000198101919082116128ae57604001516040519060208201928352604082015260408152615e7c81612788565b51902090565b906040519060208201926001600160601b03199060601b168352603482015260348152615e7c81612788565b6001600160a01b03811660009081526008602052604081205415612b8057604061402191600960205281812081805260205220548092615c03565b60376060614021920151926040519384916e3c70617468207374726f6b653d272360881b6020840152615f26815180926020602f87019101612600565b8201642720643d2760d81b602f820152615f4a825180936020603485019101612600565b016213979f60e91b60348201520360178101845201826127a356fea26469706673582212202adf5a0dd42f812cde6cc3583f434e653cd229ab524ad153cf6f1939adb69e2864736f6c63430008180033",
  "linkReferences": {},
  "deployedLinkReferences": {}
}