{
  "_format": "hh-sol-artifact-1",
  "contractName": "Fungi",
  "sourceName": "contracts/token/Fungi.sol",
  "abi": [
    {
      "inputs": [],
      "stateMutability": "nonpayable",
      "type": "constructor"
    },
    {
      "inputs": [],
      "name": "ReentrancyGuardReentrantCall",
      "type": "error"
    },
    {
      "anonymous": false,
      "inputs": [
        {
          "indexed": true,
          "internalType": "address",
          "name": "owner",
          "type": "address"
        },
        {
          "indexed": true,
          "internalType": "address",
          "name": "spender",
          "type": "address"
        },
        {
          "indexed": false,
          "internalType": "uint256",
          "name": "value",
          "type": "uint256"
        }
      ],
      "name": "Approval",
      "type": "event"
    },
    {
      "anonymous": false,
      "inputs": [
        {
          "indexed": true,
          "internalType": "address",
          "name": "holder",
          "type": "address"
        },
        {
          "components": [
            {
              "internalType": "uint256",
              "name": "seed",
              "type": "uint256"
            },
            {
              "internalType": "uint256",
              "name": "extra",
              "type": "uint256"
            }
          ],
          "indexed": false,
          "internalType": "struct SeedData",
          "name": "seed_data",
          "type": "tuple"
        }
      ],
      "name": "OnDynamicInscriptionAdd",
      "type": "event"
    },
    {
      "anonymous": false,
      "inputs": [
        {
          "indexed": true,
          "internalType": "address",
          "name": "holder",
          "type": "address"
        },
        {
          "components": [
            {
              "internalType": "uint256",
              "name": "seed",
              "type": "uint256"
            },
            {
              "internalType": "uint256",
              "name": "extra",
              "type": "uint256"
            }
          ],
          "indexed": false,
          "internalType": "struct SeedData",
          "name": "seed_data",
          "type": "tuple"
        }
      ],
      "name": "OnDynamicInscriptionRemove",
      "type": "event"
    },
    {
      "anonymous": false,
      "inputs": [
        {
          "indexed": true,
          "internalType": "address",
          "name": "from",
          "type": "address"
        },
        {
          "indexed": true,
          "internalType": "address",
          "name": "to",
          "type": "address"
        },
        {
          "components": [
            {
              "internalType": "uint256",
              "name": "seed",
              "type": "uint256"
            },
            {
              "internalType": "uint256",
              "name": "extra",
              "type": "uint256"
            }
          ],
          "indexed": false,
          "internalType": "struct SeedData",
          "name": "seed_data",
          "type": "tuple"
        }
      ],
      "name": "OnInscriptionTransfer",
      "type": "event"
    },
    {
      "anonymous": false,
      "inputs": [],
      "name": "RenounceOwnership",
      "type": "event"
    },
    {
      "anonymous": false,
      "inputs": [
        {
          "indexed": true,
          "internalType": "address",
          "name": "from",
          "type": "address"
        },
        {
          "indexed": true,
          "internalType": "address",
          "name": "to",
          "type": "address"
        },
        {
          "indexed": false,
          "internalType": "uint256",
          "name": "value",
          "type": "uint256"
        }
      ],
      "name": "Transfer",
      "type": "event"
    },
    {
      "inputs": [
        {
          "internalType": "address",
          "name": "owner",
          "type": "address"
        },
        {
          "internalType": "address",
          "name": "spender",
          "type": "address"
        }
      ],
      "name": "allowance",
      "outputs": [
        {
          "internalType": "uint256",
          "name": "",
          "type": "uint256"
        }
      ],
      "stateMutability": "view",
      "type": "function"
    },
    {
      "inputs": [
        {
          "internalType": "address",
          "name": "spender",
          "type": "address"
        },
        {
          "internalType": "uint256",
          "name": "amount",
          "type": "uint256"
        }
      ],
      "name": "approve",
      "outputs": [
        {
          "internalType": "bool",
          "name": "",
          "type": "bool"
        }
      ],
      "stateMutability": "nonpayable",
      "type": "function"
    },
    {
      "inputs": [
        {
          "internalType": "address",
          "name": "account",
          "type": "address"
        }
      ],
      "name": "balanceOf",
      "outputs": [
        {
          "internalType": "uint256",
          "name": "",
          "type": "uint256"
        }
      ],
      "stateMutability": "view",
      "type": "function"
    },
    {
      "inputs": [],
      "name": "burnCount",
      "outputs": [
        {
          "internalType": "uint256",
          "name": "",
          "type": "uint256"
        }
      ],
      "stateMutability": "view",
      "type": "function"
    },
    {
      "inputs": [],
      "name": "decimals",
      "outputs": [
        {
          "internalType": "uint8",
          "name": "",
          "type": "uint8"
        }
      ],
      "stateMutability": "pure",
      "type": "function"
    },
    {
      "inputs": [
        {
          "internalType": "address",
          "name": "spender",
          "type": "address"
        },
        {
          "internalType": "uint256",
          "name": "subtractedValue",
          "type": "uint256"
        }
      ],
      "name": "decreaseAllowance",
      "outputs": [
        {
          "internalType": "bool",
          "name": "",
          "type": "bool"
        }
      ],
      "stateMutability": "nonpayable",
      "type": "function"
    },
    {
      "inputs": [
        {
          "internalType": "address",
          "name": "owner",
          "type": "address"
        }
      ],
      "name": "dynamicInscription",
      "outputs": [
        {
          "components": [
            {
              "internalType": "uint256",
              "name": "seed",
              "type": "uint256"
            },
            {
              "internalType": "uint256",
              "name": "extra",
              "type": "uint256"
            }
          ],
          "internalType": "struct SeedData",
          "name": "data",
          "type": "tuple"
        }
      ],
      "stateMutability": "view",
      "type": "function"
    },
    {
      "inputs": [],
      "name": "dynamicInscriptionTotalCount",
      "outputs": [
        {
          "internalType": "uint256",
          "name": "",
          "type": "uint256"
        }
      ],
      "stateMutability": "view",
      "type": "function"
    },
    {
      "inputs": [
        {
          "components": [
            {
              "internalType": "uint256",
              "name": "seed",
              "type": "uint256"
            },
            {
              "internalType": "uint256",
              "name": "extra",
              "type": "uint256"
            }
          ],
          "internalType": "struct SeedData",
          "name": "seed_data",
          "type": "tuple"
        }
      ],
      "name": "getFrog",
      "outputs": [
        {
          "components": [
            {
              "internalType": "uint256",
              "name": "lvl",
              "type": "uint256"
            },
            {
              "internalType": "uint256",
              "name": "egg",
              "type": "uint256"
            },
            {
              "internalType": "uint256",
              "name": "eggPalette",
              "type": "uint256"
            },
            {
              "internalType": "uint256",
              "name": "eggAnimation",
              "type": "uint256"
            },
            {
              "internalType": "uint256",
              "name": "background",
              "type": "uint256"
            },
            {
              "internalType": "uint256",
              "name": "backgroundPalette",
              "type": "uint256"
            },
            {
              "internalType": "uint256",
              "name": "body",
              "type": "uint256"
            },
            {
              "internalType": "uint256",
              "name": "bodyPalette",
              "type": "uint256"
            },
            {
              "internalType": "bool",
              "name": "bodyAnimationBool",
              "type": "bool"
            },
            {
              "internalType": "uint256",
              "name": "expression",
              "type": "uint256"
            },
            {
              "internalType": "uint256",
              "name": "eyes",
              "type": "uint256"
            },
            {
              "internalType": "uint256",
              "name": "eyesPalette",
              "type": "uint256"
            },
            {
              "internalType": "bool",
              "name": "hatBool",
              "type": "bool"
            },
            {
              "internalType": "uint256",
              "name": "hat",
              "type": "uint256"
            },
            {
              "internalType": "uint256",
              "name": "hatPalette",
              "type": "uint256"
            },
            {
              "internalType": "bool",
              "name": "eyewearBool",
              "type": "bool"
            },
            {
              "internalType": "uint256",
              "name": "eyewear",
              "type": "uint256"
            },
            {
              "internalType": "uint256",
              "name": "eyewearPalette",
              "type": "uint256"
            },
            {
              "internalType": "bool",
              "name": "clothesBool",
              "type": "bool"
            },
            {
              "internalType": "uint256",
              "name": "clothes",
              "type": "uint256"
            },
            {
              "internalType": "uint256",
              "name": "clothesPalette",
              "type": "uint256"
            },
            {
              "internalType": "bool",
              "name": "animatedBackgroundBool",
              "type": "bool"
            },
            {
              "internalType": "uint256",
              "name": "animatedBackground",
              "type": "uint256"
            },
            {
              "internalType": "uint256",
              "name": "animatedBackgroundPalette",
              "type": "uint256"
            }
          ],
          "internalType": "struct FrogData",
          "name": "",
          "type": "tuple"
        }
      ],
      "stateMutability": "pure",
      "type": "function"
    },
    {
      "inputs": [
        {
          "internalType": "uint256",
          "name": "index",
          "type": "uint256"
        }
      ],
      "name": "getHolderByIndex",
      "outputs": [
        {
          "internalType": "address",
          "name": "",
          "type": "address"
        }
      ],
      "stateMutability": "view",
      "type": "function"
    },
    {
      "inputs": [
        {
          "internalType": "address",
          "name": "account",
          "type": "address"
        }
      ],
      "name": "getHolderIndex",
      "outputs": [
        {
          "internalType": "uint256",
          "name": "",
          "type": "uint256"
        }
      ],
      "stateMutability": "view",
      "type": "function"
    },
    {
      "inputs": [
        {
          "internalType": "uint256",
          "name": "startIndex",
          "type": "uint256"
        },
        {
          "internalType": "uint256",
          "name": "count",
          "type": "uint256"
        }
      ],
      "name": "getHoldersList",
      "outputs": [
        {
          "internalType": "address[]",
          "name": "",
          "type": "address[]"
        }
      ],
      "stateMutability": "view",
      "type": "function"
    },
    {
      "inputs": [
        {
          "components": [
            {
              "internalType": "uint256",
              "name": "seed",
              "type": "uint256"
            },
            {
              "internalType": "uint256",
              "name": "extra",
              "type": "uint256"
            }
          ],
          "internalType": "struct SeedData",
          "name": "seed_data",
          "type": "tuple"
        }
      ],
      "name": "getMeta",
      "outputs": [
        {
          "internalType": "string",
          "name": "",
          "type": "string"
        }
      ],
      "stateMutability": "view",
      "type": "function"
    },
    {
      "inputs": [
        {
          "components": [
            {
              "internalType": "uint256",
              "name": "seed",
              "type": "uint256"
            },
            {
              "internalType": "uint256",
              "name": "extra",
              "type": "uint256"
            }
          ],
          "internalType": "struct SeedData",
          "name": "seed_data",
          "type": "tuple"
        }
      ],
      "name": "getSvg",
      "outputs": [
        {
          "internalType": "string",
          "name": "",
          "type": "string"
        }
      ],
      "stateMutability": "view",
      "type": "function"
    },
    {
      "inputs": [
        {
          "components": [
            {
              "internalType": "uint256",
              "name": "lvl",
              "type": "uint256"
            },
            {
              "internalType": "uint256",
              "name": "egg",
              "type": "uint256"
            },
            {
              "internalType": "uint256",
              "name": "eggPalette",
              "type": "uint256"
            },
            {
              "internalType": "uint256",
              "name": "eggAnimation",
              "type": "uint256"
            },
            {
              "internalType": "uint256",
              "name": "background",
              "type": "uint256"
            },
            {
              "internalType": "uint256",
              "name": "backgroundPalette",
              "type": "uint256"
            },
            {
              "internalType": "uint256",
              "name": "body",
              "type": "uint256"
            },
            {
              "internalType": "uint256",
              "name": "bodyPalette",
              "type": "uint256"
            },
            {
              "internalType": "bool",
              "name": "bodyAnimationBool",
              "type": "bool"
            },
            {
              "internalType": "uint256",
              "name": "expression",
              "type": "uint256"
            },
            {
              "internalType": "uint256",
              "name": "eyes",
              "type": "uint256"
            },
            {
              "internalType": "uint256",
              "name": "eyesPalette",
              "type": "uint256"
            },
            {
              "internalType": "bool",
              "name": "hatBool",
              "type": "bool"
            },
            {
              "internalType": "uint256",
              "name": "hat",
              "type": "uint256"
            },
            {
              "internalType": "uint256",
              "name": "hatPalette",
              "type": "uint256"
            },
            {
              "internalType": "bool",
              "name": "eyewearBool",
              "type": "bool"
            },
            {
              "internalType": "uint256",
              "name": "eyewear",
              "type": "uint256"
            },
            {
              "internalType": "uint256",
              "name": "eyewearPalette",
              "type": "uint256"
            },
            {
              "internalType": "bool",
              "name": "clothesBool",
              "type": "bool"
            },
            {
              "internalType": "uint256",
              "name": "clothes",
              "type": "uint256"
            },
            {
              "internalType": "uint256",
              "name": "clothesPalette",
              "type": "uint256"
            },
            {
              "internalType": "bool",
              "name": "animatedBackgroundBool",
              "type": "bool"
            },
            {
              "internalType": "uint256",
              "name": "animatedBackground",
              "type": "uint256"
            },
            {
              "internalType": "uint256",
              "name": "animatedBackgroundPalette",
              "type": "uint256"
            }
          ],
          "internalType": "struct FrogData",
          "name": "frog_data",
          "type": "tuple"
        },
        {
          "internalType": "string",
          "name": "uuid",
          "type": "string"
        }
      ],
      "name": "getSvgDEBUG",
      "outputs": [
        {
          "internalType": "string",
          "name": "",
          "type": "string"
        }
      ],
      "stateMutability": "view",
      "type": "function"
    },
    {
      "inputs": [],
      "name": "holdersCount",
      "outputs": [
        {
          "internalType": "uint256",
          "name": "",
          "type": "uint256"
        }
      ],
      "stateMutability": "view",
      "type": "function"
    },
    {
      "inputs": [
        {
          "internalType": "address",
          "name": "spender",
          "type": "address"
        },
        {
          "internalType": "uint256",
          "name": "addedValue",
          "type": "uint256"
        }
      ],
      "name": "increaseAllowance",
      "outputs": [
        {
          "internalType": "bool",
          "name": "",
          "type": "bool"
        }
      ],
      "stateMutability": "nonpayable",
      "type": "function"
    },
    {
      "inputs": [
        {
          "internalType": "address",
          "name": "owner",
          "type": "address"
        }
      ],
      "name": "inscriptionCount",
      "outputs": [
        {
          "internalType": "uint256",
          "name": "",
          "type": "uint256"
        }
      ],
      "stateMutability": "view",
      "type": "function"
    },
    {
      "inputs": [
        {
          "internalType": "address",
          "name": "owner",
          "type": "address"
        },
        {
          "internalType": "uint256",
          "name": "index",
          "type": "uint256"
        }
      ],
      "name": "inscriptionOfOwnerByIndex",
      "outputs": [
        {
          "components": [
            {
              "internalType": "uint256",
              "name": "seed",
              "type": "uint256"
            },
            {
              "internalType": "uint256",
              "name": "extra",
              "type": "uint256"
            }
          ],
          "internalType": "struct SeedData",
          "name": "data",
          "type": "tuple"
        }
      ],
      "stateMutability": "view",
      "type": "function"
    },
    {
      "inputs": [],
      "name": "inscriptionsTotalCount",
      "outputs": [
        {
          "internalType": "uint256",
          "name": "",
          "type": "uint256"
        }
      ],
      "stateMutability": "view",
      "type": "function"
    },
    {
      "inputs": [
        {
          "internalType": "address",
          "name": "owner",
          "type": "address"
        },
        {
          "internalType": "uint256",
          "name": "seed",
          "type": "uint256"
        }
      ],
      "name": "isOwnerOf",
      "outputs": [
        {
          "internalType": "bool",
          "name": "",
          "type": "bool"
        }
      ],
      "stateMutability": "view",
      "type": "function"
    },
    {
      "inputs": [
        {
          "internalType": "address",
          "name": "poolAddress",
          "type": "address"
        }
      ],
      "name": "launch",
      "outputs": [],
      "stateMutability": "nonpayable",
      "type": "function"
    },
    {
      "inputs": [],
      "name": "maxBuy",
      "outputs": [
        {
          "internalType": "uint256",
          "name": "",
          "type": "uint256"
        }
      ],
      "stateMutability": "view",
      "type": "function"
    },
    {
      "inputs": [],
      "name": "name",
      "outputs": [
        {
          "internalType": "string",
          "name": "",
          "type": "string"
        }
      ],
      "stateMutability": "view",
      "type": "function"
    },
    {
      "inputs": [],
      "name": "owner",
      "outputs": [
        {
          "internalType": "address",
          "name": "",
          "type": "address"
        }
      ],
      "stateMutability": "view",
      "type": "function"
    },
    {
      "inputs": [],
      "name": "ownerRenounce",
      "outputs": [],
      "stateMutability": "nonpayable",
      "type": "function"
    },
    {
      "inputs": [],
      "name": "pool",
      "outputs": [
        {
          "internalType": "address",
          "name": "",
          "type": "address"
        }
      ],
      "stateMutability": "view",
      "type": "function"
    },
    {
      "inputs": [
        {
          "internalType": "string[]",
          "name": "data",
          "type": "string[]"
        }
      ],
      "name": "setColors",
      "outputs": [],
      "stateMutability": "nonpayable",
      "type": "function"
    },
    {
      "inputs": [
        {
          "components": [
            {
              "internalType": "uint16[]",
              "name": "list",
              "type": "uint16[]"
            }
          ],
          "internalType": "struct FilePaletteData[]",
          "name": "data",
          "type": "tuple[]"
        },
        {
          "internalType": "uint256",
          "name": "offset",
          "type": "uint256"
        }
      ],
      "name": "setPalettes",
      "outputs": [],
      "stateMutability": "nonpayable",
      "type": "function"
    },
    {
      "inputs": [
        {
          "components": [
            {
              "internalType": "uint256",
              "name": "fileId",
              "type": "uint256"
            },
            {
              "components": [
                {
                  "internalType": "uint16",
                  "name": "color",
                  "type": "uint16"
                },
                {
                  "internalType": "uint16",
                  "name": "paletteIndex",
                  "type": "uint16"
                },
                {
                  "internalType": "bool",
                  "name": "usePalette",
                  "type": "bool"
                },
                {
                  "internalType": "string",
                  "name": "d",
                  "type": "string"
                }
              ],
              "internalType": "struct PathString[]",
              "name": "Data",
              "type": "tuple[]"
            }
          ],
          "internalType": "struct FilePathDataString[]",
          "name": "data",
          "type": "tuple[]"
        },
        {
          "internalType": "uint256",
          "name": "offset",
          "type": "uint256"
        }
      ],
      "name": "setPaths",
      "outputs": [],
      "stateMutability": "nonpayable",
      "type": "function"
    },
    {
      "inputs": [
        {
          "components": [
            {
              "internalType": "string",
              "name": "keyFrame",
              "type": "string"
            },
            {
              "internalType": "string",
              "name": "keyFrameName",
              "type": "string"
            },
            {
              "internalType": "string",
              "name": "animation",
              "type": "string"
            },
            {
              "internalType": "string[]",
              "name": "targets",
              "type": "string[]"
            }
          ],
          "internalType": "struct AnimationStyle",
          "name": "data",
          "type": "tuple"
        },
        {
          "internalType": "uint256",
          "name": "id",
          "type": "uint256"
        }
      ],
      "name": "setStyles",
      "outputs": [],
      "stateMutability": "nonpayable",
      "type": "function"
    },
    {
      "inputs": [],
      "name": "symbol",
      "outputs": [
        {
          "internalType": "string",
          "name": "",
          "type": "string"
        }
      ],
      "stateMutability": "view",
      "type": "function"
    },
    {
      "inputs": [],
      "name": "totalSupply",
      "outputs": [
        {
          "internalType": "uint256",
          "name": "",
          "type": "uint256"
        }
      ],
      "stateMutability": "view",
      "type": "function"
    },
    {
      "inputs": [
        {
          "internalType": "address",
          "name": "to",
          "type": "address"
        },
        {
          "internalType": "uint256",
          "name": "amount",
          "type": "uint256"
        }
      ],
      "name": "transfer",
      "outputs": [
        {
          "internalType": "bool",
          "name": "",
          "type": "bool"
        }
      ],
      "stateMutability": "nonpayable",
      "type": "function"
    },
    {
      "inputs": [
        {
          "internalType": "address",
          "name": "from",
          "type": "address"
        },
        {
          "internalType": "address",
          "name": "to",
          "type": "address"
        },
        {
          "internalType": "uint256",
          "name": "amount",
          "type": "uint256"
        }
      ],
      "name": "transferFrom",
      "outputs": [
        {
          "internalType": "bool",
          "name": "",
          "type": "bool"
        }
      ],
      "stateMutability": "nonpayable",
      "type": "function"
    },
    {
      "inputs": [
        {
          "internalType": "address",
          "name": "newOwner",
          "type": "address"
        }
      ],
      "name": "transferOwnership",
      "outputs": [],
      "stateMutability": "nonpayable",
      "type": "function"
    }
  ],
  "bytecode": "0x60a0604090808252346200043d57620000188162000442565b6006815260206546726f67676960d01b818301528251916200003a8362000442565b60078352662466726f67676960c81b828401528051906001600160401b038083116200033d5760038054936001938486811c9616801562000432575b878710146200041c578190601f96878111620003c6575b5087908783116001146200035f5760009262000353575b505060001982841b1c191690841b1781555b85519182116200033d5760049586548481811c9116801562000332575b878210146200031d5790818685949311620002c5575b5086908684116001146200025a576000936200024e575b505082841b92600019911b1c19161784555b33608052601054600052600d83528460002060018060a01b03199033828254161790556200015060105433600052600e86528088600020556200045e565b60105581848751620001628162000442565b6305f5e10081520152620001763362000484565b3390601354161760135560185533156200020f575060025467016345785d8a000092838201809211620001fa57506000917fddf252ad1be2c89b69c2b068fc378daa952ba7f163c4a11628f55a4df523b3ef9160025533835282815284832084815401905584519384523393a351615f489081620005ef82396080518161221d0152f35b601190634e487b7160e01b6000525260246000fd5b90606493519262461bcd60e51b845283015260248201527f45524332303a206d696e7420746f20746865207a65726f2061646472657373006044820152fd5b01519150388062000100565b9190859450601f1984169289600052886000209360005b8a828210620002ae575050851162000293575b50505050811b01845562000112565b01519060f884600019921b161c191690553880808062000284565b838501518755899890960195938401930162000271565b9091925087600052866000208680860160051c82019289871062000313575b91879187969594930160051c01915b82811062000303575050620000e9565b60008155869550879101620002f3565b92508192620002e4565b602288634e487b7160e01b6000525260246000fd5b90607f1690620000d3565b634e487b7160e01b600052604160045260246000fd5b015190503880620000a4565b90869350601f1983169185600052896000209260005b8b828210620003af575050841162000396575b505050811b018155620000b6565b015160001983861b60f8161c1916905538808062000388565b8385015186558a9790950194938401930162000375565b90915083600052876000208780850160051c8201928a861062000412575b918891869594930160051c01915b828110620004025750506200008d565b60008155859450889101620003f2565b92508192620003e4565b634e487b7160e01b600052602260045260246000fd5b95607f169562000076565b600080fd5b604081019081106001600160401b038211176200033d57604052565b60001981146200046e5760010190565b634e487b7160e01b600052601160045260246000fd5b6005549091906001600160a01b0380841691168114620005e9576000928184526020600c8152604091828620906001845192620004c18462000442565b80548452015483830152848752600c83528387208054906305f5e1008201809211620005d55755620004f56012546200045e565b60128190558451606092831b6001600160601b031916858201908152603480830193909352918152909181016001600160401b03811182821017620005c157918593917f675b60f2c6359bc06657e4dab2068c3b994cc7a3fe5f4eb8343475fcc1fd08b797989993855251902090878352600c855283832091600183015551159081620005b5575b506200059f575b858152600c83522090600183519280548452015490820152a2565b620005ac6011546200045e565b60115562000584565b9050541515386200057d565b634e487b7160e01b89526041600452602489fd5b634e487b7160e01b89526011600452602489fd5b50905056fe60808060405260048036101561001457600080fd5b60003560e01c91826306fdde031461257057508163095ea7b31461254a57816312e0c118146122ae57816316f0115b1461228557816318160ddd14612267578163214013ca146121fa57816323b872dd1461213a5781632bd1a011146120e5578163313ce567146120c9578163333a00721461206d57816335ad0cea14611f895781633950935114611f38578163422b9e2314611e65578163524773ce14611e1d57816354728b62146118945781636b4ed21b1461187657816370a082311461183c57816370db69d6146118195781638da5cb5b146117f057816395d89b411461171957816395e4b21b146116df57816399f65c8f146116c1578163a08c05aa1461152a578163a457c2d714611485578163a9059cbb14611454578163c3f4552a14610be7578163c5b8f77214610b9a578163c7218d5b14610b0b578163cb8106f414610acc578163cfdf7cce14610948578163dd62ed3e146108f7578163e0d97502146108d9578163f2fde38b14610892578163f3726e441461078f578163f89212e3146101ec575063fb700e5b146101ad57600080fd5b346101e75760203660031901126101e7576001600160a01b036101ce61268f565b1660005260086020526020604060002054604051908152f35b600080fd5b346101e75760403660031901126101e757610205612cb2565b50803560018082106101e75760405191606083018381106001600160401b0382111761077a576040528252600060208301526024356040830152610247612cb2565b90610251836141be565b825261025c83615dde565b50608082019260008452601861027182615dde565b069160a08401928352808451111560001461044857600561029183615dde565b066020850152603e6102a283615dde565b06604085015260056102b383615dde565b06818101809111610433576103009650606085015280845114610409575b505b6102a0918284019182516103df575b5060405194845186526020850151602087015260408501516040870152606085015160608701525160808601525160a085015260c083015160c085015260e083015160e085015261010080840151151590850152610120808401519085015261014080840151908501526101608084015190850152610180808401511515908501526101a080840151908501526101c080840151908501526101e080840151151590850152610200808401519085015261022080840151908501526102408084015115159085015261026080840151908501526102808084015190850152511515908301526102c080820151908301526102e08091015190820152f35b6103fc8160076103f0600994615dde565b066102c0880152615dde565b066102e0850152866102e2565b6002600a61041684615dde565b061161042b575b15156102a0840152856102d1565b50600061041d565b601187634e487b7160e01b6000525260246000fd5b948561030096600a61045985615dde565b060361077357805b6102a08601901515815281600a61047786615dde565b061161076b5781925b61010087019315158452865190600382146000146106515750505060036104a684615dde565b068061062a5750806101e08601525b6003600a6104c285615dde565b061015610622575b151590525b61051960066104dd83615dde565b0660c08501908152603e6104f084615dde565b0660e08601526002600561050385615dde565b9251920691116106195760ff60005b1690612947565b610120840152600561052a82615dde565b06610140840152600761053c82615dde565b066101608401526101e0830180516105f0575b610180840180516105c7575b511590816105bd575b50806105af575b1561059957601c61057b82615dde565b06610260840152600761058d82615dde565b166102808401526102d3565b610240830151156102d357601961057b82615dde565b50610240830151151561056b565b9050511586610564565b60256105d284615dde565b066101a086015260076105e484615dde565b166101c086015261055b565b60176105fb83615dde565b06610200850152600761060d83615dde565b1661022085015261054f565b60ff6005610512565b5060006104ca565b80820361063e5750806101808601526104b5565b6002036104b557806102408601526104b5565b81036106d4575050600361066484615dde565b068061069f5750806101e0860152806101808601525b6005600a61068785615dde565b0611610697575b151590526104cf565b50600061068e565b8082036106ba5750806101808601528061024086015261067a565b60020361067a57806101e08601528061024086015261067a565b6005909391929310156106ea575b5050506104cf565b829081806106f787615dde565b160361076457815b1515610180880152818061071287615dde565b160361075d57815b15156101e0880152818061072d87615dde565b160361075657815b151561024088015252600685511461074e575b806106e2565b528580610748565b6000610735565b600061071a565b60006106ff565b600092610480565b6000610461565b604185634e487b7160e01b6000525260246000fd5b346101e75761079d366126eb565b906107b360018060a01b036013541633146128d6565b6000905b8082106107c057005b6107ca8284612947565b600052601560205260406000209260005b6107ef6107e9858589612c6d565b8061296a565b9050811015610884576108066107e9858589612c6d565b82101561086f5761081b908260051b016129bb565b8554600160401b81101561085a579061083c82600180959401895588612c8f565b61ffff9291928084549260031b9316831b921b1916179055016107db565b604189634e487b7160e01b6000525260246000fd5b603288634e487b7160e01b6000525260246000fd5b5092506001909101906107b7565b346101e75760203660031901126101e7576108ab61268f565b601354906001600160a01b03906108c582841633146128d6565b6001600160a01b0319909216911617601355005b346101e75760003660031901126101e7576020601154604051908152f35b346101e75760403660031901126101e75761091061268f565b6109186126a5565b9060018060a01b038091166000526001602052604060002091166000526020526020604060002054604051908152f35b346101e7576020806003193601126101e7576001600160401b0382358181116101e75761097890369085016126bb565b91909261099060018060a01b036013541633146128d6565b6000945b83861061099d57005b6005956109ae81881b8701876129ca565b60008381526016865260409020919886821161077a576109ce83546127f7565b90601f91828111610a94575b50506000908211600114610a2c579080610a13926001969798999a9b600092610a21575b50508160011b916000199060031b1c19161790565b90555b019493929190610994565b013590508b806109fe565b601f1982169983600052866000209160005b8c8110610a7d57508360019798999a9b9c10610a63575b505050831b83019055610a16565b0135600019600384901b60f8161c19169055898080610a55565b909288600181928686013581550194019101610a3e565b610abc9185600052886000209084808701821c8301938b8810610ac3575b01901c01906129fc565b8a806109da565b93508293610ab2565b346101e75760203660031901126101e757356000908152600d60209081526040909120546001600160a01b03166040516001600160a01b039091168152f35b346101e75760403660031901126101e757610b2461268f565b60006020604051610b348161271d565b828152015260018060a01b031660005260096020526040600020602435600052602052610b966040600020600160405191610b6e8361271d565b8054835201546020820152604051918291829190916020806040830194805184520151910152565b0390f35b346101e75760403660031901126101e7576001600160a01b03610bbb61268f565b16600052600b6020526040600020602435600052602052602060ff604060002054166040519015158152f35b346101e75760403660031901126101e7576040805163f89212e360e01b81526004359281019283526024356020840152610300929091839183918291010381305afa9081156114485760226112ef926113db92610b969560009261141b575b5050610c5281516140f9565b90610c916028604051809467113632bb32b6111d60c11b6020830152610c818151809260208686019101612640565b81010360088101855201836127bb565b610c9e60808201516140f9565b90610d396047610cb160a08401516140f9565b936040519485916e16113130b1b5b3b937bab732111d1160891b6020840152610ce4815180926020602f87019101612640565b82017f222c226261636b67726f756e6450616c65747465223a22000000000000000000602f820152610d20825180936020604685019101612640565b01601160f91b60468201520360278101855201836127bb565b610d4660c08201516140f9565b90610dcd6039610d5960e08401516140f9565b936040519485916816113137b23c911d1160b91b6020840152610d86815180926020602987019101612640565b82016e1116113137b23ca1b7b637b9111d1160891b6029820152610db4825180936020603885019101612640565b01601160f91b60388201520360198101855201836127bb565b610ddb6101208201516140f9565b610e2b603060405180936e161132bc383932b9b9b4b7b7111d1160891b6020830152610e11815180926020602f86019101612640565b8101601160f91b602f8201520360108101845201826127bb565b610e396101408301516140f9565b610ec2603b610e4c6101608601516140f9565b9260405193849168161132bcb2b9911d1160b91b6020840152610e79815180926020602987019101612640565b82017011161132bcb2b9a830b632ba3a32911d1160791b6029820152610ea9825180936020603a85019101612640565b01601160f91b603a82015203601b8101845201826127bb565b610ed06101a08401516140f9565b610f976046610ee36101c08701516140f9565b6101808701519093901561140e57610ef9612c4d565b6040519485926716113430ba111d1160c11b6020850152610f24815180926020602888019101612640565b83016f1116113430ba2830b632ba3a32911d1160811b6028820152610f53825180936020603885019101612640565b016c1116113430ba2137b7b6111d1160991b6038820152610f7e825180936020604585019101612640565b01601160f91b60458201520360268101845201826127bb565b610fa56102008501516140f9565b916110796052610fb96102208801516140f9565b6101e08801519095901561140157610fcf612c4d565b6040519687926b161132bcb2bbb2b0b9111d1160a11b6020850152610ffe815180926020602c88019101612640565b83017311161132bcb2bbb2b0b92830b632ba3a32911d1160611b602c820152611031825180936020604085019101612640565b017011161132bcb2bbb2b0b92137b7b6111d1160791b6040820152611060825180936020605185019101612640565b01601160f91b60518201520360328101865201846127bb565b6110876102608601516140f9565b9361115b605261109b6102808901516140f9565b610240890151909790156113f4576110b1612c4d565b6040519889926b161131b637ba3432b9911d1160a11b60208501526110e0815180926020602c88019101612640565b83017311161131b637ba3432b9a830b632ba3a32911d1160611b602c820152611113825180936020604085019101612640565b017011161131b637ba3432b9a137b7b6111d1160791b6040820152611142825180936020605185019101612640565b01601160f91b60518201520360328101885201866127bb565b61125f607361116e6102608901516140f9565b6102a061117f6102808b01516140f9565b990151156113e75761118f612c4d565b604051998a927f2c22616e696d617465644261636b67726f756e64223a2200000000000000000060208501526111cf815180926020603788019101612640565b83017f222c22616e696d617465644261636b67726f756e6450616c65747465223a2200603782015261120b825180936020605685019101612640565b017f222c22616e696d617465644261636b67726f756e64426f6f6c223a22000000006056820152611246825180936020607285019101612640565b01601160f91b60728201520360538101895201876127bb565b604051967f2c22776562223a2268747470733a2f2f66726f6767692e6172742f222c0000006020890152601d88526112968861271d565b604051987f226465736372697074696f6e223a2246726f6767692c202466726f6767692e2260208b015260208a526112cd8a61271d565b60216040519e8f809d607b60f81b602083015260208151948593019101612640565b8b01611305825180936020602185019101612640565b0161131a825180936020602185019101612640565b0161132f825180936020602185019101612640565b01611344825180936020602185019101612640565b01611359825180936020602185019101612640565b0161136e825180936020602185019101612640565b01611383825180936020602185019101612640565b01611398825180936020602185019101612640565b016113ad825180936020602185019101612640565b016113c2825180936020602185019101612640565b01607d60f81b60218201520360028101845201826127bb565b60405191829182612663565b6113ef612c2c565b61118f565b6113fc612c2c565b6110b1565b611409612c2c565b610fcf565b611416612c2c565b610ef9565b61143a9250803d10611441575b61143281836127bb565b810190612a68565b8580610c46565b503d611428565b6040513d6000823e3d90fd5b346101e75760403660031901126101e75761147a61147061268f565b6024359033612e62565b602060405160018152f35b346101e75760403660031901126101e75761149e61268f565b602435336000526001602052604060002060018060a01b0383166000526020526040600020548181106114d85761147a9350039033612d60565b60405162461bcd60e51b8152602081860152602560248201527f45524332303a2064656372656173656420616c6c6f77616e63652062656c6f77604482015264207a65726f60d81b6064820152608490fd5b346101e757366003190161032081126101e757610300136101e757610304356001600160401b0381116101e757366023820112156101e7578082013561156f816127dc565b9161157d60405193846127bb565b81835236602483830101116101e757816000926024602093018386013783010152604051916115ab8361274e565b358252602435602083015260443560408301526064356060830152608435608083015260a43560a083015260c43560c083015260e43560e08301526101043580151581036101e7576101008301526101243561012083015261014435610140830152610164356101608301526101843580151581036101e7576101808301526101a4356101a08301526101c4356101c08301526101e43580151581036101e7576101e083015261020435610200830152610224356102208301526102443580151581036101e75761024083015261026435610260830152610284356102808301526102a4359081151582036101e757826113db926102a0610b969501526102c4356102c08201526102e4356102e08201526130dc565b346101e75760003660031901126101e7576020600f54604051908152f35b346101e75760203660031901126101e7576001600160a01b0361170061268f565b16600052600e6020526020604060002054604051908152f35b346101e75760003660031901126101e7576040519060009080549061173d826127f7565b808552916020916001918281169081156117c3575060011461176a575b610b96866113db818803826127bb565b600090815293507f8a35acfbc15ff81a39ae7d344fd709f28e8600b4aa8c65c6b64bfe7fe36bd19b5b8385106117b0575050505081016020016113db82610b968561175a565b8054868601840152938201938101611793565b9050869550610b96969350602092506113db94915060ff191682840152151560051b82010192938561175a565b346101e75760003660031901126101e7576013546040516001600160a01b039091168152602090f35b346101e75760003660031901126101e7576020611834612bae565b604051908152f35b346101e75760203660031901126101e7576001600160a01b0361185d61268f565b1660005260006020526020604060002054604051908152f35b346101e75760003660031901126101e7576020601054604051908152f35b346101e757600319906040368301126101e7576001600160401b0381358181116101e75760808184019482360301126101e7576024906118df60018060a01b036013541633146128d6565b8135600052602090601782526040600020946118fb87806129ca565b868199929911611e095761190f88546127f7565b98601f998a8111611ddb575b506000908a8311600114611d745761194b929160009183610a215750508160011b916000199060031b1c19161790565b87555b600196878101611960878601846129ca565b90898211611cb95761197283546127f7565b8c8111611d45575b506000908c8311600114611cd8576119aa929160009183611ccd5750508160011b916000199060031b1c19161790565b90555b600281016119be60448601846129ca565b90898211611cb9576119d083546127f7565b8c8111611c80575b506000908c8311600114611c055792611a1383600394611a1f989794606497600092611abd5750508160011b916000199060031b1c19161790565b90555b0194019061296a565b959094600160401b8711611bf2578354878555808810611b7d575b50859360005284600020936000965b888810611a5257005b611a5c81836129ca565b858193929311611b69578b9189918e611a758b546127f7565b818111611b3b575b506000908211600114611ac8579080611aae928697600092611abd5750508160011b916000199060031b1c19161790565b89555b01960197019694611a49565b0135905038806109fe565b94601f198216958b600052846000209660005b818110611b185750918697918488959410611afe575b505050811b018955611ab1565b0135600019600384901b60f8161c19169055388080611af1565b9396839598838894989395013581550195019201918f9592918d95979492611adb565b611b63908c60005285600020600584808701821c830193898810610ac35701901c01906129fc565b38611a7d565b84604188634e487b7160e01b600052526000fd5b8460005288888760002092830192015b828110611b9b575050611a3a565b8b611ba682546127f7565b80611bb6575b5050018990611b8d565b818111600114611bce575050600081555b8b8d611bac565b611be96000928484528b8420920160051c82018583016129fc565b81835555611bc7565b634e487b7160e01b600090815260418452fd5b908b9291601f19831691856000528a6000209260005b8c828210611c6157505092600395928592611a1f9a99966064999610611c49575b505050811b019055611a16565b013560001983881b60f8161c191690558f8080611c3c565b91929596849587849396013581550195019201908e9594939291611c1b565b611caa90846000528d8a6000209080860160051c8201928c8710611cb0575b0160051c01906129fc565b8c6119d8565b92508192611c9f565b88604187634e487b7160e01b600052526000fd5b013590508d806109fe565b908b9291601f19831691856000528a6000209260005b8c828210611d265750508411611d0c575b505050811b0190556119ad565b0135600019600384901b60f8161c191690558c8080611cff565b91929596849587849396013581550195019201908e9594939291611cee565b611d6e90846000528d8a6000209080860160051c8201928c8710611cb0570160051c01906129fc565b8c61197a565b601f198316918a600052876000209260005b89828210611dc5575050908460019594939210611dab575b505050811b01875561194e565b0135600019600384901b60f8161c191690558a8080611d9e565b6001849682939587013581550195019201611d86565b611e03908a600052876000208c80860160051c8201928a8710611cb0570160051c01906129fc565b8a61191b565b85604184634e487b7160e01b600052526000fd5b346101e75760003660031901126101e7576002549067016345785d8a0000918203918211611e5057602082604051908152f35b601190634e487b7160e01b6000525260246000fd5b346101e75760403660031901126101e757611ef9611e8382356140f9565b611ecc6020611e936024356140f9565b926040519381611eac8693518092868087019101612640565b8201611ec082518093868085019101612640565b010380845201826127bb565b6040519263f89212e360e01b84528380610300948593820190604082019160043581526020602435910152565b0381305afa801561144857610b96936113db93600092611f1b575b50506130dc565b611f319250803d106114415761143281836127bb565b8480611f14565b346101e75760403660031901126101e75761147a611f5461268f565b336000526001602052604060002060018060a01b038216600052602052611f82602435604060002054612947565b9033612d60565b346101e75760403660031901126101e75735602435611fa781612a13565b611fb460405191826127bb565b818152611fc082612a13565b6020938285019391601f190136853760005b82811061202857505050906040519283926020840190602085525180915260408401929160005b82811061200857505050500390f35b83516001600160a01b031685528695509381019392810192600101611ff9565b8061205361203860019385612947565b6000908152600d60205260409020546001600160a01b031690565b61205d8287612a47565b90838060a01b0316905201611fd2565b346101e75760003660031901126101e7576013546120956001600160a01b03821633146128d6565b6001600160a01b0319166013557f6e4ee811a17215345b89e3506064ff2d62f4feedff3566e9d09219cda7e8cadb600080a1005b346101e75760003660031901126101e757602060405160098152f35b346101e75760203660031901126101e7576120fe61268f565b6000602060405161210e8161271d565b828152015260018060a01b0316600052600c602052610b966040600020600160405191610b6e8361271d565b346101e75760603660031901126101e75761215361268f565b61215b6126a5565b6044359160018060a01b0381166000526001602052604060002033600052602052604060002054936000198503612198575b5061147a9350612e62565b8385106121b657506121b08361147a95033383612d60565b8461218d565b60649060206040519162461bcd60e51b8352820152601d60248201527f45524332303a20696e73756666696369656e7420616c6c6f77616e63650000006044820152fd5b346101e75760203660031901126101e75761221361268f565b6001600160a01b037f0000000000000000000000000000000000000000000000000000000000000000811633036101e757600554918183166101e7576001600160a01b031990921691161760055542600655005b346101e75760003660031901126101e7576020600254604051908152f35b346101e75760003660031901126101e7576005546040516001600160a01b039091168152602090f35b346101e7576122bc366126eb565b906122d260018060a01b036013541633146128d6565b60005b8181106122de57005b6122f36122ec82848761290f565b3584612947565b600052602091601483526040600020936000905b61231e61231585858a61290f565b8681019061296a565b905082101561253c5761233561231585858a61290f565b831015612527578260051b81013590607e19813603018212156101e75701918654600160401b81101561251257806001612372920189558861299f565b6124fe5761ffff612382856129bb565b16908054908261ffff19831617815563ffff00006123a18a88016129bb565b60101b1691828463ffffffff198316171782556040870135928315158094036101e7576123ee9464ff000000006001958d1b169264ffffffffff19161717178155019360608101906129ca565b6001600160401b0381959295116124e95761240982546127f7565b94601f958681116124bb575b5060009582116001146124525790806001959661244893600092611ccd5750508160011b916000199060031b1c19161790565b90555b0190612307565b601f1982169583600052896000209660005b8b8282106124a5575050916001969791848895941061248b575b505050811b01905561244b565b0135600019600384901b60f8161c191690558c808061247e565b6001849a82939587013581550199019201612464565b6124e390846000528a6000208880860160051c8201928d8710611cb0570160051c01906129fc565b8c612415565b60418b634e487b7160e01b6000525260246000fd5b60008a634e487b7160e01b82525260246000fd5b60418a634e487b7160e01b6000525260246000fd5b603289634e487b7160e01b6000525260246000fd5b9450909250506001016122d5565b346101e75760403660031901126101e75761147a61256661268f565b6024359033612d60565b346101e75760003660031901126101e757600060035461258f816127f7565b8084529060209060019081811690811561261657506001146125bc575b610b96856113db818703826127bb565b6003600090815293507fc2575a0e9e593c00f959f8c92f12db2869c3395a3b0502d05e2516446f71f85b5b838510612603575050505081016020016113db82610b966125ac565b80548686018401529382019381016125e7565b869550610b96969350602092506113db94915060ff191682840152151560051b82010192936125ac565b60005b8381106126535750506000910152565b8181015183820152602001612643565b604091602082526126838151809281602086015260208686019101612640565b601f01601f1916010190565b600435906001600160a01b03821682036101e757565b602435906001600160a01b03821682036101e757565b9181601f840112156101e7578235916001600160401b0383116101e7576020808501948460051b0101116101e757565b60406003198201126101e757600435906001600160401b0382116101e757612715916004016126bb565b909160243590565b604081019081106001600160401b0382111761273857604052565b634e487b7160e01b600052604160045260246000fd5b61030081019081106001600160401b0382111761273857604052565b608081019081106001600160401b0382111761273857604052565b602081019081106001600160401b0382111761273857604052565b606081019081106001600160401b0382111761273857604052565b90601f801991011681019081106001600160401b0382111761273857604052565b6001600160401b03811161273857601f01601f191660200190565b90600182811c92168015612827575b602083101461281157565b634e487b7160e01b600052602260045260246000fd5b91607f1691612806565b90604051918260008254612844816127f7565b908184526020946001916001811690816000146128b45750600114612875575b505050612873925003836127bb565b565b600090815285812095935091905b81831061289c5750506128739350820101388080612864565b85548884018501529485019487945091830191612883565b9250505061287394925060ff191682840152151560051b820101388080612864565b156128dd57565b60405162461bcd60e51b815260206004820152600a60248201526937b7363c9037bbb732b960b11b6044820152606490fd5b91908110156129315760051b81013590603e19813603018212156101e7570190565b634e487b7160e01b600052603260045260246000fd5b9190820180921161295457565b634e487b7160e01b600052601160045260246000fd5b903590601e19813603018212156101e757018035906001600160401b0382116101e757602001918160051b360383136101e757565b80548210156129315760005260206000209060011b0190600090565b3561ffff811681036101e75790565b903590601e19813603018212156101e757018035906001600160401b0382116101e7576020019181360383136101e757565b818110612a07575050565b600081556001016129fc565b6001600160401b0381116127385760051b60200190565b8051156129315760200190565b8051600110156129315760400190565b80518210156129315760209160051b010190565b519081151582036101e757565b90816103009103126101e75760405190612a818261274e565b805182526020810151602083015260408101516040830152606081015160608301526080810151608083015260a081015160a083015260c081015160c083015260e081015160e0830152610100612ad9818301612a5b565b90830152610120808201519083015261014080820151908301526101608082015190830152610180612b0c818301612a5b565b908301526101a080820151908301526101c080820151908301526101e0612b34818301612a5b565b9083015261020080820151908301526102208082015190830152610240612b5c818301612a5b565b90830152610260808201519083015261028080820151908301526102a0612b84818301612a5b565b908301526102c080820151908301526102e0809101519082015290565b9190820391821161295457565b6005546001600160a01b031615612c2057612bcb60065442612ba1565b67016345785d8a0000818102918183048103612954576706f05b59d3b2000002918083046005149015171561295457620186a0652d79883d20009204820180921161295457808211612c1b575090565b905090565b67016345785d8a000090565b60405190612c398261271d565b600582526466616c736560d81b6020830152565b60405190612c5a8261271d565b60048252637472756560e01b6020830152565b91908110156129315760051b81013590601e19813603018212156101e7570190565b919091805483101561293157600052601e60206000208360041c019260011b1690565b60405190612cbf8261274e565b816102e06000918281528260208201528260408201528260608201528260808201528260a08201528260c08201528260e08201528261010082015282610120820152826101408201528261016082015282610180820152826101a0820152826101c0820152826101e08201528261020082015282610220820152826102408201528261026082015282610280820152826102a0820152826102c08201520152565b6001600160a01b03908116918215612e115716918215612dc15760207f8c5be1e5ebec7d5bd14f71427d1e84f3dd0314c0f7b2291e5b200ac8c7c3b925918360005260018252604060002085600052825280604060002055604051908152a3565b60405162461bcd60e51b815260206004820152602260248201527f45524332303a20617070726f766520746f20746865207a65726f206164647265604482015261737360f01b6064820152608490fd5b60405162461bcd60e51b8152602060048201526024808201527f45524332303a20617070726f76652066726f6d20746865207a65726f206164646044820152637265737360e01b6064820152608490fd5b6005546001600160a01b03939291908416156130b457612e8181615661565b612e8a83615661565b90612e9685858561421d565b612e9f83615661565b90612ea985615661565b918115806130ad575b61309f575b81613096575b50613088575b811580613081575b613073575b8161306a575b5061305c575b83821615612f5857838116308114612f4d576007549460ff861615612f07575050612873935061442c565b60055416809114612f1d5750612873935061442c565b92919050612f29612bae565b82116101e75760ff19938416600117600755612f449261442c565b60075416600755565b50612873935061442c565b905091909116801561300d57600091818352826020526040832054818110612fbd57817fddf252ad1be2c89b69c2b068fc378daa952ba7f163c4a11628f55a4df523b3ef926020928587528684520360408620558060025403600255604051908152a3565b60405162461bcd60e51b815260206004820152602260248201527f45524332303a206275726e20616d6f756e7420657863656564732062616c616e604482015261636560f01b6064820152608490fd5b60405162461bcd60e51b815260206004820152602160248201527f45524332303a206275726e2066726f6d20746865207a65726f206164647265736044820152607360f81b6064820152608490fd5b61306582615790565b612edc565b90501538612ed6565b61307c84615736565b612ed0565b5080612ecb565b61309183615790565b612ec3565b90501538612ebd565b6130a885615736565b612eb7565b5080612eb2565b836013541680858316149081156130d0575b50612edc57600080fd5b905084831614386130c6565b604051907f3c73766720786d6c6e733d27687474703a2f2f7777772e77332e6f72672f323060208301527f30302f737667272076696577426f783d2730203020313030203130302720736860408301526060927f6170652d72656e646572696e673d2763726973704564676573272069643d27668484015265726f6767692d60d01b6080840152613197608884835161317c816086840160208801612640565b810161139f60f11b60868201520360688101865201846127bb565b815161364e57604051916131aa836127a0565b6002835260005b604081106136205750600080526017602052604051947fd840e16649f6b9a295d95876f4633d3a6b10b55e8162971cf78afd886d5ec89b91906131f38761276a565b6131fc83612831565b875260019661320c888501612831565b602082015261321d60028501612831565b60408201526003809401805461323281612a13565b9161324060405193846127bb565b818352602083019060005260206000208b6000925b8484106136035750505050508282015261326e86612a2a565b5261327885612a2a565b5080820151600052601760205260406000209060036040519261329a8461276a565b6132a381612831565b84526132b08a8201612831565b60208501526132c160028201612831565b6040850152019081546132d381612a13565b926132e160405194856127bb565b818452602084019060005260206000208b6000925b8484106135e657505050505082015261330e85612a37565b5261331884612a37565b506102a081018051909390156135d757613331826146f7565b965b60208301519360408401516040519561334b8761271d565b6003875260208701966265676760e81b8852614e20918201808311612954576000526014602052604060002092820180921161295457602c6133df916133c49360009a9796959a526015602052604060002096604051948592691e339031b630b9b99e9160b11b6020850152518092602a850190612640565b810161111f60f11b602a82015203600c8101845201826127bb565b956000938154925b83861061351157505050505050916134f695939183613444603597956040519661343f60248960206134228183019a8b815193849201612640565b8101631e17b39f60e11b602082015203600481018b5201896127bb565b614848565b9351156134f95761345491614c5c565b925b61349660405198866134728b985180926020808c019101612640565b87016134878251809360208085019101612640565b01915180936020840190612640565b01661e39ba3cb6329f60c91b60208201526134bb825180936020602785019101612640565b016134d0825180936020602785019101612640565b016d1e17b9ba3cb6329f1e17b9bb339f60911b60278201520360158101845201826127bb565b90565b505060405161350781612785565b6000815292613456565b90919293859860ff61352483988761299f565b505460201c16156135975761358a6020611e938c61355561354e613548838c61299f565b50614c1a565b918a61299f565b5061356961ffff80925460101c168a612c8f565b905490891b1c16600052601683526135846040600020612831565b90615e96565b985b0194939291906133e7565b6135d16020611e938c61ffff6135ba6135b3613548848d61299f565b928b61299f565b505416600052601683526135846040600020612831565b9861358c565b6135e082614544565b96613333565b602082916135f385612831565b8152019201920191908c906132f6565b6020829161361085612831565b8152019201920191908c90613255565b60209060405161362f8161276a565b87815287838201528760408201528780820152828287010152016131b1565b9091926040519061365e8261271d565b6001825260005b602081106140bc57506000805260176020526040519060037fd840e16649f6b9a295d95876f4633d3a6b10b55e8162971cf78afd886d5ec89b6136a78461276a565b6136b081612831565b84526136be60018201612831565b60208501526136cf60028201612831565b6040850152019081546136e181612a13565b926136ef60405194856127bb565b818452602084019060005260206000206000915b83831061409f575050505082015261371a82612a2a565b5261372481612a2a565b506102a08301511561409057613739836146f7565b925b60c081015160e082015190604051906137538261271d565b6004825263626f647960e01b6020830152617530018061753011612954576000526014602052604060002091806175300161753011612954576175309291920160005260156020526040600020916137ef602c6040518093691e339031b630b9b99e9160b11b60208301526137d2815180926020602a86019101612640565b61111f60f11b602a8284010152810103600c8101845201826127bb565b916000918054915b828410614037575050505061384260246040518361381f829551809260208086019101612640565b631e17b39f60e11b602082840101526004828281010301825281010301826127bb565b61012082015160e0830151906040519061385b8261271d565b600a82526932bc383932b9b9b4b7b760b11b602083015280619c4001619c401161295457619c4001600052601460205260406000209180619c4001619c401161295457619c409291920160005260156020526040600020916138e4602c6040518093691e339031b630b9b99e9160b11b60208301526133c4815180926020602a86019101612640565b916000918054915b828410613fc75750505050613931602460405183613914829551809260208086019101612640565b8101631e17b39f60e11b60208201520360048101845201826127bb565b61014083015190610160840151916040519061394c8261271d565b60048252636579657360e01b60208301528061c3500161c350116129545761c3500160005260146020526040600020928061c3500161c350116129545761c3509391930160005260156020526040600020926139cf602c6040518093691e339031b630b9b99e9160b11b60208301526133c4815180926020602a86019101612640565b926000918054915b828410613f575750505050613a1c6024604051846139ff829651809260208086019101612640565b8101631e17b39f60e11b60208201520360048101855201836127bb565b6101a0840151926101c08501519360405190613a378261271d565b60038252621a185d60ea1b60208301528061ea600161ea60116129545761ea600160005260146020526040600020948061ea600161ea60116129545761ea60959195016000526015602052604060002094613ab9602c6040518093691e339031b630b9b99e9160b11b60208301526133c4815180926020602a86019101612640565b946000918054915b828410613eed5750505050613b06602460405186613ae9829851809260208086019101612640565b8101631e17b39f60e11b60208201520360048101875201856127bb565b610200850151946102208101519560405190613b218261271d565b600782526632bcb2bbb2b0b960c91b60208301528062011170016201117011612954576201117001600052601460205260406000209680620111700162011170116129545762011170979197016000526015602052604060002096613bad602c6040518093691e339031b630b9b99e9160b11b60208301526133c4815180926020602a86019101612640565b966000918054915b828410613e895750505050613bfa602460405188613bdd829a51809260208086019101612640565b8101631e17b39f60e11b60208201520360048101895201876127bb565b610260810151966102808201519760405190613c158261271d565b6007825266636c6f7468657360c81b60208301528062013880016201388011612954576201388001600052601460205260406000209880620138800162013880116129545762013880999199016000526015602052604060002098613ca1602c6040518093691e339031b630b9b99e9160b11b60208301526133c4815180926020602a86019101612640565b986000918054915b828410613de65750505050926035989592613d299b9895926134f69b9895613ce460246040518a613422829c51809260208086019101612640565b610100820151899015613dce57613cfa91614848565b975b6102a082015115613db657613d1091614c5c565b975b60206040519d8e8c83829e51948593019101612640565b8a01613d3e8251809360208085019101612640565b01613d528251809360208085019101612640565b01613d668251809360208085019101612640565b01613d7a8251809360208085019101612640565b01613d8e8251809360208085019101612640565b01613da28251809360208085019101612640565b016134968251809360208085019101612640565b5050604051613dc481612785565b6000815297613d12565b5050604051613ddc81612785565b6000815297613cfc565b9091929a6001908c60ff613dfa828761299f565b505460201c1615613e60576020611e9382613e25613e1e613548613e55968b61299f565b918961299f565b50613e3961ffff80925460101c1689612c8f565b90549060031b1c16600052601683526135846040600020612831565b9b5b01929190613ca9565b6020611e938261ffff6135ba613e7c613548613e83978c61299f565b928a61299f565b9b613e57565b9091929860019060ff613e9c8c8661299f565b505460201c1615613ecb57613ec06020611e938d613e25613e1e613548838b61299f565b995b01929190613bb5565b613ee76020611e938d61ffff6135ba613e7c613548848c61299f565b99613ec2565b9091929660019060ff613f008a8661299f565b505460201c1615613f3557613f2a6020611e93613f206135488d8961299f565b613e258d8961299f565b975b01929190613ac1565b613f516020611e938b61ffff6135ba613e7c613548848c61299f565b97613f2c565b9091929460019060ff613f6a888661299f565b505460201c1615613f9f57613f946020611e93613f8a6135488b8961299f565b613e258b8961299f565b955b019291906139d7565b613fc16020611e93613fb46135488b8961299f565b61ffff6135ba8c8a61299f565b95613f96565b9091929360019060ff613fda878661299f565b505460201c161561400f576140046020611e93613ffa6135488a8961299f565b613e258a8961299f565b945b019291906138ec565b6140316020611e936140246135488a8961299f565b61ffff6135ba8b8a61299f565b94614006565b9091929360019060ff61404a878661299f565b505460201c16156140755761406a6020611e93613ffa6135488a8961299f565b945b019291906137f7565b61408a6020611e936140246135488a8961299f565b9461406c565b61409983614544565b9261373b565b6001602081926140ae85612831565b815201920192019190613703565b6020906040516140cb8161276a565b8381528383820152836040820152838082015282828601015201613665565b60001981146129545760010190565b80156141a057600081805b61418c5750614112816127dc565b9061412060405192836127bb565b808252601f1961412f826127dc565b013660208401375b80928015614185576000198201918211612954578193600a92603090848406820180921161295457855111156129315760f81b6001600160f81b03191660001a908401601f01530491614137565b5050905090565b90614198600a916140ea565b910480614104565b506040516141ad8161271d565b60018152600360fc1b602082015290565b516103e8811061421757610bb8811061421157612710811061420b5761753081106142055761ea6081106141ff576201d4c0116141fa57600690565b600590565b50600490565b50600390565b50600290565b50600190565b50600090565b916001600160a01b03919082841630811461442557633b9aca00908183049485151580614417575b80614407575b61428a575b5061428592612873969261427f926000526000602052806142776040600020549384612ba1565b049104612ba1565b90615858565b615cea565b600090828252602091600c8352604090888282205414806143e8575b61438e57848152600b8452818120898252845260ff82822054168061436f575b6142d257505050614250565b6143439296507ff812986a5595e9c800cf9827b7640776492182d291a381e643e11eeef74fe70697955098818a8661436a979b94969c5260098c52818120600a8d528282208583528d528282205482528c522099600185519b6143348d61271d565b80548d520154908b0152615bb0565b61434d8784615b07565b519283921695829190916020806040830194805184520151910152565b0390a3565b508288168152600b8452818120898252845260ff8282205416156142c6565b6143439296507ff812986a5595e9c800cf9827b7640776492182d291a381e643e11eeef74fe70697955098818a8661436a979b94969c52600c8c522099600185519b6143d98d61271d565b80548d520154908b0152615858565b508288168152600b8452818120898252845260ff8282205416156142a6565b508060055416818616141561424b565b508060055416821415614245565b5050505050565b6001600160a01b039081169182156144f15760009383855284602052604085205481811061449d577fddf252ad1be2c89b69c2b068fc378daa952ba7f163c4a11628f55a4df523b3ef9360209383604093888a528987520383892055169586815220818154019055604051908152a3565b60405162461bcd60e51b815260206004820152602660248201527f45524332303a207472616e7366657220616d6f756e7420657863656564732062604482015265616c616e636560d01b6064820152608490fd5b60405162461bcd60e51b815260206004820152602560248201527f45524332303a207472616e736665722066726f6d20746865207a65726f206164604482015264647265737360d81b6064820152608490fd5b60a060808201519101516040805161455b8161271d565b600a81526020928382019169189858dad9dc9bdd5b9960b21b835261271095860195868111612954576000968752601486528487209281018091116146e357602c6133c4926145d592899695995260158852868620948751948592691e339031b630b9b99e9160b11b8b850152518092602a850190612640565b94828154925b838510614621575050505050631e17b39f60e11b926134f69260249251948261460d8794518092858088019101612640565b8301918201520360048101845201826127bb565b909192939660019060ff6146358a8761299f565b5054891c16156146ae576146a28861468a6146536135488d8a61299f565b61465d8d8a61299f565b5061467161ffff80925460101c1689612c8f565b90549060031b1c168852601683526135848b8920612831565b9289519381611eac8693518092868087019101612640565b975b01939291906145db565b6146dd8861468a8b61ffff6146c96135b3613548848d61299f565b5054168852601683526135848b8920612831565b976146a4565b634e487b7160e01b87526011600452602487fd5b6102e06102c0820151910151604080516147108161271d565b601381526020928382019172185b9a5b585d19590b589858dad9dc9bdd5b99606a1b835262015f9095860195868111612954576000968752601486528487209281018091116146e357602c6133c49261479492899695995260158852868620948751948592691e339031b630b9b99e9160b11b8b850152518092602a850190612640565b94828154925b8385106147cc575050505050631e17b39f60e11b926134f69260249251948261460d8794518092858088019101612640565b909192939660019060ff6147e08a8761299f565b5054891c161561480a576147fe8861468a6146536135488d8a61299f565b975b019392919061479a565b6148258861468a8b61ffff6146c96135b3613548848d61299f565b97614800565b604051906148388261271d565b60018252600b60fa1b6020830152565b906040516000815261485981612785565b916040516000815261486a81612785565b916040516b3d9030b734b6b0ba34b7b71d60a11b6020820152600c81526148908161271d565b926000945b8351861015614b8d576149606030602d60f81b9260206148b58a89612a47565b510151607d60f81b6148c78b8a612a47565b515160405196846148e289965180926020808a019101612640565b8501936b0102035b2bcb33930b6b2b9960a51b6020860152602c946149108251809360208985019101612640565b019384015261207b60f01b602d938a5190614932828d60208985019101612640565b0193840152602f9261494d8251809360208785019101612640565b01918201520360108101845201826127bb565b906000905b606090816149738988612a47565b51015151831015614a725790614a476001928415801590614a69575b15614a4f576149b4856149a061482b565b945b6149ac8d8c612a47565b510151612a47565b519060405193816149cf869351809260208087019101612640565b82016149e48251809360208085019101612640565b0191602360f81b60208401526666726f6767692d60c81b602184015261101760f11b6028938a5190614a1d828d60208985019101612640565b0193840152602a92614a388251809360208785019101612640565b0103600a8101845201826127bb565b910190614965565b6149b485604051614a5f81612785565b60008152946149a2565b5089151561498f565b92979695905060019150614b5c6020614a8b8888612a47565b510151916040614a9b8989612a47565b51015190881580614b83575b15614b6557614ab461482b565b6820696e66696e69746560b81b6040519583614ada889551809260208089019101612640565b8401614aef8251809360208085019101612640565b0193602d60f81b6020860152600160fd1b8a602196614b178251809360208b85019101612640565b0195860152602294614b328251809360208985019101612640565b0193840152602b92614b4d8251809360208785019101612640565b0103600b8101845201826127bb565b94019495614895565b604051614b718161271d565b858152603b60f81b6020820152614ab4565b5084885111614aa7565b91509350604191506134f6926040519482614bb2879451809260208088019101612640565b8301614bc78251809360208085019101612640565b01614bdb8251809360208085019101612640565b017f7472616e73666f726d2d6f726967696e3a20626f74746f6d2063656e7465723b6020820152607d60f81b60408201520360218101845201826127bb565b90604051614c278161276a565b6060614c576001839560ff815461ffff80821688528160101c16602088015260201c161515604086015201612831565b910152565b916102e083015162015f9090810193848211612954576000948552601560205260409182862091835180938491602082549182815201918a5260208a20908a915b81600f8401106155985791614d3d93916102c09695935491818110615583575b81811061556b575b818110615554575b81811061553c575b8a828210615524575b5081811061550c575b8181106154f4575b8181106154dc575b8181106154c4575b8181106154ac575b818110615494575b81811061547c575b818110615464575b81811061544c575b818110615434575b10615426575b5003856127bb565b0151810180911161541257855260146020528185208054614d5d81612a13565b91614d6a855193846127bb565b81835287526020808820889184015b8383106153f45750505050805193614d9085612a13565b94614d9d855196876127bb565b808652614dac601f1991612a13565b01875b8181106153e3575050865b8551811015614e135760019061ffff614de3816020614dd98589612a47565b5101511687612a47565b511689526016602052614df7868a20612831565b614e018289612a47565b52614e0c8188612a47565b5001614dba565b5094915050614e2183612a2a565b5190614e2c84612a37565b51918451600210156153cf5760608501518551600310156153bb5760808601518651906004918210156153a85760a08801518851600510156153955760c08901518951600610156153825760e08a0151908a516007101561536f576101008b0151928b516008101561535c576101208c0151948c5160091015615349576101408d0151968d51600a101561533657506101608d0151978c519b8c9a60208c017f406b65796672616d6573206379636c652d7261696e626f772d0000000000000090528b8d805160398193019160200191614f0592612640565b8c0160398101717b30252c313030257b7374726f6b653a202360701b905281519182604b83019160200191614f3992612640565b01604b8101703b7d382e3333257b7374726f6b653a202360781b905281519182605c83019160200191614f6b92612640565b01605c8101713b7d31362e3636257b7374726f6b653a202360701b905281519182606e83019160200191614f9e92612640565b01606e81016e3b7d3235257b7374726f6b653a202360881b905281519182607d83019160200191614fce92612640565b01607d81016e3b7d3333257b7374726f6b653a202360881b905281519182608c83019160200191614ffe92612640565b01608c8101713b7d34312e3636257b7374726f6b653a202360701b905281519182609e8301916020019161503192612640565b01609e81016e3b7d3530257b7374726f6b653a202360881b90528151918260ad8301916020019161506192612640565b0160ad8101713b7d35382e3333257b7374726f6b653a202360701b90528151918260bf8301916020019161509492612640565b0160bf8101713b7d36362e3636257b7374726f6b653a202360701b90528151918260d1830191602001916150c792612640565b0160d181016e3b7d3735257b7374726f6b653a202360881b90528151918260e0830191602001916150f792612640565b0160e08101713b7d38332e3333257b7374726f6b653a202360701b90528151918260f28301916020019161512a92612640565b0160f28101617d7d60f01b90520360d48101835260f40161514b90836127bb565b8251918051908160208501916020019161516492612640565b820193672366726f6767692d60c01b908160208701526028958351906028810182602087019161519392612640565b0193602885017f202e616e696d617465642d6261636b67726f756e6420706174687b616e696d61905280604895604881017374696f6e3a206379636c652d7261696e626f772d60601b9052855190605c81018260208901916151f492612640565b01605c81017f20327320737465702d737461727420696e66696e6974653b7d0000000000000090520360558101825260750161523090826127bb565b815189101561532c578361532460656001938a62733b7d60e81b8b8f7f202e616e696d617465642d6261636b67726f756e6420706174685b7374726f6b61528161527a838d612a47565b51926140f9565b925198866152998b985180926020808c019101612640565b87018d60208201526152b48251809360208a85019101612640565b019485015263653d222360e01b8d850152604c936152db8251809360208885019101612640565b019275112ebdb0b734b6b0ba34b7b716b232b630bc9d10169760511b908401526062926153118251809360208785019101612640565b01918201520360458101845201826127bb565b980197615230565b9750505050505050565b8f6032602492634e487b7160e01b835252fd5b634e487b7160e01b8f526032875260248ffd5b634e487b7160e01b8e526032865260248efd5b634e487b7160e01b8d526032855260248dfd5b634e487b7160e01b8c526032845260248cfd5b634e487b7160e01b8b526032835260248bfd5b634e487b7160e01b8a526032825260248afd5b634e487b7160e01b88526032600452602488fd5b634e487b7160e01b87526032600452602487fd5b806060602080938a01015201614daf565b6002602060019261540485614c1a565b815201920192019190614d79565b634e487b7160e01b86526011600452602486fd5b60f01c815260200138614d35565b92602060019161ffff8560e01c168152019301614d2f565b92602060019161ffff8560d01c168152019301614d27565b92602060019161ffff8560c01c168152019301614d1f565b92602060019161ffff8560b01c168152019301614d17565b92602060019161ffff8560a01c168152019301614d0f565b92602060019161ffff8560901c168152019301614d07565b92602060019161ffff8560801c168152019301614cff565b92602060019161ffff8560701c168152019301614cf7565b92602060019161ffff8560601c168152019301614cef565b92602060019161ffff8560501c168152019301614ce7565b6001919461ffff856020931c1681520193018a614cde565b92602060019161ffff8560301c168152019301614cd5565b92602060019161ffff85831c168152019301614ccd565b92602060019161ffff8560101c168152019301614cc5565b92602060019161ffff85168152019301614cbd565b935090916001610200601092865461ffff80821683528082871c166020840152808260201c168d840152818d82826060828260301c168189015282826080951c1684890152828260a0828260501c16818c0152828260c0951c16848c0152828260e0988d8a848460701c169101521c166101008c0152828260901c166101208c01521c16610140890152828260b01c166101608901521c16610180860152828260d01c166101a08601521c166101c083015260f01c6101e0820152019401920190869392614c9d565b6001600160a01b039081169190308314908115615728575b508015615720575b61571a57600091808352600c60205260408320546040519163fb700e5b60e01b83526004830152602082602481305afa91821561570f5784926156d0575b506156cb929350612947565b151590565b9091506020813d602011615707575b816156ec602093836127bb565b81010312615703576156cb929350519083926156bf565b8380fd5b3d91506156df565b6040513d86823e3d90fd5b60009150565b508115615681565b905060055416821438615679565b61577e90601054600052600d60205260406000209060018060a01b031690816001600160601b0360a01b82541617905560105490600052600e602052806040600020556140ea565b601055565b8015612954576000190190565b6010548015615854576001600160a01b039182166000818152600e60205260408082205490949193909190600019810190811161584057808303615809575b5050506157dd601054615783565b6010558152600e60205280828120556010548152600d602052206001600160601b0360a01b8154169055565b8452600d6020528484205416818452848420816001600160601b0360a01b8254161790558352600e602052838320553880806157cf565b634e487b7160e01b85526011600452602485fd5b5050565b91908015615b02576005546001600160a01b038481169291168214615afc576000828152600c6020818152604093848420978551916158968361271d565b895483526001809a015484840152878652848452868620805482811015615a6a575050878652848452868620546158cc91612ba1565b9087865284845285878120556158f06158e66012546140ea565b8060125582615e2f565b8887528585526001888820015560088452868620549980879b88925b615a26575b505050918187969492938b61598b9997957fd9ce8cf3b6090f5cee32f81d4e7fc62d1b356567f2d54d0ec856bfa018f4cfaf9b9c9d116159d9575b50505080511515806159c8575b6159b5575b5115806159a3575b615990575b878352522090518154815260019091015460208201529081906040820190565b0390a2565b61599b6011546140ea565b60115561596b565b50878352818152838320541515615966565b6159c0601154615783565b60115561595e565b508884528282528484205415615959565b615a11926159e691612ba1565b8b87528585526159fa888820918254612947565b9055615a076012546140ea565b9081601255615e2f565b8985528383526001868620015538808061594c565b90919b818d1080615a61575b15615a5b57615a4d615a5391615a4786615e5b565b90612947565b9c6140ea565b91908161590c565b9b615911565b50848110615a32565b7fd9ce8cf3b6090f5cee32f81d4e7fc62d1b356567f2d54d0ec856bfa018f4cfaf999a9b5092615aa8916159fa8a9997959461598b9b999795612ba1565b908985528383528585209160018301555115159081615af2575b50615ae757878352522090518154815260019091015460208201529081906040820190565b61599b601154615783565b9050541538615ac2565b50509050565b509050565b6005546001600160a01b03918216929116821461585457600090828252602060088152604093848420615b3a81546140ea565b9055615b47600f546140ea565b600f55808452600882528484205460001981019081116158405781855260098352858520818652835285852084518155600184860151910155818552600a8352858520845186528352858520558352600b8152838320915183525220600160ff19825416179055565b6005546001600160a01b039182169116811461585457600190600092818452602060088152604092838620615be58154615783565b9055615bf2600f54615783565b600f55808652600b8252838620838752825283862060ff198154169055808652600882528386205492600a83528487209087528252838620548187526009835284872081885283528487209086865192615c4b8461271d565b80548452015484830152848103615c89575b50818752600a835284872090518752825285848120558552600981528285209185525282208281550155565b82885260098452858820858952845285882087875191615ca88361271d565b805483520154858201908152848a5260098652878a20838b52865288888b20918351835551910155838952600a85528689209051895284528588205538615c5d565b908015615854576005546001600160a01b038381169391168314615dd957615d7461598b917f675b60f2c6359bc06657e4dab2068c3b994cc7a3fe5f4eb8343475fcc1fd08b793600090868252600c6020526040938493848420926001865194615d538661271d565b8054865201546020850152898552600c6020526159fa868620918254612947565b90878352600c60205283832091600183015551159081615dce575b50615dbb575b858152600c60205220905191829182919091602060016040830194805484520154910152565b615dc66011546140ea565b601155615d95565b905054151538615d8f565b505050565b615dfb81516020830190815191615df4836140ea565b9052612947565b60001981019190821161295457604001516040519060208201928352604082015260408152615e29816127a0565b51902090565b906040519060208201926001600160601b03199060601b168352603482015260348152615e29816127a0565b6001600160a01b03811660009081526008602052604081205415612c1b5760406134f691600960205281812081805260205220548092615bb0565b603760606134f6920151926040519384916e3c70617468207374726f6b653d272360881b6020840152615ed3815180926020602f87019101612640565b8201642720643d2760d81b602f820152615ef7825180936020603485019101612640565b016213979f60e91b60348201520360178101845201826127bb56fea264697066735822122049d1211448b1fc38aacf3b17e93004566424d03d335a0ba7f8aed128aabf61d364736f6c63430008180033",
  "linkReferences": {},
  "deployedLinkReferences": {}
}